:100000000000002009300000F92C0000F92C00004D
:10001000F92C0000F92C0000F92C0000F92C00004C
:10002000F92C0000F92C0000F92C0000F92C00003C
:10003000F92C0000F92C0000F92C00000D2D000017
:10004000F92C0000F92C0000F92C0000F92C00001C
:10005000F92C0000F92C0000F92C0000F92C00000C
:10006000F92C0000F92C0000F92C0000F92C0000FC
:10007000F92C0000F92C0000F92C0000F92C0000EC
:10008000F92C0000F92C0000F92C0000F92C0000DC
:10009000F92C0000F92C0000F92C0000F92C0000CC
:1000A000F92C0000F92C0000F92C0000F92C0000BC
:1000B000F92C0000F92C0000F92C0000F92C0000AC
:1000C000F92C0000F92C0000F92C0000F92C00009C
:1000D000F92C0000F92C0000F92C0000F92C00008C
:1000E000F92C0000F92C0000F92C0000F92C00007C
:1000F000F92C0000F92C0000F92C0000F92C00006C
:10010000F92C0000F92C0000F92C0000F92C00005B
:10011000F92C0000F92C0000F92C0000F92C00004B
:10012000F92C0000F92C0000F92C0000F92C00003B
:10013000F92C0000F92C0000F92C0000013200001D
:10014000F92C0000F92C0000F92C0000F92C00001B
:10015000F92C0000F92C0000F92C0000F92C00000B
:10016000F92C0000B1500000F92C0000F92C00001F
:10017000F92C0000F92C0000F92C0000F92C0000EB
:10018000F92C0000F92C0000F92C0000F92C0000DB
:10019000F92C0000F92C0000F92C0000F92C0000CB
:1001A0009131000025310000F92C0000F92C0000ED
:0C01B000F92C0000F92C0000F92C0000D4
:10040000FFFFFFFFFFFFFFFFFFFFFFFF7EFBFFFF81
:10042000074B0849084A10B401244FF07E50196068
:100430001C710021986011705DF8044B704700BF7B
:100440000080FF1F0000B442008CFF1F10B504465F
:1004500003F04CFD00B910BD204603F083FBBDE85E
:10046000104003F08BBA00BF034A116813685B1A8F
:100470008342FBD3704700BFEC8CFF1F2DE9F04790
:10048000964B974C1B69627883F00203C3F34003D9
:100490009A4208D0934D002229686160227243B9C4
:1004A0006370BDE8F087002BFAD0227A52B96168F8
:1004B0008C4D2A6841F28830521A824202D90122B8
:1004C00062722272A27A8649002AE9D1854D4E686D
:1004D0002A688548921B8242E2D901238B7202F07E
:1004E00049FF03F003FD20B1804803F03BFB03F01C
:1004F00045FAD5F800E02A687D4BCEEB02029A421D
:1005000000F23A81A07A6178227A677A66680028D8
:1005100040F03D81DFF8C491DFF8CC81184641F20C
:10052000883A09E02E6893B91A462968CEEB010C87
:100530008445194600F22081D9F8103083F0020377
:10054000C3F340038B42EDD10029EED02AB92A68CB
:10055000921B524500F212810022D5F800C0C6EB72
:100560000C0CC445E1D9012361702272A37266604C
:10057000677202F0FFFE03F0B9FC002840F0018131
:10058000D5F800E02A685A4BCEEB02029A4200F2FC
:100590008581A07A6178227A6668677A002840F0BF
:1005A0001681DFF83891DFF84081184641F2883A29
:1005B00009E02E6893B91A462968CEEB010C8445F0
:1005C000194600F26B81D9F8103083F00203C3F3AF
:1005D00040038B42EDD10029EED02AB92A68921B44
:1005E000524500F2C6800022D5F800C0C6EB0C0CC4
:1005F000C445E1D9012361702272A37266606772FB
:1006000002F0B8FE03F072FC20B1384803F0AAFAF9
:1006100003F0B4F9D5F800E02A68354BCEEB0202BE
:100620009A4200F23D81A17A6078227A6668677A00
:10063000002940F01381DFF8A490DFF8AC80194660
:1006400041F2883A09E02E6893B91A462868CEEB41
:10065000000C8C45184600F22381D9F8103083F045
:100660000203C3F340039842EDD10028EED02AB92B
:100670002A68921B524500F2E3800022D5F800C0A0
:10068000C6EB0C0CC445E1D9012360702272A37241
:100690006660677202F06EFE03F028FC20B113481A
:1006A00003F060FA03F06AF9D5F800E02A68104B0D
:1006B000CEEB02029A4200F2C180A07A61786668AD
:1006C000677A227A002840F0A580DFF81090DFF8E2
:1006D0001880184641F2883A16E000BFC0F00F407B
:1006E000008CFF1FEC8CFF1F60E31600ACFB0000CA
:1006F0001FA107002E6893B91A462968CEEB010C9A
:100700008445194600F29A80D9F8103083F002032C
:10071000C3F340038B42EDD10029EED022B92A6801
:10072000921B524573D80022D5F800C0C6EB0C0CC2
:10073000C445E2D9012361702272A37266606772B8
:1007400002F018FE03F0D2FB20B1564803F00AFA7B
:1007500003F014F92E682A68534B921B9A4206D86C
:100760001C46FFF78BFE2B689B1BA342F9D900BEEA
:10077000FEE701273A4637E700BEFEE701273A4683
:10078000EBE6484803F0EEF903F0F8F8F8E6474FD7
:10079000184641F2883C08E02E688BB91A462C684E
:1007A000CEEB040484421946E6D83B6983F0020389
:1007B000C3F340038B42EFD10029F0D0002AEED1E1
:1007C0002A68921B62458CBF01220022E7E7374F5F
:1007D000184641F2883C08E02E688BB91A462C680E
:1007E000CEEB04048442194658D83B6983F00203D7
:1007F000C3F340038B42EFD10029F0D0002AEED1A1
:100800002A68921B62458CBF01220022E7E701277C
:100810003A4689E7254F184641F2883C3B6983F008
:100820000203C3F340038B420DD02E687BB91A46F6
:100830002C68CEEB040484421946EFD900BEFEE7D3
:1008400001273A461AE70029F2D0002AF0D12A6897
:10085000921B62458CBF01220022E9E7134F194623
:1008600041F2883C08E02E688BB91A462C68CEEB22
:1008700004048C42184613D83B6983F00203C3F387
:1008800040039842EFD1002BF0D0002AEED12A6825
:10089000921B62458CBF01220022E7E700BEFEE703
:1008A00000BEFEE7ACFB00001FA10700C0F00F4038
:1008B00070B502F05FFD03F019FB78B90A4D0B4BE0
:1008C0002E682A68921B9A4206D81C46FFF7D6FD6E
:1008D0002B689B1BA342F9D900BEFEE7044803F036
:1008E00041F903F04BF8E9E7EC8CFF1F1FA107006B
:1008F000ACFB00004749484B4A682DE9F04742F0FD
:100900002002464C4A60D4F800E02268CEEB020296
:100910009A4252D8424A967A5078577A117A556854
:10092000002E4CD1DFF80491DFF804811E4641F21D
:10093000883A08E025688BB919462068CEEB000C90
:10094000B445184633D8D9F8103083F00203C3F306
:1009500040038342EED10028EFD021B92168491B22
:10096000514521D80021D4F800C0C5EB0C0CC4457A
:10097000E3D901231172556057725070937202F0DF
:10098000F9FC03F0B3FA00283DD126682268254B14
:10099000921B9A4206D81D46FFF770FD23689B1BE9
:1009A000AB42F9D900BEFEE701273946DBE71172F9
:1009B000577253705560BDE8F087BDE8F087DFF8E7
:1009C0006C80994641F2883C08E0256893B9194645
:1009D0002668CEEB06064E451846E8D8D8F8103003
:1009E00083F00203C3F340038342EED10028EFD02B
:1009F0000029EDD12168491B614501D80021E7E7B5
:100A000001273946E4E7084803F0ACF802F0B6FFE6
:100A1000BBE700BF80F00F40DF930400EC8CFF1FAA
:100A2000008CFF1F1FA10700ACFB0000C0F00F40AF
:100A300060E316004749484B8A682DE9F04742F0C9
:100A40002002464C8A60D4F800E02268CEEB020215
:100A50009A4252D8424A967A5078577A117A556813
:100A6000002E4CD1DFF80491DFF804811E4641F2DC
:100A7000883A08E025688BB919462068CEEB000C4F
:100A8000B445184633D8D9F8103083F00203C3F3C5
:100A900040038342EED10028EFD021B92168491BE1
:100AA000514521D80021D4F800C0C5EB0C0CC44539
:100AB000E3D901231172556057725070937202F09E
:100AC00059FC03F013FA00283DD126682268254B13
:100AD000921B9A4206D81D46FFF7D0FC23689B1B49
:100AE000AB42F9D900BEFEE701273946DBE71172B8
:100AF000577253705560BDE8F087BDE8F087DFF8A6
:100B00006C80994641F2883C08E0256893B9194603
:100B10002668CEEB06064E451846E8D8D8F81030C1
:100B200083F00203C3F340038342EED10028EFD0E9
:100B30000029EDD12168491B614501D80021E7E773
:100B400001273946E4E7084803F00CF802F016FFE5
:100B5000BBE700BF80F00F40DF930400EC8CFF1F69
:100B6000008CFF1F1FA10700ACFB0000C0F00F406E
:100B700060E316004A4A13780121D172002B63D139
:100B80004848494B41682DE9F04741F02001474C66
:100B90004160D4F800E02168CEEB010199424BD8C6
:100BA000967A5078577A117A5568002E4DD1DFF831
:100BB0000891DFF808811E4641F2883A08E025686E
:100BC0008BB919462068CEEB000CB445184635D8D1
:100BD000D9F8103083F00203C3F340038342EED10F
:100BE0000028EFD021B92168491B514521D80021A7
:100BF000D4F800C0C5EB0C0CC445E3D90123117235
:100C0000556057725070937202F0B4FB03F06EF9A6
:100C100000283ED126682268254B921B9A4206D8AE
:100C20001D46FFF72BFC23689B1BAB42F9D900BE86
:100C3000FEE701273946DBE7BDE8F08711725772FE
:100C400053705560BDE8F0877047DFF86C809946B7
:100C500041F2883C08E0256893B919462668CEEB36
:100C600006064E451846E9D8D8F8103083F002033E
:100C7000C3F340038342EED10028EFD00029EDD129
:100C80002168491B614501D80021E7E70127394662
:100C9000E4E7084802F066FF02F070FEBAE700BF22
:100CA000008CFF1F80F00F40DF930400EC8CFF1FCF
:100CB0001FA10700ACFB0000C0F00F4060E316006E
:100CC0004A4A13780021D172002B63D14848494B1E
:100CD00081682DE9F04741F02001474C8160D4F84C
:100CE00000E02168CEEB010199424BD8967A50780A
:100CF000577A117A5568002E4DD1DFF80891DFF848
:100D000008811E4641F2883A08E025688BB91946E9
:100D10002068CEEB000CB445184635D8D9F8103011
:100D200083F00203C3F340038342EED10028EFD0E7
:100D300021B92168491B514521D80021D4F800C0B0
:100D4000C5EB0C0CC445E3D90123117255605772F1
:100D50005070937202F00EFB03F0C8F800283ED1E9
:100D600026682268254B921B9A4206D81D46FFF73B
:100D700085FB23689B1BAB42F9D900BEFEE7012728
:100D80003946DBE7BDE8F087117257725370556042
:100D9000BDE8F0877047DFF86C80994641F2883CE7
:100DA00008E0256893B919462668CEEB06064E453D
:100DB0001846E9D8D8F8103083F00203C3F3400393
:100DC0008342EED10028EFD00029EDD12168491BE4
:100DD000614501D80021E7E701273946E4E70848E3
:100DE00002F0C0FE02F0CAFDBAE700BF008CFF1F90
:100DF00080F00F40DF930400EC8CFF1F1FA1070061
:100E0000ACFB0000C0F00F4060E316002DE9F04796
:100E1000444CD4F800E023684FF47A72CEEB03031D
:100E200002FB00F0834251D23F4A937A5578577AB9
:100E3000117A5668002B4BD1DFF8F8A0DFF8F89054
:100E400041F2883808E026688BB919462568CEEB50
:100E5000050C84451D4633D2DAF8103083F00203C6
:100E6000C3F34003AB42EED1002DEFD021B921688E
:100E7000891B414521D80021D4F800C0C6EB0C0CD9
:100E8000CC45E3D9012311725660577255709372A5
:100E900002F070FA03F02AF800283CD12668226894
:100EA000224B921B9A4206D81D46FFF7E7FA2368A9
:100EB0009B1BAB42F9D900BEFEE701273946DBE7B1
:100EC0001172577253705660BDE8F087BDE8F08725
:100ED000DFF8609041F2883808E0266893B9194637
:100EE0002568CEEB050C60451D46E9D9D9F81030D0
:100EF00083F00203C3F34003AB42EED1002DEFD0E9
:100F00000029EDD12168891B414501D80021E7E77F
:100F100001273946E4E7064802F024FE02F02EFDE0
:100F2000BCE700BFEC8CFF1F008CFF1F1FA1070058
:100F3000ACFB0000C0F00F4060E316002DE9F0416B
:100F4000264CE66867693046394605F0DBFCA56942
:100F5000D4F8108020F0004329462362404605F073
:100F6000D1FC20F0004363621D49384605F0D4FDF2
:100F700005F098FF1B49A0620746284605F0CCFD06
:100F800005F090FF1649E0620546304605F0C4FDC5
:100F900005F088FF134920630646404605F0BCFD76
:100FA00005F080FFF61B451B002ECCBF0121FF2161
:100FB0000D4B6063002D86EAE67E85EAE577CCBFBF
:100FC000FF220122AEEBE67EA7EBE57719735A7399
:100FD000C4F838E0E763BDE8F08100BF008CFF1F74
:100FE000D049334514E0D6450080FF1FF8B5164CB4
:100FF000236A666A19460746184605F08DFD314694
:101000000546304605F088FD0146284605F07CFC83
:1010100005F00EF906F0ECFE05F020FC0B49A56B7F
:10102000E66B05F079FD394605F02AFEAE4204462E
:101030003046B8BF284605F01BFD0146204605F0A6
:101040001FFE05F055FFF8BD008CFF1FC0E1644C8A
:101050002DE9F0412E4CD4F81480E0600F46276152
:101060004146064605F04EFCA56920F0004329469E
:101070002362384605F046FC20F0004363622549B0
:10108000404605F049FD05F00DFF2349A06280466A
:10109000284605F041FD05F005FF1E49E0620546C2
:1010A000304605F039FD05F0FDFE1B49206306467C
:1010B000384605F031FD05F0F5FEC8EB0606451B88
:1010C00086EAE672002E85EAE573A2EBE672A3EBF0
:1010D000E573CCBF0126FF2610496063002DCCBF0D
:1010E000FF2001209A42A263E3630E73487307DC7A
:1010F0000122591084F840206364A164BDE8F081A6
:101100000023511084F840306264A164BDE8F0818E
:10111000008CFF1FD049334514E0D6450080FF1FE7
:101120002DE9F843274CD4F80C9006460D4666612D
:101130003146A561484605F0E5FBD4F8108020F063
:10114000004329462362404605F0DCFB20F00043C3
:1011500063621D49304605F0DFFC05F0A3FE1B4924
:10116000A0620746284605F0D7FC05F09BFE16490D
:10117000E0620546484605F0CFFC05F093FE1349B2
:1011800020630646404605F0C7FC05F08BFEF61BC3
:10119000451B002ECCBF0121FF210D4B6063002DAC
:1011A00086EAE67E85EAE577CCBFFF220122AEEB38
:1011B000E67EA7EBE57719735A73C4F838E0E76366
:1011C000BDE8F883008CFF1FD049334514E0D645B5
:1011D0000080FF1F2DE9F84F574E3378023B012B5B
:1011E00074D9737A002B40F0A280736C5A1E72641B
:1011F000002B00F09C80DFF854A1504F504C054666
:10120000D046B14696F84010B1FA81F0400906EB9D
:10121000810306EB800207EB010ED3F838C0926B16
:10122000B36C5AF821B09EF90CE01344DE446345D8
:101230004AF821E0B3640CDB404A58F8201002441D
:10124000CCEB030392F90C20C9F848300A4448F863
:101250002020226823689B1A9D42FBD8FFF70EF9D5
:10126000737A354933B9D9F844305A1EC9F8442045
:10127000002BC7D10D69CC68746121462046B56149
:1012800005F040FB20F0004329463362284605F074
:1012900039FB20F0004373622A49204605F03CFCEC
:1012A00005F000FE2849B0620446284605F034FCEB
:1012B00005F0F8FDFF210122002339737A733463AE
:1012C000F0627063B363F363BDE8F88F96F90B3097
:1012D0002BB396F94C30F46823BB316D204605F0F2
:1012E000B9FD00B134652046B16D134D05F0D0FD58
:1012F00000B1AC653569716D0F4F284605F0AAFD48
:1013000000B17D652846F16D05F0C2FD00B1F565BF
:10131000002386F84C3000237364084FACE735692E
:10132000F468F8E735693465B4657565EFE73569E4
:10133000F468024FA0E700BF008CFF1F0080FF1F72
:10134000EC8CFF1FD049334514E0D645048DFF1FB8
:1013500038B50D4B93F8E040603305461C441A78CD
:10136000184620213AB19C4205D9AA4205D008F07E
:101370000FFB431CF3D1002038BD581C08F01AFAAB
:1013800005F06CFA38BD00BF008CFF1F0B4B93F8C3
:10139000E01071B193F8602082420CD060330139C3
:1013A000194403E013F8012F824204D08B42F9D193
:1013B000002108467047012108467047008CFF1F36
:1013C0002DE9F047DFF87C8198F80030002288F89A
:1013D0000B20002B00F08D80504C514F01F0CAFFC4
:1013E0005048D7F80090256801F038FED4F800A0E6
:1013F000236842F20F76CAEB0303B34206D8FFF725
:101400003DF82368CAEB0303B342F8D94349444A81
:101410002368424E5B1BB3F57A7FF9D93B68994547
:1014200003D0D2F800900D68F2E7002001F016FE1C
:10143000D6F8009033683C4DC9EB0303AB4206D8A5
:10144000FFF71CF82368C9EB0303AB42F8D9D8F8BF
:101450001050364ED8F80C00354900233B6000226E
:101460007B6025F0004E336020F0004C7360C8F8BC
:101470001420C8F82830C8F82C30C8F820C0C8F8A4
:1014800024E0C8F8182005F047FB05F00BFD2949BA
:10149000C8F830000746284605F03EFB05F002FD7F
:1014A00026682368204D244AC8F8340087EAE77C80
:1014B000002FACEBE77C80EAE07ECCBF0127FF2762
:1014C0009B1B0028CCBFFF210121AEEBE07EAB428D
:1014D000C8F838C0C8F83CE01773517305D8FEF758
:1014E000CDFF23689B1BAB42F9D9BDE8F04701F063
:1014F0002FBF124A094C9368114D43F020039360AB
:10150000266823689B1BAB423FF667AFFEF7B6FF2A
:1015100023689B1BAB42F9D95FE700BFEC8CFF1F30
:10152000FC8CFF1FC063FFFF9F860100048DFF1F1F
:10153000D049334514E0D6450080FF1F80F00F40AE
:10154000DF930400008CFF1F2DE9F047724CFFF77A
:1015500037FF94F8E130012B00F0F48074D3022BB4
:1015600008D0002384F8E13002F0C0FC002864D1E8
:10157000BDE8F08702F0BAFC002840F08E81674B8E
:10158000674D684A63634BF6044E00264FF0010C2A
:101590000027FF21C4F848E084F840C01846E36300
:1015A000636422616262297369736761A761E7609E
:1015B0002762A662E6622663A66305F059FA014631
:1015C000594805F05DFB05F093FCFFF703FEE0686A
:1015D000D4F810805549676120F0004228F000439C
:1015E00022626362A761A662E66205F095FA05F0E1
:1015F00059FC4F4920630746404605F08DFA05F037
:1016000051FCB742CCBF0122FF2287EAE77EB042FD
:1016100080EAE071CCBFFF230123AEEBE77EA1EBB4
:10162000E071606384F8E160C4F838E0E1632A7334
:101630006B7302F05BFC00289AD03E4802F092FAED
:10164000BDE8F04702F09AB902F050FC002840F0E3
:101650001E81334DDFF8E8C03749C4F810C04FF0A1
:101660007E5E41F6DC230027002640F66E524FF0E6
:1016700001084FF0FF09C4F824E0E36318466364EF
:10168000A26485F80C906761A761E7602762A66293
:10169000E6622663A663616385F80D8084F8408066
:1016A00005F0E6F90146254805F0EAFA05F020FCC8
:1016B000FFF790FDE068D4F810901C49676120F0B6
:1016C000004229F0004322626362A761A662E662DB
:1016D00005F022FA05F0E6FB154920630646484668
:1016E00005F01AFA05F0DEFB002ECCBF4246FF22C1
:1016F00086EAE677002880EAE071A7EBE677A1EBBF
:10170000E071CCBFFF234346606384F8E180A763A8
:10171000E1632A736B7327E7008CFF1F08780100D1
:101720000080FF1F0000604100144D4AD04933453E
:1017300014E0D645FCFB000024E5FFFF007C924945
:10174000000080BF02F0D2FB002840F09A80D4F85D
:101750001080E068544928F0004320F00042002740
:101760000026226263626661A661A762E76205F0F5
:10177000D3F905F097FB4D4920630546404605F037
:10178000CBF905F08FFBBD4285EAE57CACEBE57C4F
:10179000CCBF0122FF22464D46496063B84280EA31
:1017A000E07EAEEBE07ECCBFFF2301233046C4F8E1
:1017B0003CE0C4F838C02A736B73FFF749FC206A19
:1017C000D4F82490014605F0A7F9494680464846DA
:1017D00005F0A2F90146404605F096F804F028FD10
:1017E00006F006FB05F03AF83349D4F83890D4F8FF
:1017F0003CA005F091F9314905F042FACA4580460E
:101800005046B8BF484605F033F90146404605F05A
:1018100037FA05F06DFBFFF7DDFCE068D4F81080C7
:101820002149666120F0004228F000432262636291
:10183000A661A762E76205F06FF905F033FB1B496B
:1018400020630646404605F067F905F02BFB002EA5
:10185000CCBF0121FF2186EAE67E002880EAE077FE
:10186000AEEBE67EA7EBE077CCBFFF22012202239E
:101870006063C4F838E0E76329736A7384F8E13081
:1018800072E60F4802F06EF902F078F85FE70D4853
:1018900002F068F902F072F8DBE60B4802F062F938
:1018A00002F06CF86BE600BFD049334514E0D64532
:1018B0000080FF1F00004EC1C0E1644C00007A436D
:1018C000D8FB0000C4FB0000ECFB00008049814B0A
:1018D0008A682DE9F04F804C804D94F800E000209C
:1018E00042F020022070E0728A602F682A68D21BC2
:1018F0009A429DB053D894F80AC06078227A667AEA
:101900006168BCF1000F40F0B780DFF8F0A1DFF8AC
:10191000F0919B4641F2883808E029688BB91A4655
:101920002868C7EB000CDC45184634D8DAF81030CC
:1019300083F00203C3F340038342EED10028EFD0CB
:1019400022B92A68521A424522D80022D5F800C08E
:10195000C1EB0C0CCC45E3D90123227261606070AD
:10196000A372667201F006FD02F0C0FA002840F092
:101970000B822E682A685A4B921B9A4206D81C4644
:10198000FEF77CFD2B689B1BA342F9D900BEFEE746
:1019900001263246DAE7667222726160637094F85B
:1019A000E2304D4E002B40F0ED81BEF1030F00F010
:1019B000A980BEF1000F00F0E5814A4D206DAE68B0
:1019C000314605F05DF904F033FC0022464B04F08B
:1019D000D1FA04F01BFF31460746606D05F050F95F
:1019E00004F026FC0022404B04F0C4FA04F00EFF81
:1019F00031468246A06D05F043F904F019FC00223F
:101A0000394B04F0B7FA04F001FF31468146E06D2E
:101A100005F036F904F00CFC0022334B04F0AAFA6E
:101A200004F0F4FE4FF07E518046304605F008FA8F
:101A30002E4B2F4ACDF800A0002814BF18461046A0
:101A400003903B465A212B4ACDF80490CDF80880EC
:101A500005A807F04FFF02F049FA90BB264B2B6018
:101A60004FF07E52012100232971AA602370FFF7F5
:101A7000A7FC1DB0BDE8F08FDFF880909A4641F2D8
:101A8000883809E029689BB91A462868C7EB000C1A
:101A9000D44518463FF67FAFD9F8103083F00203E3
:101AA000C3F340038342EDD10028EED0002AECD1ED
:101AB0002A68521A424501D80022E6E7012632463A
:101AC000E3E705A802F04EF801F058FFC6E700BFB3
:101AD00080F00F40DF930400008CFF1FEC8CFF1F91
:101AE0001FA107000080FF1F0000E03F08FC00006E
:101AF00010FC000014FC00000000B442C0F00F40D5
:101B000060E316000023306D716DB3617361FFF700
:101B10009FFA306AD6F82480014604F0FDFF414662
:101B20000746404604F0F8FF0146384604F0ECFE54
:101B300004F07EFB06F05CF904F090FE9549B76B6B
:101B4000D6F83C8004F0E8FF934905F099F8B845D1
:101B500006464046B8BF384604F08AFF0146304684
:101B600005F08EF805F0C4F9FFF734FB2F682A68FA
:101B70008A4BD21B9A4298BF1E4605D8FEF77EFCC0
:101B80002B68DB1BB342F9D9A06D616DFFF760FADA
:101B9000206A676A014604F0BFFF394606463846A8
:101BA00004F0BAFF0146304604F0AEFE04F040FBFC
:101BB00006F01EF904F052FE7649A76BD4F83C807B
:101BC00004F0AAFF764905F05BF8B84506464046A2
:101BD000B8BF384604F04CFF0146304605F050F8D7
:101BE00005F086F9FFF7F6FAA06DE16DFFF730FA20
:101BF000206A676A014604F08FFF39460646384678
:101C000004F08AFF0146304604F07EFE04F010FB2B
:101C100006F0EEF804F022FE5E49A76BD4F83C8093
:101C200004F07AFF5E4905F02BF8B84506464046B9
:101C3000B8BF384604F01CFF0146304605F020F8D6
:101C400005F056F9FFF7C6FA206DE16DFFF700FACF
:101C5000206A676A014604F05FFF39460646384647
:101C600004F05AFF0146304604F04EFE04F0E0FA5C
:101C700006F0BEF804F0F2FD4649A76BD4F83C80AC
:101C800004F04AFF464904F0FBFFB84506464046CB
:101C9000B8BF384604F0ECFE0146304604F0F0FFD1
:101CA00005F026F9FFF796FA206D616DFFF7D0F980
:101CB000206A676A014604F02FFF39460646384617
:101CC00004F02AFF0146304604F01EFE04F0B0FA8C
:101CD00006F08EF804F0C2FD2E49A76BD4F83C80C4
:101CE00004F01AFF2E4904F0CBFFB84506464046E3
:101CF000B8BF384604F0BCFE0146304604F0C0FFD1
:101D000005F0F6F8FFF766FA2F682A68234BD21B16
:101D10009A4298BF1E4605D8FEF7B0FB2B68DB1B26
:101D2000B342F9D900200146FFF792F9206A666AAA
:101D3000014604F0F1FE31460546304604F0ECFE63
:101D40000146284604F0E0FD04F072FA06F050F86F
:101D500004F084FD0F49A66BE76B04F0DDFE0E492D
:101D600004F08EFFB74205463846B8BF304604F04F
:101D70007FFE0146284604F083FF05F0B9F8FFF71F
:101D800029FA1AE6074D69E6074801F0EBFE01F073
:101D9000F5FDEEE5C0E1644C00007A433F420F00E0
:101DA0000000C8420080FF1FACFB00002DE9F04F8F
:101DB000DFF854A29AF86030A5B0002B00F09980AB
:101DC000DFF854B2DBF81010002900F0B1800BF1FD
:101DD0001006002405E056F80C1F0134002900F01D
:101DE000A780894D05F1600005F0AEF80028F2D11A
:101DF00004EB44040BEB840405F16000616907F017
:101E00002DFE05F1600007F087FEC0B285F8E00006
:101E1000002849D09AF860307C4F472B74D0411E7F
:101E20003D4639443A4603E012F8014F472C6BD047
:101E30008A42F9D1582B67D0744A03E012F8014F57
:101E4000582C61D08A42F9D1592B04D15CE015F8A5
:101E5000012F592A58D0A942F9D15A2B54D06B4F8F
:101E600000223D46394603E011F8014F5A2C4BD071
:101E700001328242F8DB462B46D0002203E015F8FF
:101E8000011F462940D001328242F8DB4D2B00F081
:101E9000AB855E49002204E011F8014F4D2C00F0A3
:101EA000A38501328242F7DB02F020F848B358489C
:101EB00001F058FE01F062FD23E0013007F07AFCEA
:101EC00004F0CCFC04F0EEFF1E2800F0D18640F3B5
:101ED000BB866F2800F06B8600F33B86272800F056
:101EE0002386282840F01B86022385F8E130FFF77F
:101EF0002BFB01F0FBFF20B1464801F033FE01F05F
:101F00003DFD25B0BDE8F08F3C18384673B1A042C6
:101F100080F04483472B00F04383202107F038FDF5
:101F20000346013007D05B78002BF0D11C4603E05C
:101F30009AF8E0006CE704469BF804309AF8E05009
:101F4000002B00F0FB83304B7DB193F86060582E7E
:101F500000F0F384691E39443B4604E013F8012F76
:101F6000582A00F0EA848B42F8D1DAF8149085B14F
:101F70009AF860E0BEF1590F00F00285691E3944FD
:101F80003B4604E013F8012F592A00F0F9848B42F4
:101F9000F8D1DAF8183002937DB19AF860605A2EC1
:101FA00000F0DE84691E39443B4604E013F8012F3B
:101FB0005A2A00F0D5848B42F8D1DAF81C603046FA
:101FC000002104F05BFF40B1DAF81C000E4D002147
:101FD00004F040FF002840F0E5843046002104F082
:101FE00039FF002840F08D849AF8E050CAF81C6050
:101FF000054BD5B193F86060462E00F0EF83691E63
:1020000039443B460FE000BF008CFF1F608CFF1F70
:102010009CFD000038FC00000080FF1F13F8012F1A
:10202000462A00F0DB838B42F8D15C2C00F2AB82B5
:10203000DFE814F02E022E02F400F400CD00A90215
:10204000A902A902A902A902A902A902A902A90238
:10205000A902A902A902A902A902A902C800C400F2
:10206000A902A902A902A902A902A9029000A90233
:102070005D00A902A902A902A902A902A902A90256
:10208000A902A902A902A902A902A902A902A902F8
:10209000A902A902A902A902A902A902A902A902E8
:1020A000A902A902A902A902A902A902A902A902D8
:1020B000A902A902A902A902A902A902A902A902C8
:1020C000A902A902A902A902A902A902A902A902B8
:1020D000A902A902A902A902A902A902A902A902A8
:1020E000A902A902A902A902A502A1026202484608
:1020F0000299FEF7ADFFDAF82000DAF82450014625
:1021000004F00AFD29460446284604F005FD014670
:10211000204604F0F9FB04F08BF805F069FE04F0AA
:102120009DFB3949DAF83850DAF83C6004F0F4FCE9
:10213000364904F0A5FDAE4204463046B8BF2846F5
:1021400004F096FC0146204604F09AFD04F0D0FE0F
:10215000FFF740F800200146FEF77AFFDAF820008A
:10216000DAF82450014604F0D7FC294604462846F4
:1021700004F0D2FC0146204604F0C6FB04F058F8F7
:1021800005F036FE04F06AFB1F49DAF83850DAF839
:102190003C6004F0C1FC1D4904F072FDAE420446EF
:1021A0003046B8BF284604F063FC0146204604F0E0
:1021B00067FD04F09DFEFFF70DF89AE6144BCBF88F
:1021C000083096E64FF07E53CBF8083091E69AF847
:1021D0000030104A002B7FF48CAE92F8E030384685
:1021E0001F4409E087420AD9502B00F07584202152
:1021F00007F0CEFB013002D00378002BF2D1064B62
:102200001A681B6875E600BFC0E1644C0000C84254
:102210008542213D008CFF1FEC8CFF1F9AF8E05097
:102220003D44AF4F384603784BB1A84207D2492B03
:1022300000F01284202107F0ABFB0130F3D1002124
:10224000DBF80850DAF81480284604F065FC4146B3
:1022500004F05AFB9AF8E0300646A1481F44037880
:102260004BB1874207D94A2B00F0EC83202107F0BD
:102270008FFB0130F3D10020DAF81870294604F002
:102280004BFC394604F040FB31460546404604F01D
:1022900039FB29468046384604F034FB3146074670
:1022A000484604F02FFB29468146029804F02AFB99
:1022B000022C00F0B0830690384603F0B9FFCDE958
:1022C0000201404603F0B4FF02460B46DDE902017D
:1022D00005F08CFD04F0C2FADDF818C005906046E8
:1022E00003F0A6FFCDE90201484603F0A1FF024634
:1022F0000B46DDE9020105F079FD04F0AFFA8146F5
:102300004946059804F0BAFD20B14846754904F0E5
:10231000FBFA81460599484604F0F4FA41468146A5
:102320000690404604F0F8FB39468046384604F0F3
:10233000F3FB0146404604F0E7FA03F079FF05F0AD
:1023400057FD04F08BFA68490746484604F0E4FB61
:1023500049468046384604F0DFFB644904F090FCAF
:1023600081464946404604F093FD00B9C8464046C0
:1023700003F05EFF05F024FC04F048FAB0F1000918
:102380007FF7B7AD04F074FB0790304603F050FFC1
:10239000CDE90801384603F04BFFCDE9020128469C
:1023A00003F046FF032CCDE90A014FF0010800F0CD
:1023B0003982C8EB090004F05BFB079904F060FC6C
:1023C0000146069804F0A8FB059904F09DFA03F075
:1023D0002FFF04460D4605F07BFC06460F462046BF
:1023E000294605F0B9FCDDE9022304460D463046D6
:1023F000394603F071FFDDE9082303F0BBFD04F06B
:102400002DFADDE9022306462946204603F064FF43
:10241000DDE90A2303F0AEFD04F020FA0146304660
:10242000FEF716FEDAF82000DAF82450DBF8006038
:10243000014604F071FB29460446284604F06CFB73
:102440000146204604F060FA03F0F2FE05F0D0FCED
:1024500004F004FA2649DAF83840DAF83C5004F07F
:102460005BFB314604F00CFCA54206462846B8BF8B
:10247000204604F0FDFA0146304604F001FC04F069
:1024800037FD08F10108FEF7A5FEC14591DA30E5F8
:1024900048460299FEF7DCFD002C40F0B781154F4D
:1024A000DAF82000DAF82450014604F035FB29461A
:1024B0000446284604F030FB0146204604F024FA86
:1024C00003F0B6FE05F094FC04F0C8F90849DAF808
:1024D0003850DAF83C6004F01FFB39465CE600BF78
:1024E000608CFF1FDA0FC9409A9919400AD7A33BA5
:1024F000C0E1644C00007A43DAF81050DAF80C00BE
:10250000C4490022002325F0004420F00046CAF808
:102510001420CAF81820CAF82830CAF82C30CAF893
:102520002440CAF8206004F0F7FA04F0BBFCBA4972
:10253000CAF830000446284604F0EEFA04F0B2FC73
:10254000002CCCBF0122FF2284EAE475002880EA37
:10255000E071A5EBE475A1EBE071CCBFFF23012393
:10256000CAF83400CAF83850CAF83C108BF80C206E
:102570008BF80D30BDE400238BF80430B9E401235F
:102580008BF80430B5E401F0B1FC00283FF4B1ACA5
:10259000A24801F0E7FA01F0F1F9AAE40024CBE443
:1025A000013007F007F904F059F904F07BFC1E280C
:1025B000044640F27F830023029399465C28E2D8C8
:1025C00001A353F820F000BF0528000005280000F3
:1025D0001D2200001D220000CF21000087250000E1
:1025E000872500008725000087250000872500003B
:1025F000872500008725000087250000872500002B
:10260000872500008725000087250000872500001A
:102610008725000087250000C5210000BD2100009E
:1026200087250000872500008725000087250000FA
:102630008725000087250000552100008725000020
:10264000EF20000087250000872500008725000077
:1026500087250000872500008725000087250000CA
:1026600087250000872500008725000087250000BA
:1026700087250000872500008725000087250000AA
:10268000872500008725000087250000872500009A
:10269000872500008725000087250000872500008A
:1026A000872500008725000087250000872500007A
:1026B000872500008725000087250000872500006A
:1026C000872500008725000087250000872500005A
:1026D000872500008725000087250000872500004A
:1026E000872500008725000087250000872500003A
:1026F000872500008725000087250000872500002A
:102700008725000087250000872500008725000019
:102710008725000087250000872500008725000009
:1027200087250000872500008725000087250000F9
:102730007F25000077250000F92400003D44384F34
:10274000384603784BB1A84207D2582B00F08C8151
:10275000202107F01DF90130F3D10021DBF80860DA
:10276000304604F0D9F9DAF8141004F0CDF89AF8EC
:10277000E0503D442A4F8146384603784BB18542AC
:1027800007D9592B00F07E81202107F001F9013093
:10279000F3D10020314604F0BFF9DAF8181004F044
:1027A000B3F89AF8E05002903D441D4F3846037844
:1027B0004BB1854207D95A2B00F06C81202107F0DC
:1027C000E7F80130F3D10020314604F0A5F9DAF83A
:1027D0001C1004F099F80646FFF7F1BB3D4438465B
:1027E000002E00F0A180A84280F09E80462E00F0CE
:1027F0004281202107F0CCF80346013000F094809C
:102800005E78EDE700200146FEF722FCDBF8007061
:1028100046E600BFD049334514E0D64540FC0000F1
:10282000608CFF1F404604F023F9079904F028FA52
:102830000146069804F070F9059904F065F803F074
:10284000F7FC04460D4605F043FA06460F462046BF
:10285000294605F081FADDE9022304460D4630469B
:10286000394603F039FDDDE9082303F083FB03F06B
:10287000F5FFDDE9022306462946204603F02CFD3C
:10288000DDE90A2303F076FB03F0E8FF014630465A
:10289000FEF7DEFBDAF82000DAF82450DBF80060FF
:1028A000014604F039F929460446284604F034F973
:1028B0000146204604F028F803F0BAFC05F098FA27
:1028C00003F0CCFFBF49DAF83840DAF83C5004F0A6
:1028D00023F9314604F0D4F9A54206462846B8BF8C
:1028E000204604F0C5F80146304604F0C9F904F06A
:1028F000FFFA08F10108FEF76DFCC14592DAFFF717
:10290000F8BADAF81C00B04D002104F0B7FA00283C
:102910003FF46AAB2B780122EA72002B7FF464ABA0
:10292000FDF7E8FFFFF760BB0021DBF8080004F0CB
:10293000F3F8CBF80000FFF778BB384607EB050843
:10294000002E39D04045A04B36D2582E00F0AA8038
:10295000202107F01DF8034601302DD05E78EFE707
:102960003D44384686B3A8422ED25A2E00F0A480A9
:10297000202107F00DF80346013025D05E78F1E7FD
:1029800038467E1972463AB3B0428F4B24D2592A48
:1029900000F09880202106F0FBFF034601301BD099
:1029A0005A78F0E72B780022EA72002B7FF41CABF8
:1029B000FEF740F8FFF718BB0020DBF8081004F022
:1029C000ABF88146FFF7D3BA0020DBF8081004F01B
:1029D000A3F80646FFF7F3BA0020DBF8081004F06E
:1029E0009BF80290FFF7D8BA3C187848002B00F00B
:1029F0009680754DA04205F1600680F090804D2BC9
:102A00003FF45BAA202106F0C3FF0346013000F02B
:102A100086805B78EAE703F00BFCCDE902014846CB
:102A200003F006FC02460B46DDE9020105F0DEF983
:102A300003F014FF0590384603F0FAFBCDE90201DC
:102A4000404652E4013006F0B5FE03F007FFDBF824
:102A50000850DAF814800FE4013006F0ABFE03F002
:102A6000FDFE0146FFF7ECBB013006F0A3FE03F0CC
:102A7000F5FE014672E6013006F09CFE03F0EEFE24
:102A8000014652E7013006F095FE03F0E7FEDBF861
:102A900008607FE6013006F08DFE03F0DFFEDBF814
:102AA000086091E60130029306F084FE03F0D6FE42
:102AB000029B93F8E05080E7013006F07BFE03F0C4
:102AC000CDFE82E70130029306F074FE03F0C6FEED
:102AD000029B93F8E05080E7013006F06BFE03F0B4
:102AE000BDFE3B493B4C04F017F804F0DBF92668C7
:102AF00023684FF47A7505FB00F59B1B9D427FF61A
:102B0000F8A9FDF7BBFC23689B1BAB42F9D3FFF789
:102B1000F0B9022800F0AC8003283FF4EAA92E485F
:102B2000FDF794FCFFF7E5B92A4C002385F8E13066
:102B3000FEF70AFD26682368284D9B1BAB423FF633
:102B4000D6A9FDF79BFC23689B1BAB42F9D9FFF785
:102B5000CEB9702829D07328E1D12148FDF776FC41
:102B60002048FDF773FC2048FDF770FCDBF81030BF
:102B70009BB11E4CA26800925A211D4A0DA806F076
:102B8000B9FE01F0B3F920B10DA800F0EBFF00F0A1
:102B9000F5FE54F80C3F002BECD11348FDF756FC22
:102BA0001448FDF753FCFFF7A4B9FDF781FE95F833
:102BB000E0303BB395F86020532A67D0013B3344A3
:102BC0001EE000BFC0E1644C008CFF1F608CFF1F43
:102BD00000007A44EC8CFF1F90FD00007F841E00F3
:102BE000F4FC000020FD000038FD00001080FF1FF5
:102BF0007CFD000040FD000016F8012F532A45D04F
:102C00009E42F9D100238AF800303448FDF71EFCBB
:102C10009AF80050324C002D3FF46BA90121AB1EF5
:102C200000228B42E27284F84C103FF662A9002029
:102C300001462270FEF70CFA2A48FEF7D7F9FEF794
:102C4000C9FA2570FFF755B905283FF452A97FF757
:102C500060AF072810D008287FF461AF2B780022DE
:102C6000EA72002B7FF445A9FDF7E4FEFFF741B9B6
:102C7000FEF72CFEFFF73DB92B780122EA72002BFC
:102C80007FF437A9FDF736FEFFF733B95320FEF77F
:102C90005FFB04F02DF9C0B203288AF80000B1D818
:102CA000022817D0032811D00128AED10E48FDF715
:102CB000CDFBADE701220D4B82401340002B7FF48A
:102CC0003BA9002302939946FFF7AFB90848FDF7E7
:102CD000BDFB9DE70748FDF7B9FB99E74CFC0000F9
:102CE000008CFF1F0000C84260FC00000F00004085
:102CF000C0FC000080FC0000684620F007018D4603
:102D000001B45DF8040B8546704700BF684620F0AB
:102D10000701054A8D4601B413685DF8040B0133C1
:102D200013608546704700BFEC8CFF1FF0B5541E42
:102D3000002A3BD0031D0D1DA84238BF99422CBF6D
:102D400001230023092A94BF002303F00103064650
:102D500023B340EA01039B0720D1131F9B080133D3
:102D6000022C4FEA83070FD9A1F1040E002501358B
:102D70005EF804CF46F804CBAB42F8D8BA423844E8
:102D80003944A4EB070411D00B78037074B14B786D
:102D90004370012C0BD08B788370F0BD01380A444E
:102DA00011F8013B00F8013F9142F9D1F0BDF0BDAF
:102DB0002DE9F0412C4D002D40D153E06B68002BE4
:102DC00045D1A86800284DD001380A46131D0C1DB6
:102DD000944288BF8B4294BF0123002300F1010C71
:102DE000BCF1090F94BF002303F00103164683B31F
:102DF00042EA01039B072CD1C31E9B0801334FEA13
:102E0000830E0F1F0024013457F8048F46F8048BFB
:102E1000A342F8D8F445CEEB00000EEB02040EEB13
:102E200001060AD011F8231002F8231028B1737894
:102E30006370012801D0B378A3700C35296800298C
:102E4000BCD06A68AB68581E002BBFD1F5E71A46A4
:102E5000F8E71044531E11F8012B03F8012F8342A9
:102E6000F9D1EAE7BDE8F08120100100044A0548E5
:102E7000121A921002D0002106F0A6BC704700BFC3
:102E8000AC9AFF1F008CFF1F4FF0E0213148324AFF
:102E9000324B70B4C1F8080D41F244014CF220509D
:102EA0002F4CD0814DF628164FF4E975D68141F2AA
:102EB000380015805C501A582A4942F4F0521A50D2
:102EC0008B781A0703D58B7843F008038B70234A5D
:102ED0002549264B264C41F244004FF08175155090
:102EE00041F204050626505940F4803050511068D4
:102EF00040F4402010608A6C22F0807222F4E0627C
:102F00008A64CA6C22F0807222F4E0622420CA64CF
:102F10001E705870DA7802F01F0242F0C002802161
:102F2000DA7021701A7B072102F0FE021A73197100
:102F30001A79002142F040021A711A4659719379A8
:102F4000DB06FCD5094A937913F00C0FFBD170BC5A
:102F5000704700BF000000000020054000700440E2
:102F60000000030100D007400090044000400640EC
:102F70000050064080F31188704700BFF0B41B4A30
:102F80001B4B57791B4D1C4E1C4C1D481D4907F00F
:102F9000E0075771177907F0F80717711A7802F0F0
:102FA0008C0242F050021A705A7802F09C0242F0F1
:102FB00040025A709F78002207F0E6079F70327037
:102FC00085F8492385F81423636923F003036361BB
:102FD0004369472523F0C003072443614D600C601B
:102FE00082F3118862B6F0BC704700BF00F0074062
:102FF00000D0074000E100E000E0074040F00F4053
:1030000080F00F4010E000E008B5FFF73DFF0F4BE8
:103010001846002807D0854681B04FF000006FEABF
:103020000000009001B00A4B0A481B1A9A1002D007
:10303000002106F0C9FBFFF7BBFEFFF79FFF064B21
:1030400000221A6004F072FCFEE700BF00000020BE
:10305000AC9AFF1F008CFF1FEC8CFF1F10B5041EE5
:1030600016DDC4F57F40FF3000284FF6FF710DDB01
:103070008142A8BF014689B2052000F08BFA0620E4
:103080004FF6FF71BDE8104000F084BA0021F3E76D
:1030900005204FF6FF7100F07DFA04F57F40FF3008
:1030A00000284FF6FF7408DB8442A8BF0446A1B293
:1030B0000620BDE8104000F06DBA0021F8E700BF1F
:1030C00010B5041E16DDC4F57F40FF3000284FF612
:1030D000FF710DDB8142A8BF014689B2002000F0DC
:1030E00059FA01204FF6FF71BDE8104000F052BAC6
:1030F0000021F3E700204FF6FF7100F04BFA04F5D2
:103100007F40FF3000284FF6FF7408DB8442A8BFE1
:103110000446A1B20120BDE8104000F03BBA0021F6
:10312000F8E700BF164B68469A6920F007018D4604
:10313000D20131B402D4DB69DB011ED51049114A3A
:1031400088691579104B114C40F080708861C8690E
:1031500040F08070C861196913781371C1F381114F
:1031600003EB850301EB83031170E15C4BB2032B8E
:1031700003D011B191680B44936031BC8546704710
:1031800000B00440F48CFF1F80F00F4030FA0000C4
:10319000174B68461A6820F007018D46D20131B4FA
:1031A00002D45B68DB0120D51149124A08685579C1
:1031B000114B124C40F080700860486840F08070FD
:1031C000486019695378537101F0030103EB8503DB
:1031D00001EB83035170E15C4BB2032B05D021B1AD
:1031E000022B02DCD1680B44D36031BC85467047AA
:1031F00000A00440F48CFF1F40F00F4030FA0000A4
:103200004F4B68461A6820F007018D461206F1B54B
:1032100003D4BDE8F140854670471A68494C22F056
:1032200080021A602769A2686669E368BF1A384697
:10323000F61A03F01DFC444903F06EFC0546A06934
:10324000381A03F015FC414903F066FC0146284694
:1032500003F05AFB03F026FE051E45DDC5F57F4051
:10326000FF3000284FF6FF713ADB8142A8BF0146CC
:1032700089B2052000F08EF906204FF6FF7100F0AC
:1032800089F9304603F0F4FB2F4903F045FC05466D
:10329000E069301A03F0ECFB2C4903F03DFC0146D9
:1032A000284603F031FB03F0FDFD051E30DDC5F5BA
:1032B0007F40FF3000284FF6FF7113DB8142A8BF2B
:1032C000014689B2002000F065F901204FF6FF7138
:1032D00000F060F9A761E661BDE8F14085467047FE
:1032E0000021C6E70021EDE705204FF6FF7100F051
:1032F00051F905F57F40FF3000284FF6FF751BDBC5
:103300008542A8BF0546A9B2062000F043F9B8E7F8
:1033100000204FF6FF7100F03DF905F57F40FF30CA
:1033200000284FF6FF7509DB8542A8BF0546A9B204
:10333000012000F02FF9CDE70021E5E70021F7E7B4
:1033400000900340F48CFF1F00409C450080BB466A
:10335000064B00229A61DA6172B6054B1A68502159
:1033600042F008021A60196062B67047F48CFF1FC1
:103370000090034008B572B60D4B402219681960E1
:103380001A6062B605204FF6FF7100F003F90620BF
:103390004FF6FF7100F0FEF800204FF6FF7100F0CD
:1033A000F9F801204FF6FF71BDE8084000F0F2B8CF
:1033B00000900340DFF830C1454BDCF80020454861
:1033C000454922F0807222F4E06242F48072F0B546
:1033D000CCF80020DCF80020404EDFF810E1404C33
:1033E000404F22F0877222F4803242F0857242F41C
:1033F0008032CCF80020DCF8042022F0807222F425
:10340000E06242F48072CCF80420DCF8042022F060
:10341000877222F4803242F08572502542F4803265
:10342000CCF8042083F858539A6842F080729A606E
:10343000826922F0807222F4E06242F4807282613A
:10344000826922F0877222F4803242F0857242F45F
:1034500080328261C26922F0807222F4E06242F41A
:103460008072C261C26922F0877222F4803242F017
:10347000857242F48032C26183F859539A6841F2EE
:103480003C0042F000729A60325842F000723250B2
:103490004FF0040C002208261020C1F854C00A6026
:1034A000CA644A60CA604A618E6083F83F035A6802
:1034B00042F000425A600D60DEF81020C2F3811223
:1034C00022703B69227103F0030363706371F0BDE6
:1034D00000E100E000B004400090034000700440B0
:1034E000F48CFF1F40F00F4000A0044080F00F401C
:1034F00070B4244D244B2548254941F23C04042650
:103500002A5942F080722A5100222C2440F283353D
:103510005E651A60DA645A60DA605A61DA615A628A
:10352000DA625A63DA635A649D60DC601A615C6136
:103530009A615C639A63DC631A64426822F0807269
:1035400022F4E06242F480624260826822F080727B
:1035500022F4E06242F4806282604A6922F0807262
:1035600022F4E06242F480624A618A6922F0807249
:1035700022F4E06242F4806209208A61186070BC23
:10358000704700BF007004400080034000B004405A
:1035900000C00440074B9B6801339BB223B101FB81
:1035A00003F101F50041090C034BC000034499608D
:1035B000704700BF0080034008800340084A13782A
:1035C000DBB2012B02D0012353707047222902D0B5
:1035D0002129F8D10023537001235370704700BF95
:1035E000148DFF1FF0B583B069B1022943D00429BF
:1035F0000DD0032937D0052903D1234B00221A709F
:103600005A7003B0F0BD204A117003B0F0BD1E49DE
:103610004B78012BF5D19788B7F5807F28BF4FF401
:1036200080770023C7B11068C65CEFF3108072B6D4
:103630008DF80700887891F804410D1801340130A5
:103640002E71887081F804419DF8070080F310887E
:103650000133DBB29F42E6D8002002460346022136
:1036600001F020FCCDE7084B5A78012AC9D100228D
:1036700083F80521C5E700200246034601F012FC4D
:10368000014B01221A70BCE7148DFF1F10B40446D1
:1036900083B0EFF3108072B68DF80700094B9A786B
:1036A00093F8041198180131013204719A7083F86B
:1036B00004119DF8070080F31088002003B05DF826
:1036C000044B7047148DFF1F82B00146EFF310804A
:1036D00072B68DF80700104B93F8042132B99DF8AB
:1036E000070080F31088032002B0704793F806218A
:1036F0001A4412790A7093F8041193F806210139DB
:10370000013283F8041183F806219DF8070080F345
:103710001088002002B07047148DFF1F014B93F8F2
:1037200004017047148DFF1F024B93F804014042BF
:10373000C0B27047148DFF1F10B582B0EFF3108038
:1037400072B68DF80700094B0024181D21464FF46E
:1037500080729C7083F8064183F8044106F034F8C7
:103760009DF8070080F3108802B010BD148DFF1F74
:1037700082B00346EFF3108072B68DF807000D4A51
:1037800092F80401984206D89DF8070080F310884B
:10379000032002B0704792F80601034452FA83F303
:1037A0001B790B709DF8070080F31088002002B091
:1037B000704700BF148DFF1F82B0EFF3108072B608
:1037C0008DF807000C4B93F8042132B99DF80700DF
:1037D00080F31088032002B0704793F80611013A75
:1037E000013183F8042183F806119DF8070080F366
:1037F0001088002002B07047148DFF1F10B40446DB
:1038000083B0EFF3108072B68DF807000B4B93F87E
:10381000072193F8081298180131013280F8084105
:1038200083F8072183F808129DF8070080F31088B9
:10383000002003B05DF8044B704700BF148DFF1FDC
:1038400082B00146EFF3108072B68DF80700114B7D
:1038500093F8082232B99DF8070080F310880320FE
:1038600002B0704793F809221A4492F808210A70AE
:1038700093F8081293F809220139013283F80812EB
:1038800083F809229DF8070080F31088002002B019
:10389000704700BF148DFF1F014B93F8080270475B
:1038A000148DFF1F024B93F808024042C0B27047CC
:1038B000148DFF1F10B582B0EFF3108072B68DF833
:1038C00007000A4B002403F5847021464FF48072F0
:1038D00083F8074183F8094283F8084205F074FF32
:1038E0009DF8070080F3108802B010BD148DFF1FF3
:1038F00082B00346EFF3108072B68DF807000D4AD0
:1039000092F80802984206D89DF8070080F31088C4
:10391000032002B0704792F80902034452FA83F37D
:1039200093F808310B709DF8070080F31088002091
:1039300002B07047148DFF1F82B0EFF3108072B693
:103940008DF807000C4B93F8082232B99DF8070058
:1039500080F31088032002B0704793F80912013AEF
:10396000013183F8082283F809129DF8070080F3DB
:103970001088002002B07047148DFF1FF0B5394C3D
:1039800083B000F04DFF2378012B03D094F804019D
:1039900003B0F0BD6378012BF8D194F80832002B06
:1039A000F4D004F5037700222546EFF3108072B6B9
:1039B0008DF8070096B294F808329BB99DF807007D
:1039C00080F31088274D012705F503723946002042
:1039D000334684F8057100F09DFCD0B1002385F8D2
:1039E0000531D3E795F809126818013B90F80801F2
:1039F00085F80832013107F8010B85F809129DF8A6
:103A0000070080F310880132B2F5807FCDD11646D1
:103A1000D8E795F8053133B10A20FDF7F7F994F8A6
:103A20000531002BF8D116F00706AFD10D4D012757
:103A300005F5037239463046334684F8057100F0C7
:103A400069FC10B185F80561A0E795F80531002BF8
:103A50009CD00A20FDF7DAF994F80531002BF8D153
:103A600094E700BF148DFF1F82B00146EFF3108072
:103A700072B68DF80700134B93F8042162B99DF8D4
:103A8000070080F31088EFF3108072B68DF80700FE
:103A900093F80421002AF2D093F806211A441279EF
:103AA0000A7093F8041193F806210139013283F862
:103AB000041183F806219DF8070080F31088002088
:103AC00002B07047148DFF1F10B4044683B0EFF3AB
:103AD000108072B68DF807000B4B93F8072193F80E
:103AE000081298180131013280F8084183F8072143
:103AF00083F808129DF8070080F31088002003B0B7
:103B00005DF8044B704700BF148DFF1F29B370B4DC
:103B10004E1EB6B20136124B83B004460644EFF394
:103B2000108072B68DF8070014F8015B93F8072136
:103B300093F8081298180131013280F8085183F87F
:103B4000072183F808129DF8070080F31088B4421B
:103B5000E5D1002003B070BC70470020704700BF63
:103B6000148DFF1F30B4047882B00546D4B10F4BDA
:103B7000EFF3108072B68DF8070093F8072193F8E1
:103B8000081298180131013280F8084183F80721A2
:103B900083F808129DF8070080F3108815F8014F8C
:103BA000002CE5D1002002B030BC7047148DFF1FFF
:103BB00038B501250E4C02460B460020294684F8F4
:103BC000055100F0A7FB054628B1002384F8053114
:103BD0000625284638BD94F80531002BF9D00A2077
:103BE000FDF714F994F80531002BF8D1284638BDBB
:103BF000148DFF1FF0B5414C83B006460D4600F012
:103C00000FFE2378012B02D0052003B0F0BD6378AE
:103C1000012BF9D194F8083243B3002D6CD0EFF3A7
:103C2000108072B68DF8070094F80872002F3CD10E
:103C30009DF8070080F310880125294600203246B0
:103C40003B4684F805512D4D00F064FB80B1002304
:103C500085F805310620D8E795F8053133B10A20FB
:103C6000FDF7D4F894F80531002BF8D10020CCE70B
:103C700095F8053133B10A20FDF7C8F894F80531FD
:103C8000002BF8D117F00707F0D10125294632465D
:103C900038463B4684F80551184D00F03BFB0028A0
:103CA000DAD085F805710620AFE706F1FF3E002760
:103CB000214694F80932234493F808310EF8013F65
:103CC00094F8082294F80932013A013384F8082262
:103CD00084F809329DF8070080F310880137BFB2DD
:103CE000AF42A9D0EFF3108072B68DF8070091F8BB
:103CF0000832002B9CD0DCE72F469DE7148DFF1F78
:103D0000594A5A4B5A4941F23400F0B51458594DAA
:103D100044F48024145041F2480641F204079459B7
:103D200024F00F049451D45944F48024D4511458ED
:103D300044F48024145093F894700E0A0024FF2257
:103D400006F0FE004FF0C00CC1F3074647F0020733
:103D50004FF0600E090E83F8947083F800C11A7456
:103D600083F8802083F8882083F8842083F88C40AF
:103D700083F80CE11C7583F8984083F8C04083F801
:103D8000C44083F8C84083F8CC4083F8D04083F81F
:103D9000D44083F8D84083F8DC4083F8E04083F8CF
:103DA000E44083F8E84083F8EC4083F8F04083F87F
:103DB000F44083F8F84083F8FC4083F89C0083F8D3
:103DC000B06083F8B41083F8AC401C7783F80841E6
:103DD00093F8942002F0D40242F0010283F8942078
:103DE00085B02C70EFF3108072B68DF80F006C70F8
:103DF00085F805414FF48072281D2146AC7085F886
:103E0000064185F8044105F0DFFC9DF80F0080F3C2
:103E10001088EFF3108072B68DF80F004FF48072A7
:103E200005F58470214685F8074185F8094285F833
:103E3000084205F0C9FC9DF80F0080F310880125A9
:103E40000095204622460C490C4B00F001FA38B987
:103E50000B4B4FF40072C3F888219A6005B0F0BD97
:103E6000284605B0F0BD00BF0070044000200740A8
:103E70000096FF1F148DFF1FE5350000BD350000C3
:103E800000E100E0184B93F808225242D2B28A4275
:103E900001D20220704721B370B44D1EADB201357E
:103EA00083B004460544EFF3108072B68DF8070026
:103EB00014F8016B93F8072193F808129818013150
:103EC000013280F8086183F8072183F808129DF811
:103ED000070080F31088AC42E5D1002003B070BC2D
:103EE00070470020704700BF148DFF1F014B1878EA
:103EF000704700BF148DFF1F014B5878704700BFFB
:103F0000148DFF1F70B50646007801F021FC04787F
:103F1000002C40D075784378AB423ED0012304E0BA
:103F20008279AA4200F1050006D0DAB2A24219460F
:103F300003F10103F4D31146194C337A342202FB06
:103F40000142D0780BB39378984210D0342203F01A
:103F5000030302FB01F103EB430301EB830323445F
:103F60001D1D187969786A682B8900F00DFCD4F85A
:103F70009C307BB1317A3246002912F8080B0CBF15
:103F800003210521BDE87040184793780133DBB267
:103F90009370D9E770BD2146CEE70021CCE700BF82
:103FA0002090FF1F2DE9F04784B003460E468DF8A0
:103FB0000F30174601F0CCFB022E05461DD05EB136
:103FC0003048D0F89C3023B131463A469DF80F0076
:103FD000984704B0BDE8F0870378002BF0D029485B
:103FE00033463424314604FB030201339170D1700F
:103FF0002A78DBB29A42F6D8E3E790F80080B8F16D
:10400000000FDDD000231C4603EB83032B44013457
:104010005978DA78E4B20DF10F0001F05DFC444507
:104020002346F1DB0024A146A24604EB84042C4481
:104030000DF10F0094F802E0A288E3786178CDF8E2
:1040400000E0CDF804A001F01DFCA3780E4A032B7C
:1040500004D19DF80F00617801F0AEFC6378E1783F
:1040600043F0100343EAC11109F101095FFA89F92C
:10407000C9B20DF10F00002201F064FCC1454C46AD
:10408000D3DB9DE72090FF1F053F0000F0B50C78C3
:1040900004F06004202C03D0402C1ED0CD20F0BDB5
:1040A0001E464B7886461746232B13D8DFE803F0CD
:1040B000121230363C121212121212121212121274
:1040C00012121212121212121212121212121212D0
:1040D0004E1E2A2400203080F0BD1F4CD4F8A04092
:1040E000002CDBD0A446BDE8F04060473A4633469A
:1040F000BDE8F04000F064B93A463346BDE8F04010
:1041000000F0B2B93A463346BDE8F04000F076B967
:104110003A463346BDE8F04000F0C6B93A46334669
:10412000BDE8F04000F0A8B93B6802224FF0000C57
:10413000328083F800C03C68621C3A6084F801C099
:1041400033463A46BDE8F04000F0AEB93A46334651
:10415000BDE8F04000F040B92090FF1FF0B50746E1
:1041600083B0007801F0F4FA7B7ABA7A796800912A
:1041700043EA0223ADF804300578002D42D07E7862
:104180004378B34240D0012304E08179B14200F189
:10419000050006D0D9B2A9421C4603F10103F4D3AD
:1041A0000C461A4D3B7A342202FB0452D178EBB113
:1041B000937899420FD0342203F0030302FB04F4F6
:1041C00003EB430304EB83032B44187959799A6872
:1041D0009B8900F0D9FAD5F89C302BB13A7A52B9C4
:1041E000387803216A46984703B0F0BD93780133CD
:1041F000DBB29370DDE73A46052112F8080B9847C9
:1042000003B0F0BD2C46CCE70024CAE72090FF1F86
:1042100010B50E49437A827AD1F89C40416882B049
:1042200043EA02230091ADF804302CB1037A2BB994
:10423000007804216A46A04702B010BD024605215D
:1042400012F8080BA04702B010BD00BF2090FF1F5E
:104250002DE9F8430F469DF8209016461D4604466A
:1042600001F076FA027801324B468046D2B22046FF
:10427000002101F0DFFA814610B14846BDE8F8831D
:1042800020461849184A00F0BFF998F80030D3B119
:10429000DFF858E0484649464FF0340C03B203EBD0
:1042A000830343440CFB00F293F801900EF8029054
:1042B00072449B7853709170D170013098F800303F
:1042C000C0B28342EAD82046294600F073F88146FE
:1042D0000028D2D1054B4846C3F89C70C3F8A060B3
:1042E000BDE8F883A53F00008D4000002090FF1F2F
:1042F00008B5074B0022C3F89C20C3F8A02000F0AB
:10430000D9F900B108BDBDE8084001F0B3BA00BF5B
:104310002090FF1F2DE9F0471F460E46914680462C
:1043200001F016FA0378002B3DD04278B2423CD01F
:10433000012404E08579B54200F1050006D0E5B21C
:104340009D42224604F10104F4D32A463421184D3B
:1043500001FB02F2AC18E178A0780B1ADBB2042B57
:1043600016D001F00303013103EB4303C9B202EBA2
:104370008302081AAB18C0B2012883F804805E716A
:10438000C3F808909F81E17005D00020BDE8F08758
:10439000C120BDE8F087404631464A463B46BDE86D
:1043A000F04700F0F1B91A46D0E70022CEE700BF8F
:1043B0002090FF1F014B002019607047C490FF1F21
:1043C00010B40B79034C194623715DF8044B01F0CE
:1043D000C3B900BFC490FF1F10B5002482B01C8079
:1043E0000B79054C02AA237142F8041D194601F00D
:1043F000C1F902B010BD00BFC490FF1F2DE9F0410C
:104400004FF00008A3F800808B78154C154E94F8F7
:1044100004E06371C3F34002570062F3000703F046
:104420000105324603210A236572377286F804E0DB
:1044300027720646FFF76EFF256845B1637903F0E2
:10444000020303F0FF02304623B92121A8470020D0
:10445000BDE8F08142462221A8470020BDE8F08156
:10446000C490FF1F7C80FF1F00201880014B4A88EA
:104470005A817047C490FF1F30B402241C804C88BE
:10448000084D09792971012C05D0022C06D0002095
:10449000188030BC704730BC01F08EB930BC01F0E0
:1044A00097B900BFC490FF1F30B402241C804C8811
:1044B000084D09792971012C05D0022C06D0002065
:1044C000188030BC704730BC01F08EB930BC01F0B0
:1044D0009DB900BFC490FF1F30B4064B064C1A793B
:1044E0001D7A22712572224603210A2330BCFFF770
:1044F00011BF00BFC490FF1F7C80FF1F0246034B0B
:1045000012F8080B1B680521184700BFD090FF1F49
:1045100070B5094D04462A1D012101F0F9F9204624
:104520000121802201F00EFA2B6820780A21002256
:10453000BDE87040184700BFD090FF1F30B583B072
:1045400001210DF10702044601F0E2F99DF8073060
:10455000074D802B06D02B6820780B21002298472E
:1045600003B030BD20462A79012101F0EBF9F2E7D2
:10457000D090FF1F436805215A7801F0E3B900BFCE
:1045800070B5002182B001220C460546164601F0A6
:10459000A3F933462146284600940196102201F0E3
:1045A00071F921462246284601F096F92346214614
:1045B0008DE850002846102201F064F93146284663
:1045C000022201F0BFF932462846062101F0BAF96D
:1045D00022462846902101F0B5F9044B28781B6843
:1045E0002146224602B0BDE870401847D090FF1F18
:1045F000427802B17047C178C90141F0100101F061
:10460000900101F09FB900BF70B582B003460E461D
:104610008DF8073001F07EFC1F4D04462E60002807
:1046200036D11E4A9DF80700102101F0C5F912216C
:1046300004461B4A9DF8070001F0BEF9142104430B
:10464000184A9DF8070001F0B7F9E4B213210443BA
:10465000154A9DF8070001F0AFF9E4B217210443B1
:10466000124A9DF8070001F0A7F902AEE4B2044334
:10467000162116F8010D0E4A01F09EF9E4B204432A
:1046800001210322304601F05DF90323E4B22B71CE
:10469000204602B070BD00BFD090FF1F81450000D2
:1046A00075450000114500003D450000F145000042
:1046B000FD44000030B583B002AD184B05F8010D84
:1046C0000022102128461A6001F078F912210446D0
:1046D000284601F073F914210443284601F06EF9CD
:1046E000E4B213210443284601F068F9E4B217212B
:1046F0000443284601F062F9E4B204431621284637
:1047000001F05CF9E4B2204310F0FF0003D19DF802
:10471000070001F00BFC03B030BD00BFD090FF1FBD
:1047200030B585B004AC012104F8090D0DF10E027D
:10473000204601F0EDF8204606210DF10F0201F0B0
:10474000E7F89DF80E00802801D005B030BD9DF837
:104750000F309B07F9D59DF8070000F0F7FF0128FF
:10476000054603D09DF80E0005B030BD72B6204658
:1047700000F066FC0023204629461A468DF80E30CC
:1047800001F0E0F862B6EDE72DE9F04184B004AC49
:10479000054604F8030D0F46164601210DF10E02E1
:1047A00020468DF807501D4601F0B2F8204606213C
:1047B0000DF10F0201F0ACF89DF80E30802B09D0FE
:1047C000394632462B460DF1070000F0CDFB04B010
:1047D000BDE8F0819DF80F3003F0020303F0FF0005
:1047E000002BF4D09DF80D0000F0B0FF01288046AA
:1047F00008D09DF80E30802B08BF0020E0D104B017
:10480000BDE8F08172B6204600F01AFC0023204675
:1048100041461A468DF80E3001F094F862B6E8E78A
:10482000704700BF2DE9F041334E344C034630460B
:104830004FF0000884F800814FF4107200F8043B38
:1048400006F580650F46FF2104F0BEFF4FF480623D
:1048500041462846C6F8445204F0B6FF94F80C319D
:1048600043F0800384F80C31224692F80C3123493E
:104870001B06FAD4224BFF221A7091F80C31214A00
:1048800043F0400381F80C31136887BB23F00043E9
:1048900013601A4B1C49C6F800182A0AC5F30746CC
:1048A0001024012002F0FE022D0EBF2183F89C206F
:1048B00083F8B06083F8B45083F8084183F894001B
:1048C00083F8801093F8002102F07F0283F8002122
:1048D00093F88420024383F8842093F88420842171
:1048E000224383F8842019770020BDE8F08143F04B
:1048F00000431360CDE700BF0092FF1F0020074078
:104900008680FF1F007004400098FF1F0D4B93F836
:104910000C21BF210A4083F80C2183F8801093F802
:10492000842002F0FE0283F8842093F8942002F0A1
:10493000FE0283F894201A7F02F07B021A7700208F
:10494000704700BF002007402DE9F0430B464C485C
:10495000B3F803501C789E7803C883B002AFB5F556
:10496000007F07E9030005D900200221D8701971E2
:104970004FF40075062C13D84FEA840E012E5FFA0F
:104980008EF111D049084FEAC10C3E4F0CEB0100EB
:1049900007EB40004FF6FF78B0F80490C14506D011
:1049A000952003B0BDE8F0830231C9B2EAE793F87D
:1049B0000180B8F1030FF3D8012EF1D80C3090F834
:1049C0000780B8F1FF0F614406BF4FF0000880F880
:1049D000078008F0010807EB41004EEA460141EA72
:1049E000080108BFB3F80350D7F800E88580C9B2C2
:1049F000C1748274C0F806E05A78D7F84452427500
:104A00004AB2067505EBC20100F10C0CB3F80300C5
:104A100048800820C1F804E005F832009CF807201F
:104A2000B3F8038082F0010205EBC2014820A1F82F
:104A30000280C1F804E005F83200B3F803207244A4
:104A4000C7F800283EB99CF8071015F8312062F02D
:104A50007F0205F8312002AA02EB860624B20A4939
:104A60005B7856F8082C11F82400012B0CBF134674
:104A700042F001030343DBB201F82430002090E749
:104A800070FA00000092FF1FC0200740062925D8B9
:104A90008B00012A30B4DBB225D05B08134A03EB4C
:104AA000C30302EB43034FF6FF759988A94217D061
:104AB000D2F84412DA7C14B282F0010211F8340008
:104AC00000F07F0001F8340011F8320000F07F00A0
:104AD00001F83200DD81002030BC7047C4207047EF
:104AE000C42030BC70470233DBB2D6E70092FF1F10
:104AF00006294AD88B00012A2DE9F041DBB246D0C5
:104B00005B08DAB2D000254C851804EB45054FF65A
:104B1000FF76AD88B5423ED003EBC30304EB4303FD
:104B20004FF6FF7C9E881D4F664519D0DD7CD7F877
:104B300044620FFA85F885F0010516F838E00EF0AA
:104B40007F0E06F838E016F8358000EB020E08F00C
:104B50007F0806F8358007EB4E07A3F80EC0BD8826
:104B60000F4FD4F80038024404EB420209B24FF66A
:104B7000FF76002007F8210022F8046F5D1B5680A5
:104B80009680C4F80058BDE8F08196207047023343
:104B9000C3F34603B5E79620BDE8F0810092FF1FFE
:104BA000C0200740062970B442D88900012AC9B242
:104BB00046D00B46C3F34703DC002448E51800EB5E
:104BC00045054FF6FF76AD88B54204BF7F234FF40D
:104BD0007E74234400EB4303DB7CFF2B26D0012AA9
:104BE00031D0490801EBC10100EB41014FF6FF76DE
:104BF0008888164AB04220D0C87CD2F8442205B238
:104C000080F0010012F8354004F07F0402F83540CE
:104C100012F8304004F07F0402F83040CE811BB21D
:104C200012F8331061F07B0102F8331070BC70474A
:104C3000064A92F80139FF2BF8D0D2F84422EEE769
:104C40008B1CDBB2B6E70231C9B2CAE70092FF1F84
:104C50000629F0B569D88B00012ADBB200F0868006
:104C60005B08D800434CC51804EB45054FF6FF76AA
:104C7000AD88B54204BF7F234FF47E70034404EB3C
:104C800043033C4FD87CFF284ED00EB23A4D00294A
:104C900050D05B7D13F1FF3318BF0123012A35D0BB
:104CA00015F826E043F0180343EA0E036FF34103BF
:104CB00005F82630D7F84452002305F830309ABB67
:104CC000062943D97F214FF47E73194404EB410137
:104CD000CB7CFF2B28D08A884FF6FF70824223D0EE
:104CE00083F0010015F8300000061DD418B205EB62
:104CF000C0046280D1F80620626015F8333003F0FA
:104D0000400363F0770305F83030F0BD15F8262036
:104D100043F0140313436FF3410305F82630D7F82B
:104D20004432002203F83020F0BD124C7F234FF4B0
:104D30007E70A3E715F8263061F3410305F82630AD
:104D4000D7F8445205F83010002AEDD14B0003F09B
:104D50007E01CB005A1804EB42024FF6FF70928896
:104D6000824204BF7F214FF47E73AEE70233DBB291
:104D700076E700BF0092FF1FC0200740062930B42D
:104D80001ED8490001F07E01C800104B441803EB07
:104D900044044FF6FF75A488AC4204BF7F214FF452
:104DA0007E70014403EB4101D3F84432C97C03EB2C
:104DB000C10330BC5B6819685B6853601160704761
:104DC000024B7F214FF47E70EBE700BF0092FF1F84
:104DD00006291BD88800012A10B4C0B229D0430884
:104DE000174A03EBC30302EB43034FF6FF749B88A0
:104DF000A34207D009B2134B13F82130DBB213F0F2
:104E00000C0F05D105205DF8044B70470520704755
:104E10009B0711D4D2F8443213F83020D2090DD1B7
:104E200040F0010013F83030DB0914BF03200020EC
:104E3000E9E70230C0B2D2E70120E4E70320E2E76D
:104E40000092FF1FC0200740062810B420D8800021
:104E50000129C0B221D04008C200114B111803EB48
:104E600041014FF6FF748988A14204BF7F204FF4AF
:104E70007E72104403EB4000094AC37CFF2B04D030
:104E8000D2F84422002102F833105DF8044B704739
:104E9000034B7F204FF47E72EBE70230C0B2DAE7BB
:104EA0000092FF1F0629F0B545D8490001F07E01A8
:104EB000CC002C48651800EB45054FF6FF76AD8811
:104EC000B54204BF7F214FF47E74214400EB4101C1
:104ED00001F10C06F4792348FF2C2AD0B1F804E044
:104EE000D0F844724FF6FF70864501F1040120D0DE
:104EF00084F0010017F8305025F07F0505F0FF0021
:104F0000BDB9EBB125B207EBC50C9E4528BF9E4647
:104F10007380C1F80620B080ACF802E0CCF8042021
:104F200017F8343003F0400363F0770307F83530A7
:104F3000F0BD9420F0BD0B487F214FF47E74C4E790
:104F400022B207EBC203A3F802E0D1F802105960C5
:104F500017F8343003F0400363F0770307F832307A
:104F6000F0BD00BF0092FF1F06293BD888002DE945
:104F7000F0410230C0F34600204D00EBC00005EBCD
:104F800040004FF6FF748688A64200F1040C26D03C
:104F900000F10C04D5F8447294F807E017F83E00CD
:104FA00000061CD416480DB210F8255005F0020575
:104FB00005F0FF009DB99BB20FFA8EF807EBC8050C
:104FC0009E42A8BF1E466380CCF80620A0806E805B
:104FD0006A6049B9C82307F83830BDE8F0819320EA
:104FE000BDE8F0819320704717F83E3003F040038E
:104FF00063F0770307F83830BDE8F0810092FF1FB7
:10500000C0200740044B05480A46012183F8982038
:105010000A4600F097BC00BF002007400092FF1F27
:10502000054B06480021802283F8941083F80C2158
:105030000121FF2200F086BC002007400092FF1FE4
:1050400010B51A4B93F8002102F07F0283F800217B
:1050500093F80C2102F0DF0283F80C2193F88020F2
:1050600042F0200283F8802093F8842002F0DF02CF
:1050700083F8842093F8942002F0DF0283F89420D0
:1050800093F8942042F0040283F8942044F62064BC
:10509000013CA4B200F05EFF002CF9D1034A92F863
:1050A000943003F0FB0382F8943010BD00200740D9
:1050B0002DE9F04FD34DD44F95F880403B7895F8CB
:1050C00084C095F890E085B001218DF80430FF266A
:1050D00000230DEB010238468DF8063002938DF85F
:1050E0000D308DF80E308DF807308DF80C300CEA4D
:1050F00004045FFA8EF88DF801608DF8056000F009
:1051000007FC95F80C31DA0704D59DF80130802BA7
:1051100000F05E81630711D4E60723D4250700F170
:10512000D380A00700F1B780E10600F19680A206C7
:1051300064D4230672D405B0BDE8F08FB14991F86C
:10514000A40091F8A02004AB42EA0022042081F8D8
:10515000800023F80E2D122001A9029300F040FCDC
:10516000E607DBD5A74CA948BF26012384F8803089
:1051700084F8886094F89430002543F0020384F8A2
:105180009430FF2184F898504FF4107284F8005145
:1051900004F01AFB2946D7F844024FF4806204F069
:1051A00013FB9B4AD7F84432FF21117094F89420E6
:1051B00002F0FD0284F8942094F80C219F2142F023
:1051C000400284F80C2184F88C6084F8841094F8F0
:1051D000942002F0DF0284F8942003F5007301A903
:1051E0001020C7F8003800F0FBFB94F8943003F06F
:1051F000DF0384F8943005B0BDE8F08F814D2023A3
:1052000085F88030132001A900F0EAFB95F884307E
:1052100003F0DF0385F8843023068CD5FF2301A833
:1052200010210DF102028DF8053000F071FB9DF8A0
:105230000230012B00F04F81724C802384F88030C3
:1052400001A9172000F0CCFB94F8943003F0DF03A1
:1052500084F8943005B0BDE8F08F6A4D1023202209
:1052600085F88020142085F8803001A900F0B8FB73
:1052700095F80C3143F0200385F80C3195F8003196
:1052800043F0800385F8003195F8843043F0200323
:1052900085F884304BE75B4D022385F8803095F824
:1052A000883095F88C201620134001A98DF80C3019
:1052B00000F096FBBF2385F8883095F8943003F012
:1052C000DF0385F894302FE74FEA18124D4B082082
:1052D000C8F3C001062A83F880008DF805208DF8F8
:1052E000071040F282807F264FF0FE0EFF23D7F892
:1052F0004452DFF814C1F1008A1907EB420205EBB2
:10530000C308D07CD8F80490CDF80890B8F8028093
:10531000ADF80D8080F00100D07415F83320C2F391
:10532000801282F00102920105F83E209DF80720CC
:105330004FEACE08012A05EB08099DF8052069D03F
:105340005AB915F8333003F03C03342B00F0CF800A
:105350002F4B1A78012A00F02781881907EB4000AB
:1053600000F10C0CBCF802204FF6FF739A4200F0DB
:10537000AF80BDF80DA0BCF8043053449BB2ACF82C
:1053800004308088824500F08A804AB1B2FBF0FC8C
:1053900000FB1C2C1FFA8CFCBCF1000F00F08D8070
:1053A000314407EB41079DF80500D7F80A20029227
:1053B0004FF6FF71ADF80D30F98101A900F010FB37
:1053C000104A92F8943003F0DF0382F89430A8E694
:1053D00095F8003103F07F0385F8003195F80C3122
:1053E00003F0DF0385F80C3194E6C8F3800303EB88
:1053F0008203002975D183F0010E5FFA8EFEC3F39C
:10540000470674E7002007400092FF1F0492FF1F29
:105410008680FF1F10463AB9DFF838A29AF80030AC
:10542000002B71D0012BC8D1881907EB400000F187
:105430000C0CBDF80DB0BCF80430BCF802A05B4405
:105440009BB25345ACF8043019D28088314407EB45
:105450004107C3EB0A0AD7F80A208245134401DC4E
:105460001FFA8AF0A9F80200C9F8043015F83E3096
:1054700003F0400363F0770305F80830A0E7808865
:105480005FFA8BFB584500F0DD80314407EB4107A4
:10549000ADF80D30D7F80A30029310468DE79A42E6
:1054A0007FF673AFD21A82423144D8BF90B207EB75
:1054B000410728BBD7F80630D4E701EB060C07EB11
:1054C0004C0C9CF812C0BCF1010F7FF469AFE9E706
:1054D0009DF8050071E700228DF807308DF8052052
:1054E000AAE60233DBB283F0010E5E08FFE601227A
:1054F000029B8DF806201B78564ADB0913702CE7B7
:10550000D7F80A201344ADE7BCF804304FF6FF7219
:10551000FF2093428AF8000013D09CF813300FFA52
:1055200083FA83F0010315F83A0000F07F0005F8D4
:105530003A0015F8330000F07F0005F83300ACF8AE
:105540000E20002305F80830BB884FF6FF70834219
:105550000CBF7F23002303EBC30307EB4303DA7C79
:10556000FF2A1AD0B3F804C0844516D082F0010097
:1055700015F83000000610D410B205EBC00AAAF8E6
:1055800002C0D3F80630CAF8043015F8323003F000
:10559000400363F0770305F830309DF8052010468E
:1055A000002A7FF441AF08E7BCF816004FF6FF72FF
:1055B0004FF0FF0A904283F800A013D09CF82530EA
:1055C0000FFA83FA83F0010315F83A0000F07F0028
:1055D00005F83A0015F8330000F07F0005F83300B5
:1055E000ACF82020002305F80830BB884FF6FF7088
:1055F00083420CBF7F23002303EBC30307EB43036A
:10560000DA7CFF2A3FF4A9AEB3F804C084453FF426
:10561000A4AE82F0010015F8300000063FF59DAE03
:1056200010B205EBC00AAAF802C0D3F80630CAF8D7
:10563000043015F8323003F0400363F0770305F8C7
:1056400030308AE69CF806C0BCF1010F7FF41DAF34
:10565000FCE600BF8680FF1F0B4611461A4604F089
:10566000B3B800BF032910B417D0072903D9CD2040
:105670005DF8044B70471E4B019803EB8102126AE0
:105680000260002AF3D003EB4101029AB1F84030E6
:10569000138000205DF8044B7047BBB140F2094114
:1056A0008B421DD00122134604215C001048234484
:1056B00000EB83030020DC681B696158019C2160BA
:1056C0009B5C029A5DF8044B138070470199094A6C
:1056D0000A601846029B5DF8044B04221A8070474A
:1056E000022A92BF9100042101220023DDE700BFBE
:1056F00078FA00008880FF1F012901D9CD2070476A
:10570000024B5B5C13700020704700BF049AFF1FC0
:1057100001299DBF024B00205A54CD20704700BF85
:10572000049AFF1F01298CBF00200120704700BF91
:10573000054B1A788A4205D05B78581AB0FA80F087
:105740004009704701207047049AFF1F00207047EE
:1057500000487047C8FA0000012901D9CD207047E0
:10576000034BC1EBC101194411600020704700BF19
:105770008C80FF1F012901D9CD2070470D48136887
:10578000C1EBC10101441B7A0B7113685B7A4B7149
:1057900013689B7A8B711368DB7ACB7113681B7B60
:1057A0000B7213685B7B4B7213689B7B8B720020C0
:1057B000704700BF8880FF1F012901D9CD207047A5
:1057C000024B03EB4101116000207047089AFF1F54
:1057D000012901D9CD207047024B03EB4101116033
:1057E000002070470C9AFF1F012901D9CD20704776
:1057F000054B106803EB410103780B7113685B786C
:105800004B710020704700BF049AFF1F012901D986
:10581000CD207047054B106803EB410103780B72F4
:1058200013685B784B720020704700BF049AFF1F1B
:1058300000BF7047013AF8B5D4B2062C01D99920BF
:10584000F8BD0B4F0646FF21381D07221D463C7050
:105850007C7003F0B9FF07F10C000521072203F06B
:10586000B3FF30462946BDE8F840FEF7DBBF00BF76
:10587000109AFF1F024B00221A70FFF747B800BFB3
:10588000109AFF1FF0B5134C83B066789DF8207016
:105890009DF824C00D4696461EB911B1952003B05F
:1058A000F0BD00788DF80230624669468DF80050F0
:1058B000ADF803E08DF80170FFF746F89DF8003071
:1058C000002BECD00028EAD16378013B637003B071
:1058D000F0BD00BF109AFF1F70B50C4C667825789C
:1058E000AE420AD00D460078FFF702F925B118B98B
:1058F00063780133637070BD70BD09B1962070BDCF
:105900000078BDE87040FFF7F3B800BF109AFF1FA2
:105910004B1E062B0DD9CB0601D48220704701F017
:105920000F010629F9D8064B194400200B7B137090
:105930007047034B19440020CB781370704700BFA9
:10594000109AFF1FF0B54B1E062B83B0154625D9C4
:10595000CB0602D4822003B0F0BD01F00F07062F62
:10596000F8D8012A4FEAD1141ED0124B92B9DA1995
:10597000127B012A0ED13946224601930646FFF7D3
:1059800067F9019B37B9304684F001023946FFF7C9
:105990005FF9019B1F4400203D73DCE7054B194470
:1059A0000020CA7003B0F0BD22463946FFF7FAF86E
:1059B000004BEFE7109AFF1F00207047062905D91A
:1059C000A1F11003072B01D9C4207047034B53F8F2
:1059D0002130002B0CBFC42000207047F0FA0000DB
:1059E000102870B504460D4607D00B4B53F82430F1
:1059F0000BB128469847002070BD084EFF21337830
:105A00007370301D072203F0DFFE06F10C00052144
:105A1000072203F0D9FEE8E7F0FA0000109AFF1F12
:105A200030B585B004A9022501F8090D14461D8082
:105A30000DF10F0208460521FFF76AFF034B9DF8A1
:105A40000F201A80236005B030BD00BF249AFF1FCD
:105A500030B585B004A9012501F8090D14461D8053
:105A60000DF10F0208460421FFF752FF034B9DF88A
:105A70000F201A800020236005B030BD249AFF1F3C
:105A800070B5002484B01C804988ADF80E10034620
:105A90008DF80730FFF746FE18B90425284604B0F4
:105AA00070BDBDF80E20B2FA82F20DF10700520966
:105AB0000121FFF747FF9DF80E200B4E0DF1070067
:105AC0000421FFF73FFF736805460DF10E029DF8B4
:105AD0000700012198479DF80700736822460221BC
:105AE0009847284604B070BD249AFF1F30B583B094
:105AF00002AA002402F8010D0D461C801046012167
:105B00000422FFF71FFF034B6A881A72204603B076
:105B100030BD00BF249AFF1F10B582B000928C8860
:105B20004A880193110A2346D2B2FFF79BFD02B0C7
:105B300010BD00BFF0B587B00D468DF80F004FF0D7
:105B4000000E032416460DF10F0004AA01218DF862
:105B500010401F46CDF814E0FFF7DAFE2A78144013
:105B600007D0012C44D0022C2ED02A4D356007B02E
:105B7000F0BD0DF111020DF10F000621FFF7C8FE77
:105B80009DF811E0234D9DF80F0005AA0DF11203B9
:105B90000EF0030E8DE80C00022122462346A5F8E4
:105BA00000E0FFF75FFD059BDB7913F0400F2B88CA
:105BB00014BF43F0010323F001039BB202222B80A8
:105BC0003A80356007B0F0BD2979124D41F01001DF
:105BD000C9B20DF10F000DF11202FFF799FE9DF809
:105BE000123003F001032B803C80356007B0F0BD1C
:105BF0009DF81030AA88074D012B06D00022022301
:105C00002A803B80356007B0F0BD12F0FF0FF5D061
:105C1000CD20ABE7249AFF1F70B500221A800B78C5
:105C20004A7884B013F003030C468DF80700C2F3E2
:105C3000400607D116BB4E88012E3FD0CD25284601
:105C400004B070BD022BF9D109798DF80F100DF158
:105C5000070041F010013246FFF774FE6378002E12
:105C600014BF07210821012B054641D0254B9DF883
:105C700007005B680DF10F029847E0E74B88013B96
:105C80009BB2012BDAD80DF1070006210DF10F02AE
:105C9000FFF73EFE05460028D1D1A2789DF80F30CF
:105CA00006FA02F21343DBB20DF107001A46062191
:105CB0008DF80F30FFF746FE0546C0E70DF10700EF
:105CC00006210DF10F02FFF723FE05460028B6D18D
:105CD000A2789DF80F30964023EA06060DF10700E2
:105CE000324606218DF80F60FFF72CFE0546A6E729
:105CF0009DF80F1001F00F00C909FFF7A5F8082162
:105D0000B4E700BF249AFF1F10B500241C800B7855
:105D100003F00303012B01D0042010BD0B460979C9
:105D20009A78FFF7F5FC204610BD00BF70B50C78DF
