:10000000000000202D1600001D1300001D1300002D
:100010001D1300001D1300001D1300001D13000020
:100020001D1300001D1300001D1300001D13000010
:100030001D1300001D1300001D13000031130000EC
:100040001D1300001D1300001D1300001D130000F0
:100050001D1300001D1300001D1300001D130000E0
:100060001D1300001D1300001D1300001D130000D0
:100070001D1300001D1300001D1300001D130000C0
:100080001D1300001D1300001D1300001D130000B0
:100090001D1300001D1300001D1300001D130000A0
:1000A0001D1300001D1300001D1300001D13000090
:1000B0001D1300001D1300001D1300001D13000080
:1000C0001D1300001D1300001D1300001D13000070
:1000D0001D1300001D1300001D1300001D13000060
:1000E0001D1300001D1300001D1300001D13000050
:1000F0001D1300001D1300001D1300001D13000040
:100100001D1300001D1300001D1300001D1300002F
:100110001D1300001D1300001D1300001D1300001F
:100120001D1300001D1300001D1300001D1300000F
:100130001D1300001D1300001D13000025180000F2
:100140001D1300001D1300001D1300001D130000EF
:100150001D1300001D1300001D1300001D130000DF
:100160001D130000193B00001D1300001D130000AB
:100170001D1300001D1300001D1300001D130000BF
:100180001D1300001D1300001D1300001D130000AF
:100190001D1300001D1300001D1300001D1300009F
:1001A000B5170000491700001D1300001D130000C3
:0C01B0001D1300001D1300001D130000B3
:10040000FFFFFFFFFFFFFFFFFFFFFFFF7EFBFFFF81
:10042000034A116813685B1A8342FBD3704700BF0D
:10043000C88AFF1F054A4FF47A73116803FB00F066
:1004400013685B1A8342FBD3704700BFC88AFF1F43
:100450002DE9F041264C2668A7683046394604F05D
:1004600085FFE568D4F8048020F000432946236125
:10047000404604F07BFF20F0004363611D4938468D
:1004800005F07EF805F042FA1B49A06107462846B0
:1004900005F076F805F03AFA1649E061054630466F
:1004A00005F06EF805F032FA134920620646404620
:1004B00005F066F805F02AFAF61B451B002ECCBFA6
:1004C0000121FF210D4B6062002D86EAE67E85EA60
:1004D000E577CCBFFF220122AEEBE67EA7EBE57706
:1004E00019705A70C4F828E0E762BDE8F08100BFD7
:1004F000008AFF1FD049334514E0D6450080FF1F16
:10050000F8B5164C2369666919460746184605F082
:1005100037F831460546304605F032F801462846A0
:1005200004F026FF04F0B8FB05F002FE04F0CAFE5A
:100530000B49A56AE66A05F023F8394605F0D4F8B8
:10054000AE4204463046B8BF284604F0C5FF014617
:10055000204605F0C9F805F0FFF9F8BD008AFF1F35
:10056000C0E1644C2DE9F0412E4CD4F808802060A5
:100570000F4667604146064604F0F8FEE56820F045
:10058000004329462361384604F0F0FE20F0004382
:1005900063612549404604F0F3FF05F0B7F92349AC
:1005A000A0618046284604F0EBFF05F0AFF91E4934
:1005B000E0610546304604F0E3FF05F0A7F91B496A
:1005C00020620646384604F0DBFF05F09FF9C8EBD1
:1005D0000606451B86EAE672002E85EAE573A2EB65
:1005E000E672A3EBE573CCBF0126FF2610496062DB
:1005F000002DCCBFFF2001209A42A262E3620E7060
:10060000487007DC0122591084F830206363A1632D
:10061000BDE8F0810023511084F830306263A1639B
:10062000BDE8F081008AFF1FD049334514E0D6456C
:100630000080FF1F2DE9F843274CD4F800900646B0
:100640000D46A6603146E560484604F08FFED4F8BA
:10065000048020F0004329462361404604F086FED2
:1006600020F0004363611D49304604F089FF05F026
:100670004DF91B49A0610746284604F081FF05F0AB
:1006800045F91649E0610546484604F079FF05F052
:100690003DF9134920620646404604F071FF05F01B
:1006A00035F9F61B451B002ECCBF0121FF210D4B58
:1006B0006062002D86EAE67E85EAE577CCBFFF2200
:1006C0000122AEEBE67EA7EBE57719705A70C4F80D
:1006D00028E0E762BDE8F883008AFF1FD049334570
:1006E00014E0D6450080FF1F2DE9F84FDFF8F480B5
:1006F000DFF8E490D8F8345098F83060B6FA86FA0B
:1007000015F1FF354FEA5A1A08EB8A0B08EB8607FA
:10071000D8F83840DFF8D0E02E4B1DD35EF826C065
:1007200019F90620B96A9444DBF828204EF826C04F
:1007300014448C4208DB284A5EF82AC012F90A20C9
:1007400062444EF82A20641A19681A68521A9042B4
:10075000FBD815F1FF35E1D2D8F80070D8F8046065
:10076000C8F8384039463846C8F83450C8F80870D8
:10077000C8F80C6004F0FAFD20F000433146C8F8D8
:100780001030304604F0F2FD20F00043C8F8143079
:100790001249384604F0F4FE05F0B8F81049C8F8DC
:1007A00018000446304604F0EBFE05F0AFF80122D5
:1007B000002389F8005089F80120C8F82040C8F8C3
:1007C0001C00C8F82400C8F82830C8F82C30BDE850
:1007D000F88F00BFC88AFF1F0080FF1FD049334534
:1007E00014E0D645008AFF1FE08AFF1F38B50D4B85
:1007F00093F8BC403C3305461C441A781846202127
:100800003AB19C4205D9AA4205D007F0CBF9431C66
:10081000F3D1002038BD581C07F06CF904F052FDEC
:1008200038BD00BF008AFF1F0B4B93F8BC1071B19D
:1008300093F83C2082420CD03C330139194403E048
:1008400013F8012F824204D08B42F9D100210846CF
:100850007047012108467047008AFF1F2DE9F04FBD
:10086000DFF810B29BF8BC608BB0002E3ED09BF836
:100870003C30472B0BF13C053AD0711E2C462944E5
:100880002A4603E012F8010F472831D08A42F9D1F5
:10089000582B2DD0754A03E012F8010F582827D0A5
:1008A0008A42F9D1592B04D122E014F8012F592A98
:1008B0001ED0A142F9D1462B1AD06C4D00222C46F5
:1008C000294603E011F8010F462811D00132B24247
:1008D000F8DB4D2B00F03E84002204E014F8011FE9
:1008E0004D2900F037840132B242F7DB60484BE11A
:1008F0002C46AF1900E043785E4A20462021002BA9
:1009000000F0A980BC4280F0AE80472B00F0B4809C
:1009100007F048F9441CEED19BF8BD30554A002B36
:1009200000F030837EB192F83C70582F00F0E683DF
:10093000711E29442B4604E013F8012F582A00F0B9
:10094000DD838B42F8D1DBF808907EB19BF83C70D8
:10095000592F00F0BC832A46002304E012F8011F3F
:10096000592900F0B4830133B342F7DBDBF80CA064
:100970007EB19BF83C70462F00F0D7832A460023B7
:1009800004E012F8011F462900F0CF8301339E4294
:10099000F7DC5C2C00F22983DFE814F0A802A8023F
:1009A000740174010A012703270327032703270380
:1009B00027032703270327032703270327032703E7
:1009C00027032703F500F500270327032703270341
:1009D0002703270302012703FB002703270327031D
:1009E00027032703270327032703270327032703B7
:1009F00027032703270327032703270327032703A7
:100A00002703270327032703270327032703270396
:100A10002703270327032703270327032703270386
:100A20002703270327032703270327032703270376
:100A30002703270327032703270327032703270366
:100A40002703270327032703270327032703270356
:100A5000DF02E30225011C469BF8BD30054A002B4E
:100A60007FF460AF8EE2002456E700BF3C8AFF1F90
:100A7000E4A70000008AFF1F601C009207F03AF80C
:100A800004F020FC04F042FF1E280446009A40F2C5
:100A90001E844FF0000AD1465C2800F2A682DFE8EF
:100AA00010F08F038F03F100F1008700A402A4026D
:100AB000A402A402A402A402A402A402A402A40206
:100AC000A402A402A402A402A40272007200A4025E
:100AD000A402A402A402A402A4027F00A40278003B
:100AE000A402A402A402A402A402A402A402A402D6
:100AF000A402A402A402A402A402A402A402A402C6
:100B0000A402A402A402A402A402A402A402A402B5
:100B1000A402A402A402A402A402A402A402A402A5
:100B2000A402A402A402A402A402A402A402A40295
:100B3000A402A402A402A402A402A402A402A40285
:100B4000A402A402A402A402A402A402A402A40275
:100B5000A402A402A4025C026002A200501C06F0DF
:100B6000C9FF04F0AFFB04F0D1FE072800F07D833D
:100B7000082800F08783022840F0FD823A4A9368F3
:100B800043F02003936039480BB0BDE8F04F01F00B
:100B90005FBC48465146FFF7E5FC6420FFF7A4FD23
:100BA00000200146FFF7DEFC6420FFF79DFDEAE729
:100BB0009BF8BC202E4B15441A7818462021002A99
:100BC00000F01C839D4240F21783502A00F02883D6
:100BD00006F0E8FF431CEFD1264908680A68121A9C
:100BE0009A42FBD3CFE7DBF80450DBF80000224940
:100BF0000022002325F0004420F00046CBF8082016
:100C0000CBF80C20CBF81830CBF81C30CBF81440C4
:100C1000CBF8106004F0B4FC04F078FE1749CBF870
:100C200020000446284604F0ABFC04F06FFE144B91
:100C3000CBF82400002C84EAE475A5EBE475C8BF6A
:100C400001221C46D8BFFF2280EAE0710028A1EBF8
:100C5000E071CCBFFF230123CBF82850CBF82C1038
:100C6000227063708FE700BF80F00F40D0A70000B4
:100C70003C8AFF1FC88AFF1FD049334514E0D64580
:100C80000080FF1F9BF8BC602E44B84D2B461A789D
:100C90001846202142B1B34206D2492A00F0B98257
:100CA00006F080FF431CF2D10021DBF808703846C3
:100CB00004F05EFB9BF8BC20AC4B064615441A784A
:100CC0001846202142B19D4206D94A2A00F0988256
:100CD00006F068FF431CF2D10021DBF80C300093D2
:100CE000184604F045FB31460546384604F03EFB05
:100CF000009B29468046184604F038FB31460746DB
:100D0000484604F033FB29468146504604F02EFB4A
:100D1000022C824600F05982384603F0BDFFCDE92F
:100D20000001404603F0B8FF02460B46DDE9000132
:100D300005F0FCF904F0C6FA0390504603F0ACFF4E
:100D4000CDE90001484603F0A7FF02460B46DDE966
:100D5000000105F0EBF904F0B5FA81464946039825
:100D600004F0C0FD20B14846814904F001FB8146F2
:100D70000399484604F0FAFA41468246404604F098
:100D8000FFFB39468046384604F0FAFB01464046F0
:100D900004F0EEFA03F080FF05F0CAF904F092FACD
:100DA00074498046504604F0EBFB514607464046E6
:100DB00004F0E6FB704904F097FC8146494638464A
:100DC00004F09AFD002800F0DA81384603F064FF51
:100DD00005F096F804F04EFA071E7FF7D4AE04F043
:100DE0007BFB0890304603F057FFCDE904014046F5
:100DF00003F052FFCDE90001284603F04DFF5F4BA1
:100E00000993032CCDE906014FF0010600F0F180B3
:100E1000B81B04F061FB089904F066FC01465046DB
:100E200004F0AEFB039904F0A3FA03F035FF044687
:100E30000D4605F0EDF8804689462046294605F026
:100E40002BF9DDE9002304460D464046494603F0F0
:100E500077FFDDE9042303F0C1FD04F033FADDE997
:100E6000002380462946204603F06AFFDDE9062379
:100E700003F0B4FD04F026FA01464046FFF772FB8A
:100E8000DBF81000099BDBF81450D3F8048001460E
:100E900004F076FB29460446284604F071FB01461F
:100EA000204604F065FA03F0F7FE05F041F904F07E
:100EB00009FA3349DBF82840DBF82C5004F060FBDA
:100EC000414604F011FCA54280462846B8BF2046A2
:100ED00004F002FB0146404604F006FC04F03CFD31
:100EE0000136FFF701FCB74292DA4CE6484651461C
:100EF000FFF738FB002C00F04481DBF810001F4B9B
:100F0000DBF814605C68014604F03AFB31460546A4
:100F1000304604F035FB0146284604F029FA03F078
:100F2000BBFE05F005F904F0CDF91549DBF82850B2
:100F3000DBF82C6004F024FB214604F0D5FBAE4224
:100F400004463046B8BF284604F0C6FA014620469B
:100F500004F0CAFB04F000FD27E601238BF8BD3046
:100F600011E600238BF8BD300DE600BF3C8AFF1F61
:100F7000DA0FC9409A9919400AD7A33B0080FF1F96
:100F8000C0E1644C2B46AF1908E0BB420DD2582A91
:100F900000F05B8106F006FE431C06D01A78DFF8ED
:100FA000708318462021002AEFD10020DBF80810BA
:100FB00004F0DEF9AF1981462B4608E0BB420DD2A2
:100FC000592A00F04A8106F0EDFD431C06D01A783C
:100FD000DFF83C8318462021002AEFD10020DBF8FF
:100FE0000C1004F0C5F98246C2E4BE4801F030FAA4
:100FF000C9E5304604F070FA089904F075FB014623
:10100000504604F0BDFA039904F0B2F903F044FE2F
:1010100004460D4604F0FCFF8046894620462946DA
:1010200005F03AF8DDE9002304460D4640464946FE
:1010300003F086FEDDE9042303F0D0FC04F042F95E
:10104000DDE9002380462946204603F079FEDDE9EC
:10105000062303F0C3FC04F035F901464046FFF7D0
:1010600081FADBF81000099BDBF81450D3F80480F8
:10107000014604F085FA29460446284604F080FA21
:101080000146204604F074F903F006FE05F050F81E
:1010900004F018F99449DBF82840DBF82C5004F0F0
:1010A0006FFA414604F020FBA54280462846B8BFAF
:1010B000204604F011FA0146404604F015FB04F006
:1010C0004BFC0136FFF710FBB74292DA5BE53A467C
:1010D0002B4605EB060800E04278DFF834C21846DC
:1010E000202142B1434506D2592A00F0D88006F0AB
:1010F00059FD431CF0D14FF0000A3CE43A462B4620
:1011000005EB060800E04278DFF804A2184620212B
:1011100042B1434506D2582A00F0CF8006F042FD86
:10112000431CF0D14FF0000912E42E442B4609E095
:10113000B3420BD2462F00F0828006F033FD431CF1
:1011400004D0477818462021002FF1D10020674BAA
:1011500058601EE43544664A09E0AA420BD24D2B82
:101160003FF4FCAC06F01EFD421C04D04378104650
:101170002021002BF1D15F4801F06AF903E54F46C9
:1011800023E6DBF81000DBF81450014604F0F8F910
:1011900029460446284604F0F3F90146204604F0A7
:1011A000E7F803F079FD04F0C3FF04F08BF84E4933
:1011B000DBF82850DBF82C6004F0E2F94E49BCE67D
:1011C00000200146FFF7CEF997E603F065FDCDE973
:1011D0000001484603F060FD02460B46DDE90001D0
:1011E00004F0A4FF04F06EF80390384603F054FDB9
:1011F000CDE900014046A6E50023EDE41346EBE40B
:10120000581C06F077FC04F05DF8DBF80870014626
:1012100063E5581C06F06EFC04F054F8014644E502
:10122000581C06F067FC04F04DF8344904F0A8F9A6
:1012300004F06CFB4FF47A7303FB00F3CCE4581C0E
:1012400006F058FC04F03EF881E7581C06F052FC0A
:1012500004F038F898F8BC60A8E6581C06F04AFC80
:1012600004F030F898F8BC60B9E6254A254953687F
:10127000254843F0200353600A680B689B1A834299
:10128000FBD980E41E4A1F4993681F4843F020039E
:1012900093600A680B689B1A8342FBD973E4581C5D
:1012A000CDF800C006F026FC04F00CF8DDF800C014
:1012B00082469CF8BC60FFF75BBB581C06F01AFC2A
:1012C00004F000F89AF8BC608146FFF73EBB0121AC
:1012D0000E4B81400B40EBB94FF0000AD146FFF7AF
:1012E00058BB00BFC4A70000C0E1644C0080FF1FD2
:1012F0003C8AFF1FD8A7000000007A4300007A4410
:1013000080F00F40C88AFF1FDF9304000F000040E9
:10131000008AFF1F92F8BC60FFF7FEBA684620F013
:1013200007018D4601B45DF8040B8546704700BF88
:10133000684620F00701054A8D4601B413685DF840
:10134000040B013313608546704700BFC88AFF1F36
:10135000F0B5541E002A3BD0031D0D1DA84238BF16
:1013600099422CBF01230023092A94BF002303F0D4
:101370000103064623B340EA01039B0720D1131F54
:101380009B080133022C4FEA83070FD9A1F1040E09
:10139000002501355EF804CF46F804CBAB42F8D8FF
:1013A000BA4238443944A4EB070411D00B780370D7
:1013B00074B14B784370012C0BD08B788370F0BDE7
:1013C00001380A4411F8013B00F8013F9142F9D17C
:1013D000F0BDF0BD2DE9F0412C4D002D40D153E082
:1013E0006B68002B45D1A86800284DD001380A460B
:1013F000131D0C1D944288BF8B4294BF0123002310
:1014000000F1010CBCF1090F94BF002303F00103AC
:10141000164683B342EA01039B072CD1C31E9B08E7
:1014200001334FEA830E0F1F0024013457F8048F55
:1014300046F8048BA342F8D8F445CEEB00000EEB3F
:1014400002040EEB01060AD011F8231002F8231053
:1014500028B173786370012801D0B378A3700C357C
:1014600029680029BCD06A68AB68581E002BBFD120
:10147000F5E71A46F8E71044531E11F8012B03F85C
:10148000012F8342F9D1EAE7BDE8F081C0B6000040
:10149000044A0548121A921002D0002106F034BB0B
:1014A000704700BFAC96FF1F008AFF1F4FF0E0217E
:1014B0003148324A324B70B4C1F8080D41F2440150
:1014C0004CF220502F4CD0814DF628164FF4E97580
:1014D000D68141F2380015805C501A582A4942F4EE
:1014E000F0521A508B781A0703D58B7843F0080313
:1014F0008B70234A2549264B264C41F244004FF07D
:101500008175155041F204050626505940F480308B
:101510005051106840F4402010608A6C22F08072B4
:1015200022F4E0628A64CA6C22F0807222F4E062E3
:101530002420CA641E705870DA7802F01F0242F04C
:10154000C0028021DA7021701A7B072102F0FE02AE
:101550001A7319711A79002142F040021A711A4661
:1015600059719379DB06FCD5094A937913F00C0F76
:10157000FBD170BC704700BF000000000020054098
:10158000007004400000030100D0074000900440B8
:10159000004006400050064080F31188704700BFAD
:1015A000F0B41B4A1B4B57791B4D1C4E1C4C1D485D
:1015B0001D4907F0E0075771177907F0F807177111
:1015C0001A7802F08C0242F050021A705A7802F037
:1015D0009C0242F040025A709F78002207F0E60712
:1015E0009F70327085F8492385F81423636923F0CE
:1015F000030363614369472523F0C0030724436164
:101600004D600C6082F3118862B6F0BC704700BF79
:1016100000F0074000D0074000E100E000E0074094
:1016200040F00F4080F00F4010E000E008B5FFF7F9
:101630003DFF0F4B1846002807D0854681B04FF07C
:1016400000006FEA0000009001B00A4B0A481B1A24
:101650009A1002D0002106F057FAFFF7BBFEFFF701
:101660009FFF064B00221A6004F0C8FBFEE700BF94
:1016700000000020AC96FF1F008AFF1FC88AFF1FD2
:1016800010B5041E16DDC4F57F40FF3000284FF66C
:10169000FF710DDB8142A8BF014689B2052000F031
:1016A00059FA06204FF6FF71BDE8104000F052BA1B
:1016B0000021F3E705204FF6FF7100F04BFA04F527
:1016C0007F40FF3000284FF6FF7408DB8442A8BF3C
:1016D0000446A1B20620BDE8104000F03BBA00214C
:1016E000F8E700BF10B5041E16DDC4F57F40FF30DB
:1016F00000284FF6FF710DDB8142A8BF014689B279
:10170000002000F027FA01204FF6FF71BDE81040DD
:1017100000F020BA0021F3E700204FF6FF7100F03F
:1017200019FA04F57F40FF3000284FF6FF7408DBFC
:101730008442A8BF0446A1B20120BDE8104000F0D9
:1017400009BA0021F8E700BF164B68469A6920F0F5
:1017500007018D46D20131B402D4DB69DB011ED50D
:101760001049114A88691579104B114C40F080706E
:101770008861C86940F08070C86119691378137175
:10178000C1F3811103EB850301EB83031170E15C6D
:101790004BB2032B03D011B191680B44936031BC61
:1017A0008546704700B00440D08AFF1F80F00F408C
:1017B00048A60000174B68461A6820F007018D46BE
:1017C000D20131B402D45B68DB0120D51149124A41
:1017D00008685579114B124C40F0807008604868D9
:1017E00040F08070486019695378537101F003012B
:1017F00003EB850301EB83035170E15C4BB2032BD8
:1018000005D021B1022B02DCD1680B44D36031BC7E
:101810008546704700A00440D08AFF1F40F00F406B
:1018200048A600004F4B68461A6820F007018D4615
:101830001206F1B503D4BDE8F140854670471A6839
:10184000494C22F080021A60A2682769E368666941
:10185000BF1A3846F61A03F03FFE444903F090FEE3
:101860000546A069381A03F037FE414903F088FEA7
:101870000146284603F07CFD04F048F8051E45DDCE
:10188000C5F57F40FF3000284FF6FF713ADB8142FB
:10189000A8BF014689B2052000F05CF906204FF68A
:1018A000FF7100F057F9304603F016FE2F4903F0A0
:1018B00067FE0546E069301A03F00EFE2C4903F07E
:1018C0005FFE0146284603F053FD04F01FF8051E95
:1018D00030DDC5F57F40FF3000284FF6FF7113DB88
:1018E0008142A8BF014689B2002000F033F90120EF
:1018F0004FF6FF7100F02EF9A761E661BDE8F140F7
:10190000854670470021C6E70021EDE705204FF628
:10191000FF7100F01FF905F57F40FF3000284FF6FA
:10192000FF751BDB8542A8BF0546A9B2062000F063
:1019300011F9B8E700204FF6FF7100F00BF905F53B
:101940007F40FF3000284FF6FF7509DB8542A8BFB6
:101950000546A9B2012000F0FDF8CDE70021E5E73A
:101960000021F7E700900340D08AFF1F0080BB45AD
:101970000080BB46DFF830C1454BDCF8002045480D
:10198000454922F0807222F4E06242F48072F0B5A0
:10199000CCF80020DCF80020404EDFF810E1404C8D
:1019A000404F22F0877222F4803242F0857242F476
:1019B0008032CCF80020DCF8042022F0807222F47F
:1019C000E06242F48072CCF80420DCF8042022F0BB
:1019D000877222F4803242F08572502542F48032C0
:1019E000CCF8042083F858539A6842F080729A60C9
:1019F000826922F0807222F4E06242F48072826195
:101A0000826922F0877222F4803242F0857242F4B9
:101A100080328261C26922F0807222F4E06242F474
:101A20008072C261C26922F0877222F4803242F071
:101A3000857242F48032C26183F859539A6841F248
:101A40003C0042F000729A60325842F0007232500C
:101A50004FF0040C002208261020C1F854C00A6080
:101A6000CA644A60CA604A618E6083F83F035A685C
:101A700042F000425A600D60DEF81020C2F381127D
:101A800022703B69227103F0030363706371F0BD40
:101A900000E100E000B0044000900340007004400A
:101AA000D08AFF1F40F00F4000A0044080F00F409C
:101AB00070B4244D244B2548254941F23C040426AA
:101AC0002A5942F080722A5100222C2440F2833598
:101AD0005E651A60DA645A60DA605A61DA615A62E5
:101AE000DA625A63DA635A649D60DC601A615C6191
:101AF0009A615C639A63DC631A64426822F08072C4
:101B000022F4E06242F480624260826822F08072D5
:101B100022F4E06242F4806282604A6922F08072BC
:101B200022F4E06242F480624A618A6922F08072A3
:101B300022F4E06242F4806209208A61186070BC7D
:101B4000704700BF007004400080034000B00440B4
:101B500000C00440074B9B6801339BB223B101FBDB
:101B600003F101F50041090C034BC00003449960E7
:101B7000704700BF0080034008800340084A137884
:101B8000DBB2012B02D0012353707047222902D00F
:101B90002129F8D10023537001235370704700BFEF
:101BA000F08AFF1FF0B583B069B102294BD0042938
:101BB0000DD003293FD0052903D1274B00221A70ED
:101BC0005A7003B0F0BD244A117003B0F0BD224C2E
:101BD0006378012BF5D19688402E28BF40261EB38E
:101BE00000231F462546116811F803E0EFF310802B
:101BF00072B68DF80700A07840280DD0E97805EB83
:101C0000010C0131C9B2402900F101008CF804E057
:101C100014BFE970EF70A0709DF8070080F3108882
:101C20000133DBB29E42DED8002002460346022189
:101C300001F06CFEC5E7084B5A78012AC1D1002299
:101C400083F84420BDE700200246034601F05EFE13
:101C5000014B01221A70B4E7F08AFF1F10B404464A
:101C600083B0EFF3108072B68DF80700104A9178B8
:101C7000402913D0D378D0180133DBB2402B08BFF2
:101C8000002301310471D37091709DF8070080F337
:101C90001088002003B05DF8044B70479DF80700E2
:101CA00080F31088022003B05DF8044B704700BF3A
:101CB000F08AFF1F82B00146EFF3108072B68DF8F4
:101CC0000700114B9A7832B99DF8070080F310880D
:101CD000032002B0704793F845201A4412790A7025
:101CE00093F8452099780132D2B2402A01F1FF31B0
:101CF00008BF0022997083F845209DF8070080F303
:101D00001088002002B07047F08AFF1F014B9878BE
:101D1000704700BFF08AFF1F024B9878C0F1400067
:101D2000C0B27047F08AFF1F10B582B0EFF3108089
:101D300072B68DF80700084B0024181D214640227A
:101D4000DC7083F845409C7005F0DEFE9DF80700CE
:101D500080F3108802B010BDF08AFF1F82B00346E6
:101D6000EFF3108072B68DF807003F2B06D99DF86F
:101D7000070080F31088042002B070470C4A907866
:101D8000984206D89DF8070080F31088032002B01F
:101D9000704792F84500034403F03F0313441B7956
:101DA0000B709DF8070080F31088002002B0704788
:101DB000F08AFF1F82B0EFF3108072B68DF8070033
:101DC0000E4A937833B99DF8070080F310880320FA
:101DD00002B0704792F845100131C9B2013B402969
:101DE00093700ABF002382F8451082F845309DF8B1
:101DF000070080F31088002002B07047F08AFF1FB0
:101E000010B4044683B0EFF3108072B68DF807006B
:101E1000124A92F84610402917D092F84730D0184D
:101E20000133DBB2402B08BF0023013180F848406A
:101E300082F8473082F846109DF8070080F310883A
:101E4000002003B05DF8044B70479DF8070080F355
:101E50001088022003B05DF8044B7047F08AFF1F22
:101E600082B00146EFF3108072B68DF80700134B75
:101E700093F8462032B99DF8070080F310880320BC
:101E800002B0704793F888201A4492F848200A70EC
:101E900093F8882093F846100132D2B2402A01F11B
:101EA000FF3108BF002283F8461083F888209DF890
:101EB000070080F31088002002B07047F08AFF1FEF
:101EC000014B93F846007047F08AFF1F034B93F8CD
:101ED0004600C0F14000C0B2704700BFF08AFF1F4B
:101EE00010B582B0EFF3108072B68DF807000A4B80
:101EF000002403F148002146402283F8474083F83C
:101F0000884083F8464005F0FFFD9DF8070080F308
:101F1000108802B010BD00BFF08AFF1F82B00346D8
:101F2000EFF3108072B68DF807003F2B06D99DF8AD
:101F3000070080F31088042002B070470D4A92F821
:101F40004600984206D89DF8070080F310880320C9
:101F500002B0704792F88800034403F03F03134433
:101F600093F848300B709DF8070080F3108800202C
:101F700002B07047F08AFF1F82B0EFF3108072B694
:101F80008DF807000F4A92F8463033B99DF80700E4
:101F900080F31088032002B0704792F88810013156
:101FA000C9B2013B402982F846300ABF002382F8BB
:101FB000881082F888309DF8070080F31088002090
:101FC00002B07047F08AFF1FF0B53B4C83B001F0C0
:101FD0005BF92378012B02D0A07803B0F0BD6378C1
:101FE000012BF9D194F84630002BF5D000218E4614
:101FF00004F18C072546EFF3108072B68DF80700C8
:102000008EB294F846309BB99DF8070080F3108893
:10201000294D012705F18C0239460020334684F80A
:10202000447000F0ABFEF8B1002385F84430D3E7EC
:1020300095F88820A8180132D2B2402A03F1FF3364
:1020400090F8480085F8463007F8010B14BF85F872
:10205000882085F888E09DF8070080F3108801311A
:102060004029C8D10E46D3E795F8443033B10A2051
:10207000FEF7E0F994F84430002BF8D116F007068B
:10208000AAD10D4D012705F18C0239463046334661
:1020900084F8447000F072FE10B185F844609BE74C
:1020A00095F84430002B97D00A20FEF7C3F994F836
:1020B0004430002BF8D18FE7F08AFF1F82B0014631
:1020C000EFF3108072B68DF80700154B9A785AB965
:1020D0009DF8070080F31088EFF3108072B68DF83A
:1020E00007009A78002AF3D093F845200C481A4448
:1020F00012790A7093F8452099780132D2B20139E9
:10210000402A997008D080F845209DF8070080F398
:102110001088002002B07047002380F84530F4E7B3
:10212000F08AFF1FF0B5054683B0EFF3108072B65A
:102130008DF807005D4C94F84620402A15D094F89D
:102140004730E1180133DBB2402B08BF00230132D6
:1021500081F8485084F8473084F846209DF80700FD
:1021600080F31088002003B0F0BD9DF8070080F3D5
:10217000108801F089F82078C0B2012802D001202F
:1021800003B0F0BD6378012BEDD194F84630002BFD
:1021900049D000218C4604F1CC0E2646EFF3108086
:1021A00072B68DF807008FB294F84630B3B99DF837
:1021B000070080F310883D4E4FF0010E06F1CC026F
:1021C000714600203B4684F844E000F0D7FD00282B
:1021D0004ED0002386F844300220C4E796F88820C9
:1021E000013BB018013286F84630D3B2402B90F84C
:1021F00048000EF8010B14BF86F8883086F888C0B6
:102200009DF8070080F3108801314029C6D10F46A0
:10221000D1E796F8443033B10A20FEF70BF994F871
:102220004430002BF8D1EFF3108072B68DF8070020
:1022300094F846201D49402A14D091F84730C81818
:102240000133DBB2402B08BF002381F84730531C19
:1022500080F8485084F846309DF8070080F31088D5
:10226000002080E79DF8070080F3108802207AE7BD
:1022700096F8443033B10A20FEF7DCF894F8443085
:10228000002BF8D117F00707CDD1084E4FF0010E03
:1022900006F1CC02714638463B4684F844E000F033
:1022A0006DFD0028B5D086F8447095E7F08AFF1FD1
:1022B0002DE9F04782B0002961D0634E01F1FF396A
:1022C00010FA89F9441E3546002714E095F8473086
:1022D000E9180133DBB2402B08BF0023013281F83B
:1022E000488085F8473086F846209DF8070080F33F
:1022F00010884C4517D0EFF3108072B68DF80700A8
:1023000014F8018F96F84620402ADFD19DF8070087
:1023100080F3108800F0B8FF2B78012B07D04C45D4
:102320004FF00207E7D1384602B0BDE8F0876B787E
:10233000012BF4D195F846306BB30021DFF80CE1A6
:102340008C46EFF3108072B68DF807001FFA81FA01
:1023500096F84630002B40D19DF8070080F3108896
:102360000123194686F844300020384A534600F0CD
:1023700005FD00284CD0002385F84430CFE70F46F8
:10238000D1E795F8443033B10A20FEF753F896F8B8
:102390004430002BF8D1EFF3108072B68DF80700AF
:1023A00096F84620402A13D095F84730E9180133B3
:1023B000DBB2402B08BF002385F84730531C81F85F
:1023C000488086F846309DF8070080F3108890E733
:1023D0009DF8070080F31088A1E795F88820013B5D
:1023E000A818013285F84630D3B2402B90F8480047
:1023F0000EF8010B14BF85F8883085F888C09DF869
:10240000070080F31088013140299AD18A46A7E756
:1024100095F8443033B10A20FEF70CF896F84430B2
:10242000002BF8D11AF0070AB5D10123194686F816
:1024300044305046054A534600F0A0FC0028A0D086
:1024400085F844A06BE700BFF08AFF1FBC8BFF1F1D
:102450002DE9F04390F8008083B00546B8F1000FF5
:102460005FD0624E0027344617E094F84730E118F9
:102470000133DBB2402B08BF0023013281F84880D2
:1024800084F8473086F846209DF8070080F31088CE
:1024900015F8018FB8F1000F17D0EFF3108072B666
:1024A0008DF8070096F84620402ADED19DF80700F7
:1024B00080F3108800F0E8FE2378012B09D015F88E
:1024C000018F0227B8F1000FE7D1384603B0BDE80D
:1024D000F0836378012BF2D194F846306BB300217E
:1024E000DFF80CE18C46EFF3108072B68DF8070030
:1024F0001FFA81F996F84630002B40D19DF807006D
:1025000080F310880123194686F844300020384AA9
:102510004B4600F033FC00284CD0002384F84430B4
:10252000CDE74746D1E794F8443033B10A20FDF7B0
:1025300081FF96F84430002BF8D1EFF3108072B68B
:102540008DF8070096F84620402A13D094F84730BB
:10255000E1180133DBB2402B08BF002384F8473079
:10256000531C81F8488086F846309DF8070080F3B8
:1025700010888DE79DF8070080F310889FE794F896
:102580008820013BA018013284F84630D3B2402B9A
:1025900090F848000EF8010B14BF84F8883084F8D6
:1025A00088C09DF8070080F31088013140299AD136
:1025B0008946A7E794F8443033B10A20FDF73AFF83
:1025C00096F84430002BF8D119F00709B5D1012352
:1025D000194686F844304846054A4B4600F0CEFB83
:1025E0000028A0D084F8449069E700BFF08AFF1F5C
:1025F000BC8BFF1F38B501250E4C02460B46002050
:10260000294684F8445000F0B9FB054628B1002360
:1026100084F844300625284638BD94F84430002B11
:10262000F9D00A20FDF706FF94F84430002BF8D1CA
:10263000284638BDF08AFF1FF0B5444C83B00646EB
:102640000D4600F021FE2378012B02D0052003B0B7
:10265000F0BD6378012BF9D194F8463043B3002DD7
:1026600072D0EFF3108072B68DF8070094F84670C0
:10267000002F3CD19DF8070080F3108801252946E2
:10268000002032463B4684F84450304D00F076FB43
:1026900080B1002385F844300620D8E795F844300F
:1026A00033B10A20FDF7C6FE94F84430002BF8D170
:1026B0000020CCE795F8443033B10A20FDF7BAFE8C
:1026C00094F84430002BF8D117F00707F0D101251A
:1026D0002946324638463B4684F844501B4D00F0AC
:1026E0004DFB0028DAD085F844700620AFE70027BC
:1026F000BC46711EA64694F88830234493F84830AF
:1027000001F8013F94F8883094F846200133DBB299
:10271000402B02F1FF3284F8462014BF8EF8883037
:102720008EF888C09DF8070080F310880137BFB28B
:10273000AF42A3D0EFF3108072B68DF8070094F883
:102740004630002B96D0D6E72F4697E7F08AFF1F3A
:10275000574A584B584941F23400F0B51458574D78
:1027600044F48024145041F2480641F2040794597D
:1027700024F00F049451D45944F48024D4511458B3
:1027800044F48024145093F894700E0A0024FF221D
:1027900006F0FE004FF0C00CC1F3074647F00207F9
:1027A0004FF0600E090E83F8947083F800C11A741C
:1027B00083F8802083F8882083F8842083F88C4075
:1027C00083F80CE11C7583F8984083F8C04083F8C7
:1027D000C44083F8C84083F8CC4083F8D04083F8E5
:1027E000D44083F8D84083F8DC4083F8E04083F895
:1027F000E44083F8E84083F8EC4083F8F04083F845
:10280000F44083F8F84083F8FC4083F89C0083F898
:10281000B06083F8B41083F8AC401C7783F80841AB
:1028200093F8942002F0D40242F0010283F894203D
:1028300085B02C70EFF3108072B68DF80F006C70BD
:1028400085F844404022281D2146EC7085F845401B
:10285000AC7005F059F99DF80F0080F31088EFF384
:10286000108072B68DF80F00402205F14800214615
:1028700085F8474085F8884085F8464005F044F9DA
:102880009DF80F0080F31088012500952046224610
:102890000B490C4B00F010FA38B90B4B4FF4007297
:1028A000C3F888219A6005B0F0BD284605B0F0BD98
:1028B00000700440002007400092FF1FF08AFF1FB5
:1028C000A51B00007D1B000000E100E0F0B5204DDD
:1028D00095F84630C3F14003DBB28B4283B002D29D
:1028E000022003B0F0BD41B3013910FA81F1441E5A
:1028F0002E464FF0000EEFF3108072B68DF80700F1
:1029000014F8010F95F84620402A19D096F8473060
:10291000F7180133DBB2402B02F1010287F84800BF
:1029200014BF86F8473086F847E085F846209DF8C2
:10293000070080F310888C42DDD1002003B0F0BD89
:102940009DF8070080F31088022003B0F0BD00BF9F
:10295000F08AFF1F014B1878704700BFF08AFF1FF5
:10296000014B5878704700BFF08AFF1F70B50646CC
:10297000007801F021FC0478002C40D07578437871
:10298000AB423ED0012304E08279AA4200F1050067
:1029900006D0DAB2A242194603F10103F4D311467C
:1029A000194C337A342202FB0142D0780BB393786E
:1029B000984210D0342203F0030302FB01F103EB31
:1029C000430301EB830323441D1D187969786A686A
:1029D0002B8900F00DFCD4F89C307BB1317A324663
:1029E000002912F8080B0CBF03210521BDE8704037
:1029F000184793780133DBB29370D9E770BD214655
:102A0000CEE70021CCE700BFFC8BFF1F2DE9F0478C
:102A100084B003460E468DF80F30174601F0CCFB0C
:102A2000022E05461DD05EB13048D0F89C3023B14F
:102A300031463A469DF80F00984704B0BDE8F0874C
:102A40000378002BF0D0294833463424314604FB68
:102A5000030201339170D1702A78DBB29A42F6D822
:102A6000E3E790F80080B8F1000FDDD000231C46AA
:102A700003EB83032B4401345978DA78E4B20DF187
:102A80000F0001F05DFC44452346F1DB0024A14624
:102A9000A24604EB84042C440DF10F0094F802E0EC
:102AA000A288E3786178CDF800E0CDF804A001F0C9
:102AB0001DFCA3780E4A032B04D19DF80F0061780A
:102AC00001F0AEFC6378E17843F0100343EAC111F2
:102AD00009F101095FFA89F9C9B20DF10F0000226D
:102AE00001F064FCC1454C46D3DB9DE7FC8BFF1F26
:102AF0006D290000F0B50C7804F06004202C03D0A0
:102B0000402C1ED0CD20F0BD1E464B788646174681
:102B1000232B13D8DFE803F0121230363C121212C6
:102B20001212121212121212121212121212121285
:102B300012121212121212124E1E2A24002030807B
:102B4000F0BD1F4CD4F8A040002CDBD0A446BDE85B
:102B5000F04060473A463346BDE8F04000F064B9C3
:102B60003A463346BDE8F04000F0B2B93A46334643
:102B7000BDE8F04000F076B93A463346BDE8F04093
:102B800000F0C6B93A463346BDE8F04000F0A8B9B7
:102B90003B6802224FF0000C328083F800C03C6892
:102BA000621C3A6084F801C033463A46BDE8F04002
:102BB00000F0AEB93A463346BDE8F04000F040B907
:102BC000FC8BFF1FF0B5074683B0007801F0F4FAE4
:102BD0007B7ABA7A7968009143EA0223ADF804302F
:102BE0000578002D42D07E784378B34240D001234F
:102BF00004E08179B14200F1050006D0D9B2A942C2
:102C00001C4603F10103F4D30C461A4D3B7A3422DF
:102C100002FB0452D178EBB1937899420FD0342261
:102C200003F0030302FB04F403EB430304EB83030D
:102C30002B44187959799A689B8900F0D9FAD5F80C
:102C40009C302BB13A7A52B9387803216A469847BA
:102C500003B0F0BD93780133DBB29370DDE73A4601
:102C6000052112F8080B984703B0F0BD2C46CCE7BD
:102C70000024CAE7FC8BFF1F10B50E49437A827A05
:102C8000D1F89C40416882B043EA02230091ADF83C
:102C900004302CB1037A2BB9007804216A46A0478E
:102CA00002B010BD0246052112F8080BA04702B081
:102CB00010BD00BFFC8BFF1F2DE9F8430F469DF8A8
:102CC000209016461D46044601F076FA027801323D
:102CD0004B468046D2B22046002101F0DFFA814601
:102CE00010B14846BDE8F88320461849184A00F05C
:102CF000BFF998F80030D3B1DFF858E048464946AC
:102D00004FF0340C03B203EB830343440CFB00F29B
:102D100093F801900EF8029072449B785370917072
:102D2000D170013098F80030C0B28342EAD8204612
:102D3000294600F073F881460028D2D1054B484659
:102D4000C3F89C70C3F8A060BDE8F8830D2A0000AA
:102D5000F52A0000FC8BFF1F08B5074B0022C3F8C3
:102D60009C20C3F8A02000F0D9F900B108BDBDE84F
:102D7000084001F0B3BA00BFFC8BFF1F2DE9F047FC
:102D80001F460E469146804601F016FA0378002B46
:102D90003DD04278B2423CD0012404E08579B5426E
:102DA00000F1050006D0E5B29D42224604F101047F
:102DB000F4D32A463421184D01FB02F2AC18E17815
:102DC000A0780B1ADBB2042B16D001F003030131FB
:102DD00003EB4303C9B202EB8302081AAB18C0B27B
:102DE000012883F804805E71C3F808909F81E17028
:102DF00005D00020BDE8F087C120BDE8F08740463F
:102E000031464A463B46BDE8F04700F0F1B91A4664
:102E1000D0E70022CEE700BFFC8BFF1F014B002054
:102E200019607047A08CFF1F10B40B79034C194632
:102E300023715DF8044B01F0C3B900BFA08CFF1FE4
:102E400010B5002482B01C800B79054C02AA2371B6
:102E500042F8041D194601F0C1F902B010BD00BFCF
:102E6000A08CFF1F2DE9F0414FF00008A3F800806F
:102E70008B78154C154E94F804E06371C3F340024F
:102E8000570062F3000703F00105324603210A23CD
:102E90006572377286F804E027720646FFF76EFF08
:102EA000256845B1637903F0020303F0FF02304661
:102EB00023B92121A8470020BDE8F0814246222104
:102EC000A8470020BDE8F081A08CFF1F0880FF1FED
:102ED00000201880014B4A885A817047A08CFF1F40
:102EE00030B402241C804C88084D09792971012CCA
:102EF00005D0022C06D00020188030BC704730BCB2
:102F000001F08EB930BC01F097B900BFA08CFF1F53
:102F100030B402241C804C88084D09792971012C99
:102F200005D0022C06D00020188030BC704730BC81
:102F300001F08EB930BC01F09DB900BFA08CFF1F1D
:102F400030B4064B064C1A791D7A2271257222463E
:102F500003210A2330BCFFF711BF00BFA08CFF1F65
:102F60000880FF1F0246034B12F8080B1B6805215F
:102F7000184700BFAC8CFF1F70B5094D04462A1DD1
:102F8000012101F0F9F920460121802201F00EFA19
:102F90002B6820780A210022BDE87040184700BF46
:102FA000AC8CFF1F30B583B001210DF10702044640
:102FB00001F0E2F99DF80730074D802B06D02B6811
:102FC00020780B210022984703B030BD20462A7993
:102FD000012101F0EBF9F2E7AC8CFF1F43680521FA
:102FE0005A7801F0E3B900BF70B5002182B0012228
:102FF0000C460546164601F0A3F9334621462846FD
:1030000000940196102201F071F9214622462846CB
:1030100001F096F9234621468DE8500028461022FB
:1030200001F064F931462846022201F0BFF9324628
:103030002846062101F0BAF922462846902101F0DF
:10304000B5F9044B28781B682146224602B0BDE83A
:1030500070401847AC8CFF1F427802B17047C178AE
:10306000C90141F0100101F0900101F09FB900BFCA
:1030700070B582B003460E468DF8073001F07EFC35
:103080001F4D04462E60002836D11E4A9DF80700C9
:10309000102101F0C5F9122104461B4A9DF80700D2
:1030A00001F0BEF914210443184A9DF8070001F00D
:1030B000B7F9E4B213210443154A9DF8070001F063
:1030C000AFF9E4B217210443124A9DF8070001F05A
:1030D000A7F902AEE4B20443162116F8010D0E4A18
:1030E00001F09EF9E4B2044301210322304601F0CD
:1030F0005DF90323E4B22B71204602B070BD00BF1E
:10310000AC8CFF1FE92F0000DD2F0000792F00009D
:10311000A52F000059300000652F000030B583B0A6
:1031200002AD184B05F8010D0022102128461A6047
:1031300001F078F912210446284601F073F91421B0
:103140000443284601F06EF9E4B2132104432846F3
:1031500001F068F9E4B217210443284601F062F94E
:10316000E4B204431621284601F05CF9E4B220439E
:1031700010F0FF0003D19DF8070001F00BFC03B035
:1031800030BD00BFAC8CFF1F30B585B004AC012151
:1031900004F8090D0DF10E02204601F0EDF820466D
:1031A00006210DF10F0201F0E7F89DF80E008028CE
:1031B00001D005B030BD9DF80F309B07F9D59DF8C3
:1031C000070000F0F7FF0128054603D09DF80E0028
:1031D00005B030BD72B6204600F066FC00232046E4
:1031E00029461A468DF80E3001F0E0F862B6EDE798
:1031F0002DE9F04184B004AC054604F8030D0F46F8
:10320000164601210DF10E0220468DF807501D468D
:1032100001F0B2F8204606210DF10F0201F0ACF8E2
:103220009DF80E30802B09D0394632462B460DF1E1
:10323000070000F0CDFB04B0BDE8F0819DF80F3031
:1032400003F0020303F0FF00002BF4D09DF80D0003
:1032500000F0B0FF0128804608D09DF80E30802B8A
:1032600008BF0020E0D104B0BDE8F08172B620466E
:1032700000F01AFC0023204641461A468DF80E3015
:1032800001F094F862B6E8E7704700BF2DE9F0411D
:10329000334E344C034630464FF0000884F800812A
:1032A0004FF4107200F8043B06F580650F46FF21CD
:1032B00004F02AFC4FF4806241462846C6F8445286
:1032C00004F022FC94F80C3143F0800384F80C31B4
:1032D000224692F80C3123491B06FAD4224BFF22D6
:1032E0001A7091F80C31214A43F0400381F80C31F7
:1032F000136887BB23F0004313601A4B1C49C6F8C0
:1033000000182A0AC5F307461024012002F0FE0225
:103310002D0EBF2183F89C2083F8B06083F8B45051
:1033200083F8084183F8940083F8801093F8002113
:1033300002F07F0283F8002193F88420024383F88F
:10334000842093F884208421224383F884201977F1
:103350000020BDE8F08143F000431360CDE700BFDB
:10336000008EFF1F002007401280FF1F00700440E6
:103370000094FF1F0D4B93F80C21BF210A4083F8E6
:103380000C2183F8801093F8842002F0FE0283F869
:10339000842093F8942002F0FE0283F894201A7F90
:1033A00002F07B021A770020704700BF0020074020
:1033B0002DE9F0430B464C48B3F803501C789E7837
:1033C00003C883B002AFB5F5007F07E9030005D954
:1033D00000200221D87019714FF40075062C13D803
:1033E0004FEA840E012E5FFA8EF111D049084FEAA0
:1033F000C10C3E4F0CEB010007EB40004FF6FF788D
:10340000B0F80490C14506D0952003B0BDE8F08324
:103410000231C9B2EAE793F80180B8F1030FF3D89B
:10342000012EF1D80C3090F80780B8F1FF0F6144FD
:1034300006BF4FF0000880F8078008F0010807EB8E
:1034400041004EEA460141EA080108BFB3F80350C3
:10345000D7F800E88580C9B2C1748274C0F806E06C
:103460005A78D7F8445242754AB2067505EBC20144
:1034700000F10C0CB3F8030048800820C1F804E008
:1034800005F832009CF80720B3F8038082F00102AF
:1034900005EBC2014820A1F80280C1F804E005F85C
:1034A0003200B3F803207244C7F800283EB99CF8F4
:1034B000071015F8312062F07F0205F8312002AACA
:1034C00002EB860624B20A495B7856F8082C11F8FC
:1034D0002400012B0CBF134642F001030343DBB26F
:1034E00001F82430002090E788A60000008EFF1F1E
:1034F000C0200740062925D88B00012A30B4DBB252
:1035000025D05B08134A03EBC30302EB43034FF6DA
:10351000FF759988A94217D0D2F84412DA7C14B208
:1035200082F0010211F8340000F07F0001F834004D
:1035300011F8320000F07F0001F83200DD81002038
:1035400030BC7047C4207047C42030BC7047023381
:10355000DBB2D6E7008EFF1F06294AD88B00012A6E
:103560002DE9F041DBB246D05B08DAB2D000254C41
:10357000851804EB45054FF6FF76AD88B5423ED081
:1035800003EBC30304EB43034FF6FF7C9E881D4F00
:10359000664519D0DD7CD7F844620FFA85F885F0CE
:1035A000010516F838E00EF07F0E06F838E016F840
:1035B000358000EB020E08F07F0806F8358007EB37
:1035C0004E07A3F80EC0BD880F4FD4F80038024450
:1035D00004EB420209B24FF6FF76002007F8210003
:1035E00022F8046F5D1B56809680C4F80058BDE831
:1035F000F081962070470233C3F34603B5E7962067
:10360000BDE8F081008EFF1FC0200740062970B47E
:1036100042D88900012AC9B246D00B46C3F34703FA
:10362000DC002448E51800EB45054FF6FF76AD8831
:10363000B54204BF7F234FF47E74234400EB430361
:10364000DB7CFF2B26D0012A31D0490801EBC101D8
:1036500000EB41014FF6FF768888164AB04220D031
:10366000C87CD2F8442205B280F0010012F835403F
:1036700004F07F0402F8354012F8304004F07F0473
:1036800002F83040CE811BB212F8331061F07B019A
:1036900002F8331070BC7047064A92F80139FF2BCC
:1036A000F8D0D2F84422EEE78B1CDBB2B6E7023149
:1036B000C9B2CAE7008EFF1F0629F0B569D88B0092
:1036C000012ADBB200F086805B08D800434CC518A5
:1036D00004EB45054FF6FF76AD88B54204BF7F2366
:1036E0004FF47E70034404EB43033C4FD87CFF2827
:1036F0004ED00EB23A4D002950D05B7D13F1FF330E
:1037000018BF0123012A35D015F826E043F018032D
:1037100043EA0E036FF3410305F82630D7F844520D
:10372000002305F830309ABB062943D97F214FF496
:103730007E73194404EB4101CB7CFF2B28D08A888F
:103740004FF6FF70824223D083F0010015F830005D
:1037500000061DD418B205EBC0046280D1F8062023
:10376000626015F8333003F0400363F0770305F827
:103770003030F0BD15F8262043F0140313436FF3E7
:10378000410305F82630D7F84432002203F83020F0
:10379000F0BD124C7F234FF47E70A3E715F826305E
:1037A00061F3410305F82630D7F8445205F830108C
:1037B000002AEDD14B0003F07E01CB005A1804EB38
:1037C00042024FF6FF709288824204BF7F214FF47D
:1037D0007E73AEE70233DBB276E700BF008EFF1FD9
:1037E000C0200740062930B41ED8490001F07E01F0
:1037F000C800104B441803EB44044FF6FF75A4882F
:10380000AC4204BF7F214FF47E70014403EB4101C1
:10381000D3F84432C97C03EBC10330BC5B68196840
:103820005B68536011607047024B7F214FF47E70DC
:10383000EBE700BF008EFF1F06291BD88800012A76
:1038400010B4C0B229D04308174A03EBC30302EBFC
:1038500043034FF6FF749B88A34207D009B2134B72
:1038600013F82130DBB213F00C0F05D105205DF801
:10387000044B7047052070479B0711D4D2F844329F
:1038800013F83020D2090DD140F0010013F8303088
:10389000DB0914BF03200020E9E70230C0B2D2E701
:1038A0000120E4E70320E2E7008EFF1FC02007406D
:1038B000062810B420D880000129C0B221D04008C9
:1038C000C200114B111803EB41014FF6FF748988B8
:1038D000A14204BF7F204FF47E72104403EB4000EE
:1038E000094AC37CFF2B04D0D2F84422002102F8FD
:1038F00033105DF8044B7047034B7F204FF47E720A
:10390000EBE70230C0B2DAE7008EFF1F0629F0B500
:1039100045D8490001F07E01CC002C48651800EB29
:1039200045054FF6FF76AD88B54204BF7F214FF4C1
:103930007E74214400EB410101F10C06F479234827
:10394000FF2C2AD0B1F804E0D0F844724FF6FF7093
:10395000864501F1040120D084F0010017F83050B1
:1039600025F07F0505F0FF00BDB9EBB125B207EBEF
:10397000C50C9E4528BF9E467380C1F80620B080C6
:10398000ACF802E0CCF8042017F8343003F0400320
:1039900063F0770307F83530F0BD9420F0BD0B4895
:1039A0007F214FF47E74C4E722B207EBC203A3F871
:1039B00002E0D1F80210596017F8343003F04003E8
:1039C00063F0770307F83230F0BD00BF008EFF1FB1
:1039D00006293BD888002DE9F0410230C0F34600AB
:1039E000204D00EBC00005EB40004FF6FF748688C9
:1039F000A64200F1040C26D000F10C04D5F8447264
:103A000094F807E017F83E0000061CD416480DB2E3
:103A100010F8255005F0020505F0FF009DB99BB296
:103A20000FFA8EF807EBC8059E42A8BF1E466380BA
:103A3000CCF80620A0806E806A6049B9C82307F8D8
:103A40003830BDE8F0819320BDE8F08193207047C5
:103A500017F83E3003F0400363F0770307F838307F
:103A6000BDE8F081008EFF1FC0200740044B0548D1
:103A70000A46012183F898200A4600F097BC00BF4F
:103A800000200740008EFF1F054B064800218022C2
:103A900083F8941083F80C210121FF2200F086BCEA
:103AA00000200740008EFF1F10B51A4B93F800212D
:103AB00002F07F0283F8002193F80C2102F0DF026C
:103AC00083F80C2193F8802042F0200283F88020B4
:103AD00093F8842002F0DF0283F8842093F8942086
:103AE00002F0DF0283F8942093F8942042F004025D
:103AF00083F8942044F62064013CA4B200F05EFFF9
:103B0000002CF9D1034A92F8943003F0FB0382F8B9
:103B1000943010BD002007402DE9F04FD34DD44F15
:103B200095F880403B7895F884C095F890E085B092
:103B300001218DF80430FF2600230DEB01023846E9
:103B40008DF8063002938DF80D308DF80E308DF81B
:103B500007308DF80C300CEA04045FFA8EF88DF80B
:103B600001608DF8056000F007FC95F80C31DA076C
:103B700004D59DF80130802B00F05E81630711D4DD
:103B8000E60723D4250700F1D380A00700F1B78012
:103B9000E10600F19680A20664D4230672D405B033
:103BA000BDE8F08FB14991F8A40091F8A02004ABD2
:103BB00042EA0022042081F8800023F80E2D122012
:103BC00001A9029300F040FCE607DBD5A74CA94809
:103BD000BF26012384F8803084F8886094F89430FC
:103BE000002543F0020384F89430FF2184F89850B4
:103BF0004FF4107284F8005103F086FF2946D7F87D
:103C000044024FF4806203F07FFF9B4AD7F84432AE
:103C1000FF21117094F8942002F0FD0284F89420A2
:103C200094F80C219F2142F0400284F80C2184F882
:103C30008C6084F8841094F8942002F0DF0284F8F9
:103C4000942003F5007301A91020C7F8003800F094
:103C5000FBFB94F8943003F0DF0384F8943005B054
:103C6000BDE8F08F814D202385F88030132001A915
:103C700000F0EAFB95F8843003F0DF0385F8843028
:103C800023068CD5FF2301A810210DF102028DF827
:103C9000053000F071FB9DF80230012B00F04F81E0
:103CA000724C802384F8803001A9172000F0CCFBEF
:103CB00094F8943003F0DF0384F8943005B0BDE845
:103CC000F08F6A4D1023202285F88020142085F87B
:103CD000803001A900F0B8FB95F80C3143F02003C7
:103CE00085F80C3195F8003143F0800385F80031F8
:103CF00095F8843043F0200385F884304BE75B4D22
:103D0000022385F8803095F8883095F88C201620AD
:103D1000134001A98DF80C3000F096FBBF2385F805
:103D2000883095F8943003F0DF0385F894302FE75E
:103D30004FEA18124D4B0820C8F3C001062A83F839
:103D400080008DF805208DF8071040F282807F26D4
:103D50004FF0FE0EFF23D7F84452DFF814C1F100F4
:103D60008A1907EB420205EBC308D07CD8F804900F
:103D7000CDF80890B8F80280ADF80D8080F0010011
:103D8000D07415F83320C2F3801282F00102920140
:103D900005F83E209DF807204FEACE08012A05EBE2
:103DA00008099DF8052069D05AB915F8333003F099
:103DB0003C03342B00F0CF802F4B1A78012A00F0FF
:103DC0002781881907EB400000F10C0CBCF8022099
:103DD0004FF6FF739A4200F0AF80BDF80DA0BCF81B
:103DE000043053449BB2ACF804308088824500F024
:103DF0008A804AB1B2FBF0FC00FB1C2C1FFA8CFC41
:103E0000BCF1000F00F08D80314407EB41079DF8B5
:103E10000500D7F80A2002924FF6FF71ADF80D3079
:103E2000F98101A900F010FB104A92F8943003F0D8
:103E3000DF0382F89430A8E695F8003103F07F03A1
:103E400085F8003195F80C3103F0DF0385F80C316B
:103E500094E6C8F3800303EB8203002975D183F055
:103E6000010E5FFA8EFEC3F3470674E70020074099
:103E7000008EFF1F048EFF1F1280FF1F10463AB9ED
:103E8000DFF838A29AF80030002B71D0012BC8D18E
:103E9000881907EB400000F10C0CBDF80DB0BCF820
:103EA0000430BCF802A05B449BB25345ACF804302C
:103EB00019D28088314407EB4107C3EB0A0AD7F8CF
:103EC0000A208245134401DC1FFA8AF0A9F8020097
:103ED000C9F8043015F83E3003F0400363F077036F
:103EE00005F80830A0E780885FFA8BFB584500F0A2
:103EF000DD80314407EB4107ADF80D30D7F80A30CB
:103F0000029310468DE79A427FF673AFD21A82422F
:103F10003144D8BF90B207EB410728BBD7F8063031
:103F2000D4E701EB060C07EB4C0C9CF812C0BCF17B
:103F3000010F7FF469AFE9E79DF8050071E7002202
:103F40008DF807308DF80520AAE60233DBB283F046
:103F5000010E5E08FFE60122029B8DF806201B7809
:103F6000564ADB0913702CE7D7F80A201344ADE753
:103F7000BCF804304FF6FF72FF2093428AF800002D
:103F800013D09CF813300FFA83FA83F0010315F86D
:103F90003A0000F07F0005F83A0015F8330000F011
:103FA0007F0005F83300ACF80E20002305F8083038
:103FB000BB884FF6FF7083420CBF7F23002303EBC7
:103FC000C30307EB4303DA7CFF2A1AD0B3F804C01B
:103FD000844516D082F0010015F83000000610D498
:103FE00010B205EBC00AAAF802C0D3F80630CAF82E
:103FF000043015F8323003F0400363F0770305F81E
:1040000030309DF805201046002A7FF441AF08E7C4
:10401000BCF816004FF6FF724FF0FF0A904283F88B
:1040200000A013D09CF825300FFA83FA83F0010327
:1040300015F83A0000F07F0005F83A0015F8330053
:1040400000F07F0005F83300ACF82020002305F8CD
:104050000830BB884FF6FF7083420CBF7F230023DC
:1040600003EBC30307EB4303DA7CFF2A3FF4A9AE5B
:10407000B3F804C084453FF4A4AE82F0010015F803
:10408000300000063FF59DAE10B205EBC00AAAF85D
:1040900002C0D3F80630CAF8043015F8323003F005
:1040A000400363F0770305F830308AE69CF806C0D9
:1040B000BCF1010F7FF41DAFFCE600BF1280FF1FB3
:1040C0000B4611461A4603F01FBD00BF032910B46A
:1040D00017D0072903D9CD205DF8044B70471E4B3C
:1040E000019803EB8102126A0260002AF3D003EB0D
:1040F0004101029AB1F84030138000205DF8044B72
:104100007047BBB140F209418B421DD001221346DA
:1041100004215C001048234400EB83030020DC688A
:104120001B696158019C21609B5C029A5DF8044BFD
:10413000138070470199094A0A601846029B5DF88E
:10414000044B04221A807047022A92BF9100042176
:1041500001220023DDE700BF90A600001480FF1FAE
:10416000012901D9CD207047024B5B5C1370002000
:10417000704700BF0496FF1F01299DBF024B00201E
:104180005A54CD20704700BF0496FF1F01298CBFF1
:1041900000200120704700BF054B1A788A4205D0E5
:1041A0005B78581AB0FA80F04009704701207047D8
:1041B0000496FF1F0020704700487047E0A60000EB
:1041C000012901D9CD207047034BC1EBC10119442E
:1041D00011600020704700BF1880FF1F012901D91E
:1041E000CD2070470D481368C1EBC10101441B7A13
:1041F0000B7113685B7A4B7113689B7A8B71136830
:10420000DB7ACB7113681B7B0B7213685B7B4B7281
:1042100013689B7B8B720020704700BF1480FF1FC8
:10422000012901D9CD207047024B03EB41011160F8
:10423000002070470896FF1F012901D9CD20704743
:10424000024B03EB41011160002070470C96FF1FE9
:10425000012901D9CD207047054B106803EB4101BE
:1042600003780B7113685B784B710020704700BFB7
:104270000496FF1F012901D9CD207047054B106816
:1042800003EB410103780B7213685B784B720020DB
:10429000704700BF0496FF1F00BF7047013AF8B592
:1042A000D4B2062C01D99920F8BD0B4F0646FF2148
:1042B000381D07221D463C707C7003F025FC07F179
:1042C0000C000521072203F01FFC30462946BDE8FB
:1042D000F840FEF7DBBF00BF1096FF1F024B002225
:1042E0001A70FFF747B800BF1096FF1FF0B5134CC8
:1042F00083B066789DF820709DF824C00D469646E0
:104300001EB911B1952003B0F0BD00788DF80230D0
:10431000624669468DF80050ADF803E08DF80170F3
:10432000FFF746F89DF80030002BECD00028EAD1CA
:104330006378013B637003B0F0BD00BF1096FF1FB0
:1043400070B50C4C66782578AE420AD00D460078E0
:10435000FFF702F925B118B963780133637070BDB6
:1043600070BD09B1962070BD0078BDE87040FFF7C0
:10437000F3B800BF1096FF1F4B1E062B0DD9CB06BE
:1043800001D48220704701F00F010629F9D8064BAD
:10439000194400200B7B13707047034B1944002015
:1043A000CB781370704700BF1096FF1FF0B54B1EFF
:1043B000062B83B0154625D9CB0602D4822003B044
:1043C000F0BD01F00F07062FF8D8012A4FEAD114EB
:1043D0001ED0124B92B9DA19127B012A0ED139463E
:1043E000224601930646FFF767F9019B37B930462D
:1043F00084F001023946FFF75FF9019B1F4400205A
:104400003D73DCE7054B19440020CA7003B0F0BDD2
:1044100022463946FFF7FAF8004BEFE71096FF1FE8
:1044200000207047062905D9A1F11003072B01D9F7
:10443000C4207047034B53F82130002B0CBFC4201D
:104440000020704708A70000102870B504460D46EC
:1044500007D00B4B53F824300BB128469847002067
:1044600070BD084EFF2133787370301D072203F0B2
:104470004BFB06F10C000521072203F045FBE8E7A2
:1044800008A700001096FF1F30B585B004A90225CB
:1044900001F8090D14461D800DF10F020846052193
:1044A000FFF76AFF034B9DF80F201A80236005B0C9
:1044B00030BD00BF2496FF1F30B585B004A901258B
:1044C00001F8090D14461D800DF10F020846042164
:1044D000FFF752FF034B9DF80F201A800020236046
:1044E00005B030BD2496FF1F70B5002484B01C8039
:1044F0004988ADF80E1003468DF80730FFF746FEE9
:1045000018B90425284604B070BDBDF80E20B2FAD3
:1045100082F20DF1070052090121FFF747FF9DF8D4
:104520000E200B4E0DF107000421FFF73FFF7368CB
:1045300005460DF10E029DF80700012198479DF8F0
:1045400007007368224602219847284604B070BDD0
:104550002496FF1F30B583B002AA002402F8010D93
:104560000D461C80104601210422FFF71FFF034B5C
:104570006A881A72204603B030BD00BF2496FF1F20
:1045800010B582B000928C884A880193110A2346A4
:10459000D2B2FFF79BFD02B010BD00BFF0B587B0EF
:1045A0000D468DF80F004FF0000E032416460DF156
:1045B0000F0004AA01218DF810401F46CDF814E029
:1045C000FFF7DAFE2A78144007D0012C44D0022CE1
:1045D0002ED02A4D356007B0F0BD0DF111020DF15E
:1045E0000F000621FFF7C8FE9DF811E0234D9DF84E
:1045F0000F0005AA0DF112030EF0030E8DE80C005A
:10460000022122462346A5F800E0FFF75FFD059B47
:10461000DB7913F0400F2B8814BF43F0010323F024
:1046200001039BB202222B803A80356007B0F0BDB7
:104630002979124D41F01001C9B20DF10F000DF1B1
:104640001202FFF799FE9DF8123003F001032B8050
:104650003C80356007B0F0BD9DF81030AA88074D4A
:10466000012B06D0002202232A803B80356007B050
:10467000F0BD12F0FF0FF5D0CD20ABE72496FF1F61
:1046800070B500221A800B784A7884B013F00303C7
:104690000C468DF80700C2F3400607D116BB4E88C2
:1046A000012E3FD0CD25284604B070BD022BF9D194
:1046B00009798DF80F100DF1070041F01001324615
:1046C000FFF774FE6378002E14BF07210821012B29
:1046D000054641D0254B9DF807005B680DF10F02A0
:1046E0009847E0E74B88013B9BB2012BDAD80DF1EC
:1046F000070006210DF10F02FFF73EFE05460028D8
:10470000D1D1A2789DF80F3006FA02F21343DBB242
:104710000DF107001A4606218DF80F30FFF746FE0F
:104720000546C0E70DF1070006210DF10F02FFF766
:1047300023FE05460028B6D1A2789DF80F3096409A
:1047400023EA06060DF10700324606218DF80F60B8
:10475000FFF72CFE0546A6E79DF80F1001F00F00AD
:10476000C909FFF7A5F80821B4E700BF2496FF1F89
:1047700010B500241C800B7803F00303012B01D03B
:10478000042010BD0B4609799A78FFF7F5FC204606
:1047900010BD00BF70B50C7804F00304012C01D0EB
:1047A000042070BD044E1C80154609793246FFF77F
:1047B000D7FC2E6070BD00BF2496FF1FF0B50446E5
:1047C00085B000260DF1060201218DF806600396E2
:1047D000FFF7D2FDA278012A3AD09DF80630042BCB
:1047E00000F08A80624D95F90C30002B26DBE378CF
:1047F00023BBEE6B002E75D0B4F809302078083357
:10480000ADF80A3005F1140103AA0DF10A03B0470F
:1048100021788DF80910CD2867D0BDF80A306A8A52
:10482000934284BF1346ADF80A200846039A00213C
:10483000FEF7DEFC95F90C30002B01DB05B0F0BD76
:1048400000210A460B460DF10900FFF75FF8F5E776
:104850006368474D5968186805F10C073B4603C368
:10486000297B6B8A11F0600F5AD16B7B414951F85B
:10487000236076B39DF80620022A2AD803EB43036F
:104880000B44134493F83430012B22D10DF10A0369
:104890003946207803AAB047034620788DF80800EF
:1048A000CD2B19D0BDF80A306A8A934284BF1346D3
:1048B000ADF80A200021039AFEF79AFC95F90C3016
:1048C000002BBBDA00210A460B4602A8FFF71EF8B0
:1048D000B4E723788DF8083002A890210122FFF771
:1048E00065FDABE723788DF809300DF109009021C3
:1048F0000122FFF75BFDA1E704AD237805F8063D33
:104900001B4C2846217AFFF7B1F801210A462846B8
:10491000FFF74CFD2846227A0321FFF747FD8DE77C
:10492000202BADF80A301AD873B10A060CD497E8D8
:10493000030005F1140282E8030005F11C02204681
:104940003146FEF7E3FF79E7EE6B002EC1D00DF1A3
:104950000A032078084903AAB04703469DE704A844
:10496000237800F8093D9021FFF720FD66E700BF9E
:104970002496FF1F68A700003096FF1F034B596065
:10498000DA630021024AFFF74BBD00BF2496FF1FE8
:10499000BD47000010B582B002AA002302F8010D45
:1049A000044C104619466360E363FFF73BFD02B019
:1049B00010BD00BF2496FF1F00207047034B4AF232
:1049C00002614BF2804299819A8170470020054034
:1049D00081F0004102E000BF83F0004330B54FEAB0
:1049E00041044FEA430594EA050F08BF90EA020F1D
:1049F0001FBF54EA000C55EA020C7FEA645C7FEAB0
:104A0000655C00F0E2804FEA5454D4EB5555B8BFD2
:104A10006D420CDD2C4480EA020281EA030382EA43
:104A2000000083EA010180EA020281EA0303362DD5
:104A300088BF30BD11F0004F4FEA01314FF4801CA8
:104A40004CEA113102D0404261EB410113F0004FBA
:104A50004FEA03334CEA133302D0524263EB430371
:104A600094EA050F00F0A780A4F10104D5F1200E0F
:104A70000DDB02FA0EFC22FA05F2801841F100016A
:104A800003FA0EF2801843FA05F359410EE0A5F13E
:104A900020050EF1200E012A03FA0EFC28BF4CF06F
:104AA000020C43FA05F3C01851EBE37101F0004525
:104AB00007D54FF0000EDCF1000C7EEB00006EEB32
:104AC0000101B1F5801F1BD3B1F5001F0CD34908BC
:104AD0005FEA30004FEA3C0C04F101044FEA445213
:104AE00012F5800F80F09A80BCF1004F08BF5FEA9A
:104AF000500C50F1000041EB045141EA050130BD7A
:104B00005FEA4C0C404141EB010111F4801FA4F11C
:104B10000104E9D191F0000F04BF01460020B1FA71
:104B200081F308BF2033A3F10B03B3F120020CDAA9
:104B30000C3208DD02F1140CC2F10C0201FA0CF087
:104B400021FA02F10CE002F11402D8BFC2F1200CEC
:104B500001FA02F120FA0CFCDCBF41EA0C019040A2
:104B6000E41AA2BF01EB0451294330BD6FEA0404EB
:104B70001F3C1CDA0C340EDC04F11404C4F12002D6
:104B800020FA04F001FA02F340EA030021FA04F3E8
:104B900045EA030130BDC4F10C04C4F1200220FA3F
:104BA00002F001FA04F340EA0300294630BD21FA7D
:104BB00004F0294630BD94F0000F83F4801306BF43
:104BC00081F480110134013D4EE77FEA645C18BF37
:104BD0007FEA655C29D094EA050F08BF90EA020FCE
:104BE00005D054EA000C04BF1946104630BD91EAC6
:104BF000030F1EBF0021002030BD5FEA545C05D1C9
:104C00004000494128BF41F0004130BD14F5800407
:104C10003CBF01F5801130BD01F0004545F0FE417B
:104C200041F470014FF0000030BD7FEA645C1ABFB0
:104C3000194610467FEA655C1CBF0B46024650EAE7
:104C4000013406BF52EA033591EA030F41F4002113
:104C500030BD00BF90F0000F04BF0021704730B599
:104C60004FF4806404F132044FF000054FF000016E
:104C700050E700BF90F0000F04BF0021704730B52F
:104C80004FF4806404F1320410F0004548BF404204
:104C90004FF000013EE700BF42004FEAE2014FEA59
:104CA00031014FEA02701FBF12F07F4393F07F4F34
:104CB00081F06051704792F0000F14BF93F07F4F66
:104CC000704730B54FF4607401F0004521F00041A9
:104CD00020E700BF50EA010208BF704730B54FF02F
:104CE00000050AE050EA010208BF704730B511F034
:104CF000004502D5404261EB41014FF4806404F16C
:104D000032045FEA915C3FF4DCAE4FF003025FEAED
:104D1000DC0C18BF03325FEADC0C18BF033202EB75
:104D2000DC02C2F1200300FA03FC20FA02F001FACF
:104D300003FE40EA0E0021FA02F11444C1E600BF6E
:104D400070B54FF0FF0C4CF4E06C1CEA11541DBF21
:104D50001CEA135594EA0C0F95EA0C0F00F0DEF8EC
:104D60002C4481EA030621EA4C5123EA4C5350EAD1
:104D7000013518BF52EA033541F4801143F4801322
:104D800038D0A0FB02CE4FF00005E1FB02E506F0B3
:104D90000042E0FB03E54FF00006E1FB03569CF008
:104DA000000F18BF4EF0010EA4F1FF04B6F5007F0E
:104DB00064F5407404D25FEA4E0E6D4146EB060680
:104DC00042EAC62141EA55514FEAC52040EA5E5009
:104DD0004FEACE2EB4F1FD0C88BFBCF5E06F1ED8B3
:104DE000BEF1004F08BF5FEA500E50F1000041EBEA
:104DF000045170BD06F0004646EA010140EA020097
:104E000081EA0301B4EB5C04C2BFD4EB0C0541EAB8
:104E1000045170BD41F480114FF0000E013C00F3CD
:104E2000AB8014F1360FDEBF002001F0004170BDF1
:104E3000C4F10004203C35DA0C341BDC04F114040A
:104E4000C4F1200500FA05F320FA04F001FA05F296
:104E500040EA020001F0004221F0004110EBD37063
:104E600021FA04F642EB06015EEA430E08BF20EA8F
:104E7000D37070BDC4F10C04C4F1200500FA04F332
:104E800020FA05F001FA04F240EA020001F00041C4
:104E900010EBD37041F100015EEA430E08BF20EA37
:104EA000D37070BDC4F1200500FA05F24EEA020E7F
:104EB00020FA04F301FA05F243EA020321FA04F0AE
:104EC00001F0004121FA04F220EA020000EBD37065
:104ED0005EEA430E08BF20EAD37070BD94F0000F65
:104EE0000FD101F00046400041EB010111F4801F99
:104EF00008BF013CF7D041EA060195F0000F18BF4A
:104F0000704703F00046520043EB030313F4801F85
:104F100008BF013DF7D043EA0603704794EA0C0F3F
:104F20000CEA135518BF95EA0C0F0CD050EA410655
:104F300018BF52EA4306D1D181EA030101F00041D2
:104F40004FF0000070BD50EA410606BF10461946FA
:104F500052EA430619D094EA0C0F02D150EA013606
:104F600013D195EA0C0F05D152EA03361CBF104647
:104F700019460AD181EA030101F0004141F0FE41E6
:104F800041F470014FF0000070BD41F0FE4141F46A
:104F9000780170BD70B54FF0FF0C4CF4E06C1CEA6A
:104FA00011541DBF1CEA135594EA0C0F95EA0C0F1F
:104FB00000F0A7F8A4EB050481EA030E52EA0335DA
:104FC0004FEA013100F088804FEA03334FF08055FB
:104FD00045EA131343EA12634FEA022245EA111528
:104FE00045EA10654FEA00260EF000419D4208BFD9
:104FF000964244F1FD0404F5407402D25B084FEA86
:105000003202B61A65EB03055B084FEA32024FF431
:1050100080104FF4002CB6EB020E75EB030E22BF8E
:10502000B61A754640EA0C005B084FEA3202B6EB4E
:10503000020E75EB030E22BFB61A754640EA5C00FD
:105040005B084FEA3202B6EB020E75EB030E22BF8D
:10505000B61A754640EA9C005B084FEA3202B6EB8E
:10506000020E75EB030E22BFB61A754640EADC004D
:1050700055EA060E18D04FEA051545EA16754FEAAF
:1050800006164FEAC30343EA52734FEAC2025FEACD
:105090001C1CC0D111F4801F0BD141EA00014FF05C
:1050A00000004FF0004CB6E711F4801F04BF01432D
:1050B0000020B4F1FD0C88BFBCF5E06F3FF6AFAE49
:1050C000B5EB030C04BFB6EB020C5FEA500C50F1D9
:1050D000000041EB045170BD0EF0004E4EEA11315C
:1050E00014EB5C04C2BFD4EB0C0541EA045170BD63
:1050F00041F480114FF0000E013C90E645EA060EA7
:105100008DE60CEA135594EA0C0F08BF95EA0C0FD4
:105110003FF43BAF94EA0C0F0AD150EA01347FF41C
:1051200034AF95EA0C0F7FF425AF104619462CE7F3
:1051300095EA0C0F06D152EA03353FF4FDAE104656
:10514000194622E750EA410618BF52EA43067FF4A7
:10515000C5AE50EA41047FF40DAF52EA43057FF437
:10516000EBAE12E74FF0FF3C06E000BF4FF0010C42
:1051700002E000BF4FF0010C4DF804CD4FEA410CA6
:105180007FEA6C5C4FEA430C18BF7FEA6C5C1BD073
:1051900001B050EA410C0CBF52EA430C91EA030FF4
:1051A00002BF90EA020F0020704710F1000F91EA51
:1051B000030F58BF994208BF90422CBFD8176FEA1F
:1051C000E37040F0010070474FEA410C7FEA6C5CED
:1051D00002D150EA013C07D14FEA430C7FEA6C5CF4
:1051E000D6D152EA033CD3D05DF8040B704700BF20
:1051F0008446104662468C461946634600E000BF6E
:1052000001B5FFF7B7FF002848BF10F1000F01BD3F
:105210004DF808EDFFF7F4FF0CBF012000205DF80A
:1052200008FB00BF4DF808EDFFF7EAFF34BF01208F
:1052300000205DF808FB00BF4DF808EDFFF7E0FF28
:1052400094BF012000205DF808FB00BF4DF808ED79
:10525000FFF7CEFF94BF012000205DF808FB00BFE0
:105260004DF808EDFFF7C4FF34BF012000205DF8C2
:1052700008FB00BF4FEA410212F5001215D211D50A
:105280006FF47873B3EB625212D94FEAC12343F043
:10529000004343EA505311F0004F23FA02F018BFC5
:1052A000404270474FF00000704750EA013005D18E
:1052B00011F0004008BF6FF0004070474FF0000051
:1052C000704700BF4FEA4102B2F1E04324BFB3F59B
:1052D000001CDCF1FE5C0DD901F0004C4FEAC0026D
:1052E0004CEA5070B2F1004F40EB830008BF20F051
:1052F0000100704711F0804F21D113F13872BCBF0B
:1053000001F00040704741F480114FEA5252C2F15F
:105310001802C2F1200C10FA0CF320FA02F018BFA8
:1053200040F001004FEAC1234FEAD32303FA0CFCFB
:1053300040EA0C0023FA02F34FEA4303CCE77FEA8A
:10534000625307D150EA01331EBF4FF0FE4040F4D4
:105350004000704701F0004040F0FE4040F4000083
:10536000704700BF80F0004002E000BF81F00041C4
:1053700042001FBF5FEA410392EA030F7FEA226CFB
:105380007FEA236C6AD04FEA1262D2EB1363C1BF8B
:10539000D218414048404140B8BF5B42192B88BFFA
:1053A000704710F0004F40F4000020F07F4018BF1D
:1053B000404211F0004F41F4000121F07F4118BF3D
:1053C000494292EA030F3FD0A2F1010241FA03FCE5
:1053D00010EB0C00C3F1200301FA03F100F00043CD
:1053E00002D5494260EB4000B0F5000F13D3B0F195
:1053F000807F06D340084FEA310102F10102FE2A04
:1054000051D2B1F1004F40EBC25008BF20F0010073
:1054100040EA03007047490040EB000010F4000F21
:10542000A2F10102EDD1B0FA80FCACF1080CB2EBB4
:105430000C0200FA0CF0AABF00EBC2505242184313
:10544000BCBFD0401843704792F0000F81F40001B8
:1054500006BF80F400000132013BB5E74FEA41038B
:105460007FEA226C18BF7FEA236C21D092EA030FF7
:1054700004D092F0000F08BF0846704790EA010F71
:105480001CBF0020704712F07F4F04D1400028BF9E
:1054900040F00040704712F100723CBF00F5000080
:1054A000704700F0004343F0FE4040F400007047B6
:1054B0007FEA226216BF08467FEA23630146420262
:1054C00006BF5FEA412390EA010F40F48000704775
:1054D0004FF0000304E000BF10F0004348BF40421B
:1054E0005FEA000C08BF704743F0964301464FF057
:1054F00000001CE050EA010208BF70474FF00003B3
:105500000AE000BF50EA010208BF704711F00043F3
:1055100002D5404261EB41015FEA010C02BF8446C3
:105520000146002043F0B64308BFA3F18053A3F522
:105530000003BCFA8CF2083AA3EBC25310DB01FA69
:1055400002FC634400FA02FCC2F12002BCF1004FED
:1055500020FA02F243EB020008BF20F0010070477E
:1055600002F1200201FA02FCC2F1200250EA4C00D2
:1055700021FA02F243EB020008BF20EADC70704718
:105580004FF0FF0C1CEAD0521EBF1CEAD15392EA26
:105590000C0F93EA0C0F6FD01A4480EA010C400202
:1055A00018BF5FEA41211ED04FF0006343EA50105C
:1055B00043EA5111A0FB01310CF00040B1F5000F9E
:1055C0003EBF490041EAD3715B0040EA010062F14D
:1055D0007F02FD2A1DD8B3F1004F40EBC25008BF37
:1055E00020F00100704790F0000F0CF0004C08BF55
:1055F00049024CEA502040EA51207F3AC2BFD2F122
:10560000FF0340EAC250704740F400004FF000032F
:10561000013A5DDC12F1190FDCBF00F00040704769
:10562000C2F10002410021FA02F1C2F1200200FAA7
:1056300002FC5FEA310040F1000053EA4C0308BF6E
:1056400020EADC70704792F0000F00F0004C02BFBF
:10565000400010F4000F013AF9D040EA0C0093F03A
:10566000000F01F0004C02BF490011F4000F013B94
:10567000F9D041EA0C018FE70CEAD15392EA0C0F02
:1056800018BF93EA0C0F0AD030F0004C18BF31F06D
:10569000004CD8D180EA010000F00040704790F043
:1056A000000F17BF90F0004F084691F0000F91F0E7
:1056B000004F14D092EA0C0F01D142020FD193EAAD
:1056C0000C0F03D14B0218BF084608D180EA010035
:1056D00000F0004040F0FE4040F40000704740F011
:1056E000FE4040F4400070474FF0FF0C1CEAD052DF
:1056F0001EBF1CEAD15392EA0C0F93EA0C0F69D03B
:10570000A2EB030280EA010C49024FEA402037D0A5
:105710004FF0805343EA111143EA10130CF000409C
:105720008B4238BF5B0042F17D024FF4000C8B428C
:1057300024BF5B1A40EA0C00B3EB510F24BFA3EB6C
:10574000510340EA5C00B3EB910F24BFA3EB91033C
:1057500040EA9C00B3EBD10F24BFA3EBD10340EA96
:10576000DC001B0118BF5FEA1C1CE0D1FD2A3FF6DC
:1057700050AF8B4240EBC25008BF20F00100704791
:105780000CF0004C4CEA50207F32C2BFD2F1FF0334
:1057900040EAC250704740F400004FF00003013A65
:1057A00037E792F0000F00F0004C02BF400010F409
:1057B000000F013AF9D040EA0C0093F0000F01F01D
:1057C000004C02BF490011F4000F013BF9D041EA3F
:1057D0000C0195E70CEAD15392EA0C0F08D1420272
:1057E0007FF47DAF93EA0C0F7FF470AF084676E745
:1057F00093EA0C0F04D14B023FF44CAF08466EE71E
:1058000030F0004C18BF31F0004CCAD130F00042EB
:105810007FF45CAF31F000437FF43CAF5FE700BF43
:105820004FF0FF3C06E000BF4FF0010C02E000BF6C
:105830004FF0010C4DF804CD4FEA40024FEA41030E
:105840007FEA226C18BF7FEA236C11D001B052EAC4
:10585000530C18BF90EA010F58BFB2EB030088BF8A
:10586000C81738BF6FEAE17018BF40F001007047F9
:105870007FEA226C02D15FEA402C05D17FEA236CDB
:10588000E4D15FEA412CE1D05DF8040B704700BF22
:10589000844608466146FFE70FB5FFF7C9FF0028B9
:1058A00048BF10F1000F0FBD4DF808EDFFF7F4FFF2
:1058B0000CBF012000205DF808FB00BF4DF808ED8B
:1058C000FFF7EAFF34BF012000205DF808FB00BFAE
:1058D0004DF808EDFFF7E0FF94BF012000205DF8D0
:1058E00008FB00BF4DF808EDFFF7D2FF94BF012081
:1058F00000205DF808FB00BF4DF808EDFFF7C8FF7A
:1059000034BF012000205DF808FB00BF4FEA4002D1
:10591000B2F1FE4F0FD34FF09E03B3EB12620DD9DD
:105920004FEA002343F0004310F0004F23FA02F047
:1059300018BF404270474FF00000704712F1610FEE
:1059400001D1420205D110F0004008BF6FF00040C5
:1059500070474FF00000704742000ED2B2F1FE4F88
:105960000BD34FF09E03B3EB126209D44FEA00232E
:1059700043F0004323FA02F070474FF000007047F5
:1059800012F1610F01D1420202D14FF0FF30704796
:105990004FF00000704700BF844641EA000313F057
:1059A00003036DD1403A41D351F8043B40F8043B26
:1059B00051F8043B40F8043B51F8043B40F8043BE9
:1059C00051F8043B40F8043B51F8043B40F8043BD9
:1059D00051F8043B40F8043B51F8043B40F8043BC9
:1059E00051F8043B40F8043B51F8043B40F8043BB9
:1059F00051F8043B40F8043B51F8043B40F8043BA9
:105A000051F8043B40F8043B51F8043B40F8043B98
:105A100051F8043B40F8043B51F8043B40F8043B88
:105A200051F8043B40F8043B403ABDD2303211D328
:105A300051F8043B40F8043B51F8043B40F8043B68
:105A400051F8043B40F8043B51F8043B40F8043B58
:105A5000103AEDD20C3205D351F8043B40F8043B28
:105A6000043AF9D2043208D0D2071CBF11F8013B26
:105A700000F8013B01D30B8803806046704700BFEC
:105A8000082A13D38B078DD010F003038AD0C3F1FB
:105A90000403D21ADB071CBF11F8013B00F8013BDD
:105AA00080D331F8023B20F8023B7BE7043AD9D39C
:105AB000013A11F8013B00F8013BF9D20B78037071
:105AC0004B7843708B78837060467047000000000D
:105AD00000000000000000000000000000000000C6
:105AE000A2EB0300704700BF02780B78012A28BFA1
:105AF0009A42F5D16DE9044540EA0104CDE9026717
:105B00006FF0000C4FEA447212B380EA010414F003
:105B1000070F6AD100F0070420F0070004F0030526
:105B200021F007014FEAC505F0E8042314F0040F43
:105B3000F1E804670CFA05F462EA040266EA040676
:105B40000AD063EA0403624667EA0407664603E094
:105B5000F0E80423F1E8046782FA4CF582EA0604CF
:105B6000A4FA8CF46CBB83FA4CF583EA0705A5FA1A
:105B70008CF595B950E9022351E9026782FA4CF598
:105B800082EA0604A4FA8CF483FA4CF583EA07054A
:105B9000A5FA8CF52543DBD09CB92DBAB5FA85F46E
:105BA00024F0070427FA04F1DDE9026723FA04F37D
:105BB00003F0FF0001F0FF01FDE80445A0EB010048
:105BC000704724BAB4FA84F424F0070426FA04F1E6
:105BD000DDE9026722FA04F202F0FF0001F0FF01A2
:105BE000FDE80445A0EB0100704714F0030F3CD121
:105BF00010F0030428D150F8082B51F8083B82FA22
:105C00004CF582EA0305A5FA8CF55DB950F8042C31
:105C100051F8043C82FA4CF582EA0305A5FA8CF5AA
:105C2000002DE8D02DBAB5FA85F424F0070423FA44
:105C300004F122FA04F202F0FF0001F0FF01FDE896
:105C40000445A0EB010070474FEAC40420F00300B4
:105C500050F8082B21F0030151F8083B0CFA04F42A
:105C600062EA040263EA0403C9E710F003041AD0ED
:105C7000A1EB040120F00300E40750F8042B06D048
:105C80000FD28B785FFAA2F4E41A06D12BB1CB784D
:105C90005FFAB2F4E41A00D11BB920465DF8104B4C
:105CA000704701F1040150F8042BCC0721F00301E7
:105CB00051F8043B48D824D222F07F4482FA4CF5B4
:105CC00094EA1325A5FA8CF50AD165B951F8043B7D
:105CD00084EA0204B4EB036F0ED150F8042BEBE717
:105CE0004FEA132355E035F07F454DD10878FDE8A4
:105CF0000445C0F1000070474FEA126203F0FF0351
:105D000047E002EA1C4482FA4CF594EA1345A5FAEE
:105D10008CF50AD165B951F8043B84EA0204B4EB6E
:105D2000034F0CD150F8042BEBE74FEA134330E05C
