:1000000000000020D5330000FD300000FD3000006E
:10001000FD300000FD300000FD300000FD3000002C
:10002000FD300000FD300000FD300000FD3000001C
:10003000FD300000FD300000FD30000011310000F7
:10004000FD300000FD300000FD300000FD300000FC
:10005000FD300000FD300000FD300000FD300000EC
:10006000FD300000FD300000FD300000FD300000DC
:10007000FD300000FD300000FD300000FD300000CC
:10008000FD300000FD300000FD300000FD300000BC
:10009000FD300000FD300000FD300000FD300000AC
:1000A000FD300000FD300000FD300000FD3000009C
:1000B000FD300000FD300000FD300000FD3000008C
:1000C000FD300000FD300000FD300000FD3000007C
:1000D000FD300000FD300000FD300000FD3000006C
:1000E000FD300000FD300000FD300000FD3000005C
:1000F000FD300000FD300000FD300000FD3000004C
:10010000FD300000FD300000FD300000FD3000003B
:10011000FD300000FD300000FD300000FD3000002B
:10012000FD300000FD300000FD300000FD3000001B
:10013000FD300000FD300000FD300000AD35000056
:10014000FD300000FD300000FD300000FD300000FB
:10015000FD300000FD300000FD300000FD300000EB
:10016000FD300000893B0000FD300000FD30000044
:10017000FD300000FD300000FD300000FD300000CB
:10018000FD300000FD300000FD300000FD300000BB
:10019000FD300000FD300000FD300000FD300000AB
:1001A0003D350000D1340000FD300000FD3000007E
:0C01B000FD300000FD300000FD300000BC
:10040000FFFFFFFFFFFFFFFFFFFFFFFF7EFBFFFF81
:1004200010B5044608F08CF90146204604F07EFA27
:10043000BDE8104004F06EBB034A116813685B1AF4
:100440008342FBD3704700BFF08AFF1F074B084968
:10045000084A10B401244FF07E5019601C7100212D
:10046000986011705DF8044B704700BF0080FF1F5B
:100470000000B442008AFF1F2DE9F84FBD4BBE4D6E
:100480001B696A7883F00203C3F340039A4208D0E1
:10049000BA4C0022216869602A7243B96B70BDE8CA
:1004A000F88F002BFAD02A7A52B96968B34C2268C7
:1004B00041F28830521A824202D901226A722A72AB
:1004C000AA7AAD4E002AE9D1AC4C71682268DFF8F7
:1004D000B882521A4245E1D90123B37203F020F9E0
:1004E0001721A74804F022FA04F014FBD4F800E026
:1004F0002268A44BCEEB02029A4200F24A81B07A03
:100500007178327A777A7668002840F04981DFF88E
:100510006492C246184641F2883B09E0266893B9C6
:100520001A462168CEEB010C8445194600F2318150
:10053000D9F8103083F00203C3F340038B42EDD1AE
:100540000029EED02AB92268921B5A4500F2238175
:100550000022D4F800C0DFF82482C6EB0C0CD4458E
:10056000DFD901232A72AB7269706E606F7203F07B
:10057000D7F817218248804E04F0D8F904F0CAFA5F
:10058000D8F800E0D8F800207E4BCEEB02029A4269
:1005900000F20481B07A7178327A7768767A00282E
:1005A00040F06881DFF8CCA1DFF8DC91184641F219
:1005B000883B09E0276893B91A462168CEEB010C05
:1005C0008445194600F2EA80DAF8103083F002031D
:1005D000C3F340038B42EDD10029EED02AB9226843
:1005E000D21B5A4500F2D2800022D4F800C0DFF8B6
:1005F0008C81C7EB0C0CCC45DFD901232A72AB727E
:1006000069706E726F6003F08BF817215C485A4E68
:1006100004F08CF904F07EFAD8F80000D8F8002035
:10062000584B121A9A4200F24581B17A7778327AA1
:10063000D6F804E0767A002940F0FB80DFF834A198
:10064000DFF84491194641F2883B0AE0D4F800E013
:1006500093B91A462768C0EB070C8C451F4600F279
:100660002981DAF8103083F00203C3F340039F427C
:10067000ECD1002FEED032B92268CEEB02025A45FF
:1006800000F2C8800022D4F800C0DFF8F080CEEB82
:100690000C0CCC45DED901232A72AB72C5F804E0FC
:1006A0006F706E7203F03CF817213548324E04F03B
:1006B0003DF904F02FFAD8F80070D8F80020314B3B
:1006C000D21B9A4200F2A480B07A7178D6F804E086
:1006D00096F809C0327A002840F08680DFF894A0AE
:1006E000DFF8A490184641F2883B09E0D4F800E016
:1006F0008BB91A462668F61B8642194600F2888096
:10070000DAF8103083F00203C3F340038B42EDD1DB
:100710000029EFD02AB92268CEEB02025A455FD8F1
:1007200000222668DFF85480CEEB06064E45E1D95C
:1007300001232A72AB72C5F804E085F809C069701C
:1007400002F0EEFF17210E4804F0F0F804F0E2F991
:10075000D8F80060D8F800200A4B921B9A4206D8BD
:100760001D46FFF789FE23689B1BAB42F9D900BEEB
:10077000FEE700BFC0F00F40008AFF1FF08AFF1F96
:10078000E4E600001FA1070060E3160001263246E0
:100790002BE700BEFEE701273A46DAE600BEFEE799
:1007A000454F9C4641F2883508E026688BB91A46C9
:1007B0002068CEEB000060451946EAD83B6983F01B
:1007C0000203C3F340038B42EFD10029F0D0002A8B
:1007D000EED12268921BAA428CBF01220022E7E7D9
:1007E0004FF0010C62469CE7334E184641F2883CBC
:1007F000336983F00203C3F340038B420DD0D4F876
:1008000000E073B91A462568ED1B85421946EFD9F9
:1008100000BEFEE70126324635E70029F3D0002A64
:10082000F1D12268CEEB020262458CBF0122002288
:10083000E9E7214E194641F2883C08E0D4F800E08F
:1008400083B91A4625682D1A8D421F4632D833695E
:1008500083F00203C3F340039F42EFD1002BF1D09A
:10086000002AEFD12268CEEB020262458CBF012242
:100870000022E7E7104E184641F2883C08E027685E
:100880008BB91A462568CEEB05058542194685D8F1
:10089000336983F00203C3F340038B42EFD1002995
:1008A000F0D0002AEED12268D21B62458CBF012213
:1008B0000022E7E700BEFEE7C0F00F4070B50C4D28
:1008C00002F02EFF17210B4804F030F804F022F953
:1008D0002E682A68084B921B9A4206D81C46FFF7DE
:1008E000CBFD2B689B1BA342F9D900BEFEE700BFDE
:1008F000F08AFF1FE4E600001FA1070047494A688D
:100900002DE9F84F42F02002454C4A60D4F800E04F
:100910002268444BCEEB02029A4258D8424A967A59
:100920005078577A117A5568002E52D1DFF804A119
:10093000DFF804911E4641F2883B08E025688BB938
:1009400019462068CEEB000CB445184639D8DAF8C1
:10095000103083F00203C3F340038342EED100283A
:10096000EFD021B92168491B594527D80021D4F877
:1009700000C0DFF8AC80C5EB0C0CCC45E1D90123FD
:100980001172507093725560577202F0C9FE1721B0
:10099000264803F0CBFF04F0BDF8D8F80060D8F883
:1009A0000020234B921B9A4206D81D46FFF764FD98
:1009B00023689B1BAB42F9D900BEFEE701273946ED
:1009C000D5E71172577253705560BDE8F88FBDE8D6
:1009D000F88FDFF86080994641F2883C08E025688E
:1009E00093B919462668CEEB06064E451846E8D858
:1009F000D8F8103083F00203C3F340038342EED1F2
:100A00000028EFD00029EDD12168491B614501D8AC
:100A10000021E7E701273946E4E700BF80F00F40F7
:100A2000F08AFF1FDF930400008AFF1FE4E6000046
:100A30001FA10700C0F00F4060E3160047498A6815
:100A40002DE9F84F42F02002454C8A60D4F800E0CE
:100A50002268444BCEEB02029A4258D8424A967A18
:100A60005078577A117A5568002E52D1DFF804A1D8
:100A7000DFF804911E4641F2883B08E025688BB9F7
:100A800019462068CEEB000CB445184639D8DAF880
:100A9000103083F00203C3F340038342EED10028F9
:100AA000EFD021B92168491B594527D80021D4F836
:100AB00000C0DFF8AC80C5EB0C0CCC45E1D90123BC
:100AC0001172507093725560577202F029FE17210F
:100AD000264803F02BFF04F01DF8D8F80060D8F882
:100AE0000020234B921B9A4206D81D46FFF7C4FCF8
:100AF00023689B1BAB42F9D900BEFEE701273946AC
:100B0000D5E71172577253705560BDE8F88FBDE894
:100B1000F88FDFF86080994641F2883C08E025684C
:100B200093B919462668CEEB06064E451846E8D816
:100B3000D8F8103083F00203C3F340038342EED1B0
:100B40000028EFD00029EDD12168491B614501D86B
:100B50000021E7E701273946E4E700BF80F00F40B6
:100B6000F08AFF1FDF930400008AFF1FE4E6000005
:100B70001FA10700C0F00F4060E31600494A2DE9AD
:100B8000F84F13780121D172002B5CD14648474CB5
:100B90004168474B41F020014160D4F800E02168F2
:100BA000CEEB010199424ED8967A5078577A117A55
:100BB0005568002E52D1DFF804A1DFF804911E46DB
:100BC00041F2883B08E025688BB919462068CEEBD6
:100BD000000CB44518463BD8DAF8103083F0020315
:100BE000C3F340038342EED10028EFD021B921683E
:100BF000491B594529D80021D4F800C0DFF8AC8042
:100C0000C5EB0C0CCC45E1D90123117250709372E5
:100C10005560577202F084FD1721264803F086FEC6
:100C200003F078FFD8F80060D8F80020224B921B20
:100C30009A4206D81D46FFF71FFC23689B1BAB4258
:100C4000F9D900BEFEE7BDE8F88F01273946D3E7A2
:100C50001172577253705560BDE8F88FDFF85C80F1
:100C6000994641F2883C08E0256893B91946266800
:100C7000CEEB06064E451846EAD8D8F8103083F079
:100C80000203C3F340038342EED10028EFD00029D2
:100C9000EDD12168491B614501D80021E7E7012713
:100CA0003946E4E7008AFF1F80F00F40F08AFF1FFB
:100CB000DF930400E4E600001FA10700C0F00F402E
:100CC00060E31600494A2DE9F84F13780021D172EC
:100CD000002B5CD14648474C8168474B41F02001CE
:100CE0008160D4F800E02168CEEB010199424ED832
:100CF000967A5078577A117A5568002E52D1DFF8DB
:100D000004A1DFF804911E4641F2883B08E0256803
:100D10008BB919462068CEEB000CB44518463BD879
:100D2000DAF8103083F00203C3F340038342EED1BC
:100D30000028EFD021B92168491B594529D8002145
:100D4000D4F800C0DFF8AC80C5EB0C0CCC45E1D981
:100D500001231172507093725560577202F0E0FCDB
:100D60001721264803F0E2FD03F0D4FED8F8006016
:100D7000D8F80020224B921B9A4206D81D46FFF756
:100D80007BFB23689B1BAB42F9D900BEFEE7BDE8A5
:100D9000F88F01273946D3E71172577253705560A7
:100DA000BDE8F88FDFF85C80994641F2883C08E0A6
:100DB000256893B919462668CEEB06064E451846B7
:100DC000EAD8D8F8103083F00203C3F3400383421B
:100DD000EED10028EFD00029EDD12168491B6145F3
:100DE00001D80021E7E701273946E4E7008AFF1F21
:100DF00080F00F40F08AFF1FDF930400E4E600005C
:100E00001FA10700C0F00F4060E316002DE9F84F66
:100E1000444CD4F800E023684FF47A72CEEB03031D
:100E200002FB00F0834257D23F4A937A5578577AB3
:100E3000117A5668002B51D1DFF8F8B0DFF8F8A02E
:100E400041F2883908E026688BB919462568CEEB4F
:100E5000050C84451D4639D2DBF8103083F00203BF
:100E6000C3F34003AB42EED1002DEFD021B921688E
:100E7000891B494527D80021D4F800C0DFF8A48099
:100E8000C6EB0C0CD445E1D9012311725660937264
:100E90005772557002F044FC1721244803F046FDB8
:100EA00003F038FED8F80060D8F80020204B921BE1
:100EB0009A4206D81D46FFF7DFFA23689B1BAB4218
:100EC000F9D900BEFEE701273946D5E711725772FE
:100ED00053705660BDE8F88FBDE8F88FDFF8549086
:100EE00041F2883808E0266893B919462568CEEBA8
:100EF000050C60451D46E9D9D9F8103083F002038E
:100F0000C3F34003AB42EED1002DEFD00029EDD169
:100F10002168891B414501D80021E7E701273946AF
:100F2000E4E700BFF08AFF1F008AFF1FE4E600002D
:100F30001FA10700C0F00F4060E316002DE9F0414B
:100F4000264CE66867693046394604F0F5FAA5692B
:100F5000D4F8108020F0004329462362404604F074
:100F6000EBFA20F0004363621D49384604F0EEFBC3
:100F700004F0B2FD1B49A0620746284604F0E6FBD8
:100F800004F0AAFD1649E0620546304604F0DEFB97
:100F900004F0A2FD134920630646404604F0D6FB48
:100FA00004F09AFDF61B451B002ECCBF0121FF214A
:100FB0000D4B6063002D86EAE67E85EAE577CCBFBF
:100FC000FF220122AEEBE67EA7EBE57719735A7399
:100FD000C4F838E0E763BDE8F08100BF008AFF1F76
:100FE000D049334514E0D6450080FF1FF8B5164CB4
:100FF000236A666A19460746184604F0A7FB31467D
:101000000546304604F0A2FB0146284604F096FA55
:1010100003F028FF05F000FD04F03AFA0B49A56B38
:10102000E66B04F093FB394604F044FCAE42044600
:101030003046B8BF284604F035FB0146204604F090
:1010400039FC04F06FFDF8BD008AFF1FC0E1644C5D
:101050002DE9F0412E4CD4F81480E0600F46276152
:101060004146064604F068FAA56920F00043294687
:101070002362384604F060FA20F000436362254999
:10108000404604F063FB04F027FD2349A06280463C
:10109000284604F05BFB04F01FFD1E49E062054694
:1010A000304604F053FB04F017FD1B49206306464D
:1010B000384604F04BFB04F00FFDC8EB0606451B59
:1010C00086EAE672002E85EAE573A2EBE672A3EBF0
:1010D000E573CCBF0126FF2610496063002DCCBF0D
:1010E000FF2001209A42A263E3630E73487307DC7A
:1010F0000122591084F840206364A164BDE8F081A6
:101100000023511084F840306264A164BDE8F0818E
:10111000008AFF1FD049334514E0D6450080FF1FE9
:101120002DE9F843274CD4F80C9006460D4666612D
:101130003146A561484604F0FFF9D4F8108020F04C
:10114000004329462362404604F0F6F920F00043AC
:1011500063621D49304604F0F9FA04F0BDFC1B49F6
:10116000A0620746284604F0F1FA04F0B5FC1649DF
:10117000E0620546484604F0E9FA04F0ADFC134984
:1011800020630646404604F0E1FA04F0A5FCF61B95
:10119000451B002ECCBF0121FF210D4B6063002DAC
:1011A00086EAE67E85EAE577CCBFFF220122AEEB38
:1011B000E67EA7EBE57719735A73C4F838E0E76366
:1011C000BDE8F883008AFF1FD049334514E0D645B7
:1011D0000080FF1F2DE9F84F5F4D2B78023B012B5C
:1011E00040F285806B7A002B40F0B2806B6C5A1E07
:1011F0006A64002B00F0AC80DFF87081574E044623
:10120000C246B346A94695F84010B1FA81F04009AC
:1012100005EB8003721805EB810CAF6C9B6B92F9A8
:101220000CE0DCF838C058F821203B447244634598
:1012300048F82120AB640CDB0BEB00025AF82010BD
:1012400092F90C200A44CCEB03034AF82020C9F899
:101250004830D8F80030002B43DBDAF8002045F6A0
:1012600056639A423DDC3E4A116813685B1A9C4201
:10127000FBD8FFF701F96B7A374933B9D9F8443015
:101280005A1EC9F84420002BBDD10F69CC686C618F
:1012900021462046AF6104F04FF920F00043394663
:1012A0002B62384604F048F920F000436B622D4968
:1012B000204604F04BFA04F00FFC2B49A8620446C8
:1012C000384604F043FA04F007FCFF210122002312
:1012D000317372732C63E8626863AB63EB63BDE8E0
:1012E000F88F022385F860302F69EC68CFE795F915
:1012F0000B302BB395F94C30EC6823BB296D20469D
:1013000004F0C2FB00B12C652046A96D124E04F01A
:10131000D9FB00B1B4652F69696D0F4E384604F0F2
:10132000B3FB00B177653846E96D04F0CBFB00B143
:10133000EF65002385F84C3000236B64074EA6E769
:101340002F69EC68F8E72F692C65AC656F65EFE7EE
:101350002F69EC68014E9AE7008AFF1F0080FF1F8B
:10136000F08AFF1FD049334514E0D645088BFF1F94
:1013700038B50D4B93F8E440643305461C441A78A5
:10138000184620213AB19C4205D9AA4205D007F05F
:1013900013F9431CF3D1002038BD581C07F01EF888
:1013A00004F076F838BD00BF008AFF1F0B4B93F89E
:1013B000E41071B193F8642082420CD06433013997
:1013C000194403E013F8012F824204D08B42F9D173
:1013D000002108467047012108467047008AFF1F18
:1013E0002DE9F047DFF87C8198F80030002288F87A
:1013F0000B20002B00F08D80504C514F02F090F9E3
:101400005048D7F80090256801F0FEFFD4F800A0FE
:10141000236842F20F76CAEB0303B34206D8FFF704
:101420002BF82368CAEB0303B342F8D94349444A73
:101430002368424E5B1BB3F57A7FF9D93B68994527
:1014400003D0D2F800900D68F2E7002001F0DCFF35
:10145000D6F8009033683C4DC9EB0303AB4206D885
:10146000FFF70AF82368C9EB0303AB42F8D9D8F8B1
:101470001050364ED8F80C00354900233B6000224E
:101480007B6025F0004E336020F0004C7360C8F89C
:101490001420C8F82830C8F82C30C8F820C0C8F884
:1014A00024E0C8F8182004F051F904F015FB29498C
:1014B000C8F830000746284604F048F904F00CFB51
:1014C00026682368204D244AC8F8340087EAE77C60
:1014D000002FACEBE77C80EAE07ECCBF0127FF2742
:1014E0009B1B0028CCBFFF210121AEEBE07EAB426D
:1014F000C8F838C0C8F83CE01773517305D8FEF738
:10150000BBFF23689B1BAB42F9D9BDE8F04702F053
:10151000F5B8124A094C9368114D43F020039360CB
:10152000266823689B1BAB423FF667AFFEF7A4FF1C
:1015300023689B1BAB42F9D95FE700BFF08AFF1F0E
:10154000008BFF1FC063FFFF9F860100088BFF1FFA
:10155000D049334514E0D6450080FF1F80F00F408E
:10156000DF930400008AFF1F2DE9F047AE4CFFF720
:1015700037FF94F8E530012B00F06E81C0F0B080A9
:10158000022B0AD0002384F8E530A848082103F094
:10159000CDF9BDE8F04703F0BDBA0D21A448A54D33
:1015A00003F0C4F903F0B6FAD4F81090E068A24949
:1015B00020F00042002629F00043002722626362E7
:1015C0006761A761A662E66204F0C0F804F084FADD
:1015D0009A4920638046484604F0B8F804F07CFA43
:1015E000B045CCBF4FF0010E4FF0FF0E88EAE8790E
:1015F000B04280EAE07CACEBE07C0346CCBFFF224B
:101600000122A9EBE87938468D4985F80CE0C4F849
:101610003CC063636A73C4F83890FFF719FD206A11
:10162000D4F82490014604F091F849468046484693
:1016300004F08CF80146404603F080FF03F012FCF2
:1016400005F0EAF903F024FF7E49D4F83890D4F885
:101650003CA004F07BF87C4904F02CF9CA45804694
:101660005046B8BF484604F01DF80146404604F015
:1016700021F904F057FAFFF7ADFDE068D4F81080C7
:101680006D49676120F0004228F0004322626362E6
:10169000A761A662E66204F059F804F01DFA6749F2
:1016A00020630746404604F051F804F015FAB742AB
:1016B000CCBF0122FF2287EAE77EB04280EAE071D8
:1016C000AEEBE77EA1EBE071CCBFFF2301236063AB
:1016D00084F8E560C4F838E0E1632A736B7354E77B
:1016E00011215A48534D03F021F903F013FAD4F8AD
:1016F0001090E068504920F0004229F00043002794
:101700000026226263626661A661A762E76204F056
:101710001DF804F0E1F9494920638046484604F089
:1017200015F804F0D9F9B845CCBF4FF0010E4FF0D1
:10173000FF0E88EAE879B84280EAE07CACEBE07C16
:101740000346CCBFFF220122A9EBE879304640498D
:1017500085F80CE0C4F83CC063636A73C4F8389041
:10176000FFF776FC206AD4F82490014603F0EEFFE0
:1017700049468046484603F0E9FF0146404603F0EB
:10178000DDFE03F06FFB05F047F903F081FE2D4904
:10179000D4F83890D4F83CA003F0D8FF2D4904F0D9
:1017A00089F8CA4580465046B8BF484603F07AFFDC
:1017B0000146404604F07EF804F0B4F9FFF70AFD54
:1017C000E068D4F810801C49666120F0004228F0DF
:1017D000004322626362A661A762E76203F0B6FF7C
:1017E00004F07AF9154920630646404603F0AEFF3F
:1017F00004F072F9002E86EAE67E80EAE077CCBF3C
:101800000121FF210028AEEBE67EA7EBE077CCBFFD
:10181000FF22012201236063C4F838E0E7632973E3
:101820006A7384F8E530B0E6008AFF1F34E70000F1
:1018300024E700000080FF1FD049334514E0D6455F
:1018400000006041C0E1644C00007A43FCE6000007
:10185000000080BF0000484210214D484D4D03F06C
:1018600065F803F057F9D4F81090E0684A4920F081
:10187000004229F00043002700262262636266616D
:10188000A661A762E76203F061FF04F025F943490E
:1018900020638046484603F059FF04F01DF9B8451F
:1018A000CCBF4FF0010E4FF0FF0E88EAE879B84246
:1018B00080EAE07CACEBE07C0346CCBFFF22012257
:1018C000A9EBE8793046364985F80CE0C4F83CC00D
:1018D00063636A73C4F83890FFF7BAFB206AD4F8E0
:1018E0002490014603F032FF49468046484603F003
:1018F0002DFF0146404603F021FE03F0B3FA05F048
:101900008BF803F0C5FD2749D4F83890D4F83CA0F3
:1019100003F01CFF244903F0CDFFCA458046504622
:10192000B8BF484603F0BEFE0146404603F0C2FF82
:1019300004F0F8F8FFF74EFCE068D4F81080164980
:10194000666120F0004228F0004322626362A661D3
:10195000A762E76203F0FAFE04F0BEF80F492063C5
:101960000646404603F0F2FE04F0B6F8002E86EA82
:10197000E67E80EAE077CCBF0121FF210028AEEBB4
:10198000E67EA7EBE077CCBFFF220122022342E7ED
:1019900010E700000080FF1FD049334514E0D64512
:1019A00000004EC1C0E1644C00007A43B54A936820
:1019B0002DE9F04FB44CB54D94F80090B44E002191
:1019C00043F020032170E1729360D5F800E02B68AA
:1019D000CEEB0303B3429FB056D8A37A6178227A44
:1019E000677A6068002B40F02281DFF8D4B2059658
:1019F00041F2883A09E0286893B91A462968059E99
:101A0000CEEB010CB44519463AD8DBF8103083F020
:101A10000203C3F340038B42EDD10029EED022B97B
:101A20002A68121A524528D80022D5F800C0994ECB
:101A3000DFF85882C0EB0C0CB445DFD901232272C9
:101A4000A37260606170677201F06AFE17219248AC
:101A500002F06CFF03F05EF8D8F80060D8F80020C0
:101A60008E4B921B9A4206D81C46FEF705FD2B684A
:101A70009B1BA342F9D900BEFEE701273A46D4E7F3
:101A8000677222726060637094F860307E4E002B43
:101A900040F05882B9F1030F00F01481B9F1000F42
:101AA00000F050827E4D206DAE68314603F002FF9B
:101AB0004FF07C5103F042FD04F00EF8314607462A
:101AC000606D03F0F7FE4FF07C5103F037FD04F03A
:101AD00003F831468246A06D03F0ECFE4FF07C51D6
:101AE00003F02CFD03F0F8FF31468146E06D03F072
:101AF000E1FE4FF07C5103F021FD03F0EDFF4FF0CC
:101B00007E518046304603F0B5FF664A664BCDF8FD
:101B100000A0002814BF104618465A213B46634ACD
:101B20000390CDF80490CDF8088007A806F0F6FCE5
:101B300007A806F005FE014607A802F0F7FE02F02E
:101B4000E9FFD4F814A00026E6603046514626612D
:101B500003F0F2FCD4F8189020F0004849463046D3
:101B6000C4F8208003F0E8FC20F000475049676289
:101B7000504603F0EBFD03F0AFFF4E49A06206466E
:101B8000484603F0E3FD03F0A7FF76424142002EF2
:101B900086EAE67281EAE173A2EBE672A3EBE173F7
:101BA000CCBF4FF0010E4FF0FF0E0029CCBFFF2637
:101BB000012600219A42E062A263E36385F80CE00B
:101BC0006E732163616356DC591001226364A16462
:101BD00084F840204146404603F0B8FD39460546AA
:101BE000384603F0B3FD0146284603F0A7FC03F096
:101BF00039F904F011FF03F04BFC2F49A56BE66B9C
:101C000003F0A4FD2D4903F055FEAE4204463046D4
:101C1000B8BF284603F046FD0146204603F04AFEC1
:101C200003F080FFFFF7D6FA1FB0BDE8F08FDFF8B2
:101C300090A041F2883809E028689BB91A462968C3
:101C4000CEEB010CB44519463FF61AAFDAF8103066
:101C500083F00203C3F340038B42EDD10029EED0A1
:101C6000002AECD12A68121A424501D80022E6E780
:101C700001273A46E3E7531084F840106264A364F6
:101C8000A8E700BF80F00F40008AFF1FF08AFF1F07
:101C9000DF93040060E31600E4E600001FA10700E4
:101CA0000080FF1F40E7000048E700004CE700000D
:101CB000D049334514E0D645C0E1644C0000C84229
:101CC000C0F00F400023306D716DB3617361FFF799
:101CD000BFF9306AD6F82480014603F037FD41464B
:101CE0000746404603F032FD0146384603F026FC25
:101CF00003F0B8F804F090FE03F0CAFB9249B76B0A
:101D0000D6F83C8003F022FD904903F0D3FDB8459E
:101D100006464046B8BF384603F0C4FC014630468C
:101D200003F0C8FD03F0FEFEFFF754FA2F682A689F
:101D3000874BD21B9A4298BF1E4605D8FEF79CFBE4
:101D40002B68DB1BB342F9D9A06D616DFFF780F9F9
:101D5000206A676A014603F0F9FC394606463846B0
:101D600003F0F4FC0146304603F0E8FB03F07AF898
:101D700004F052FE03F08CFB7349A76BD4F83C804F
:101D800003F0E4FC734903F095FDB8450646404670
:101D9000B8BF384603F086FC0146304603F08AFDA2
:101DA00003F0C0FEFFF716FAA06DE16DFFF750F9E2
:101DB000206A676A014603F0C9FC39460646384680
:101DC00003F0C4FC0146304603F0B8FB03F04AF8C8
:101DD00004F022FE03F05CFB5B49A76BD4F83C8067
:101DE00003F0B4FC5B4903F065FDB8450646404688
:101DF000B8BF384603F056FC0146304603F05AFDA2
:101E000003F090FEFFF7E6F9206DE16DFFF720F992
:101E1000206A676A014603F099FC3946064638464F
:101E200003F094FC0146304603F088FB03F01AF8F7
:101E300004F0F2FD03F02CFB4349A76BD4F83C807F
:101E400003F084FC434903F035FDB845064640469F
:101E5000B8BF384603F026FC0146304603F02AFDA1
:101E600003F060FEFFF7B6F9206D616DFFF7F0F843
:101E7000206A676A014603F069FC3946064638461F
:101E800003F064FC0146304603F058FB02F0EAFF21
:101E900004F0C2FD03F0FCFA2B49A76BD4F83C8098
:101EA00003F054FC2B4903F005FDB84506464046B7
:101EB000B8BF384603F0F6FB0146304603F0FAFCA3
:101EC00003F030FEFFF786F92F682A68204BD21BFB
:101ED0009A4298BF1E4605D8FEF7CEFA2B68DB1B48
:101EE000B342F9D900200146FFF7B2F8206A666ACA
:101EF000014603F02BFC31460546304603F026FC34
:101F00000146284603F01AFB02F0ACFF04F084FD02
:101F100003F0BEFA0C49A66BE76B03F017FC0B4904
:101F200003F0C8FCB74205463846B8BF304603F058
:101F3000B9FB0146284603F0BDFC03F0F3FDFFF7B3
:101F400049F9AFE5044DFCE5C0E1644C00007A437B
:101F50003F420F000000C8420080FF1F2DE9F04FF4
:101F6000DFF8C8A29AF86430A5B0002B00F0908189
:101F7000DFF8C4B2DBF81010002900F092810BF1F9
:101F80001006002405E056F80C1F0134002900F06B
:101F90008881A64D05F1640003F086FE0028F2D189
:101FA00004EB44040BEB840405F16400616906F062
:101FB00069FB05F1640006F0C3FBC0B285F8E400DC
:101FC000002849D09AF86430994F472B4BD0411ED6
:101FD0003D4639443A4603E012F8014F472C42D0BF
:101FE0008A42F9D1582B3ED0914A03E012F8014FB2
:101FF000582C38D08A42F9D1592B04D133E015F846
:10200000012F592A2FD0A942F9D15A2B2BD0884F12
:1020100000223D46394603E011F8014F5A2C22D0E8
:1020200001329042F8DC462B1DD0002203E015F867
:10203000011F462917D001329042F8DC4D2B00F0E9
:10204000E4857B49002204E011F8014F4D2C00F09B
:10205000DC8501329042F7DC0621764802F066FC0E
:1020600002F058FD1AE13D183C4600E04378204656
:102070002021002B00F08D83AC4280F09583472B0C
:1020800000F0948306F098FA441CEFD19BF80430DA
:102090009AF8E450002B00F06384644B7DB193F810
:1020A0006460582E00F09785691E39443B4604E071
:1020B00013F8012F582A00F08E858B42F8D1DAF8F8
:1020C000149085B19AF864E0BEF1590F00F066856E
:1020D000691E39443B4604E013F8012F592A00F0E9
:1020E0005D858B42F8D1DAF8183002937DB19AF809
:1020F00064605A2E00F03985691E39443B4604E07D
:1021000013F8012F5A2A00F030858B42F8D1DAF803
:102110001C603046002103F0CBFC40B1DAF81C0013
:10212000424D002103F0B0FC002840F014853046F9
:10213000002103F0A9FC002840F0FA849AF8E4504A
:10214000CAF81C60394B7DB193F86460462E00F0EC
:102150006084691E39443B4604E013F8012F462A87
:1021600000F057848B42F8D15C2C00F20B83DFE83F
:1021700014F065016501A901A9018C010903090396
:1021800009030903090309030903090309030903EF
:102190000903090309030903090304031A010903D5
:1021A00009030903090309030903CE0009039B007E
:1021B00009030903090309030903090309030903BF
:1021C00009030903090309030903090309030903AF
:1021D000090309030903090309030903090309039F
:1021E000090309030903090309030903090309038F
:1021F000090309030903090309030903090309037F
:10220000090309030903090309030903090309036E
:10221000090309030903090309030903090309035E
:1022200009030903090361015D011E01008AFF1F03
:10223000648AFF1F00E900000080FF1F5320FFF7A2
:1022400097F803F06FFCC0B203288AF80000B04C86
:1022500040F2348700238AF80030AE48FEF7E0F8F9
:102260009AF80040A4B10121A31E00228B428AF8F3
:102270000B208AF84C10A64D0AD8002001462A707F
:10228000FEF7E6FEA448FEF7B1FEFEF7A3FF2C70B2
:102290000421A24802F04AFB02F03CFC25B0BDE854
:1022A000F08F9AF8E4008BE648460299FEF7D0FEDC
:1022B000DAF82000DAF82450014603F047FA2946FC
:1022C0000446284603F042FA0146204603F036F958
:1022D00002F0C8FD04F0A0FB03F0DAF89049DAF848
:1022E0003850DAF83C6003F031FA8B4903F0E2FA37
:1022F000AE4204463046B8BF284603F0D3F9014643
:10230000204603F0D7FA03F00DFCFEF763FF002030
:102310000146FEF79DFEDAF82000DAF82450014667
:1023200003F014FA29460446284603F00FFA014642
:10233000204603F003F902F095FD04F06DFB03F075
:10234000A7F87749DAF83850DAF83C6003F0FEF97C
:10235000714903F0AFFAAE4204463046B8BF284692
:1023600003F0A0F90146204603F0A4FA03F0DAFBDB
:10237000FEF730FF9AF86030012B00F00C8287D313
:10238000022B8BD11C21674802F0D0FA02F0C2FB6D
:102390000B21654802F0CAFA02F0BCFBFFF706FB0E
:1023A00025B0BDE8F08F614BCBF80830E2E7DAF8F2
:1023B0001050DAF80C005E490022002325F000449A
:1023C00020F00046CAF81420CAF81820CAF82830AD
:1023D000CAF82C30CAF82440CAF8206003F0B6F9D5
:1023E00003F07AFB5349CAF830000446284603F04C
:1023F000ADF903F071FB002CCCBF0122FF2284EA6F
:10240000E475002880EAE071A5EBE475A1EBE071CA
:10241000CCBFFF230123CAF83400CAF83850CAF8E9
:102420003C108BF80C208BF80D30A3E700238BF8C1
:1024300004309FE701238BF804309BE7484602995C
:10244000FEF706FE002C40F002833B4CDAF8200039
:10245000DAF82460014603F079F931460546304642
:1024600003F074F90146284603F068F802F0FAFC1C
:1024700004F0D2FA03F00CF82949DAF83850DAF807
:102480003C6003F063F9214663E79AF80030204A84
:10249000002B7FF46FAF92F8E4203B46174408E02E
:1024A0009F420BD9502A00F0338406F085F8431C74
:1024B00004D01A7818462021002AF1D11F4B1A683F
:1024C0001B6857E79AF8E4503D441D4F3B4608E02F
:1024D000AB420BD2492A00F0DB8306F06DF8431CB7
:1024E00004D01A7818462021002AF1D10021DBF807
:1024F0000850DAF81480284603F028F9414603F022
:102500001DF89AF8E4200E4B0646174423E000BF5E
:10251000008AFF1FB0E700000000C84270E700001B
:10252000C0E1644C84E70000A4E700008542213D3F
:10253000D049334514E0D64500007A43F08AFF1FA6
:10254000648AFF1F9F420BD94A2A00F0978306F046
:1025500033F8431C04D01A7818462021002AF1D100
:102560000020DAF81870294603F0F0F8394602F036
:10257000E5FF31460546404602F0DEFF294680462B
:10258000384602F0D9FF31460746484602F0D4FFEC
:1025900029468146029802F0CFFF022C00F04E83BC
:1025A0000690384602F05EFCCDE90201404602F09A
:1025B00059FC02460B46DDE9020104F02BFA02F059
:1025C00067FFDDF818C00590604602F04BFCCDE9CE
:1025D0000201484602F046FC02460B46DDE90201D4
:1025E00004F018FA02F054FF81464946059803F0BA
:1025F0005FFA20B14846D44902F0A0FF8146059910
:10260000484602F099FF414681460690404603F055
:102610009DF839468046384603F098F80146404612
:1026200002F08CFF02F01EFC04F0F6F902F030FF1D
:10263000C6490746484603F089F849468046384669
:1026400003F084F8C24903F035F981464946404613
:1026500003F038FA00B9C846404602F003FC04F023
:10266000C3F802F0EDFEB0F100097FF783AE03F08E
:1026700019F80790304602F0F5FBCDE9080138461D
:1026800002F0F0FBCDE90201284602F0EBFB032C3F
:10269000CDE90A014FF0010800F0DC81C8EB090028
:1026A00003F000F8079903F005F90146069803F0D6
:1026B0004DF8059902F042FF02F0D4FB04460D46A6
:1026C00004F01AF906460F462046294604F058F948
:1026D000DDE9022304460D463046394602F016FC79
:1026E000DDE9082302F060FA02F0D2FEDDE9022300
:1026F00006462946204602F009FCDDE90A2302F0DD
:1027000053FA02F0C5FE01463046FEF7A1FCDAF8A6
:102710002000DAF82450DBF80060014603F016F8D8
:1027200029460446284603F011F80146204602F0E7
:1027300005FF02F097FB04F06FF902F0A9FE85494E
:10274000DAF83840DAF83C5003F000F8314603F08C
:10275000B1F8A54206462846B8BF204602F0A2FFBF
:102760000146304603F0A6F803F0DCF908F1010851
:10277000FEF730FDC84591DDFCE54FF07E53CBF808
:102780000830F7E50821744802F0D0F802F0C2F9E9
:10279000F0E51C467AE40B21704802F0C7F802F01D
:1027A000B9F925B0BDE8F08F00246FE4601C05F096
:1027B00015FE02F06DFE03F08FF91E28044640F26C
:1027C00057840023029399465C28DBD801A353F871
:1027D00020F000BF472A0000472A0000C52400005F
:1027E000C52400008B2400008527000085270000F9
:1027F0008527000085270000852700008527000029
:102800008527000085270000852700008527000018
:102810008527000085270000852700008527000008
:10282000852700007B270000A723000085270000E4
:1028300085270000852700008527000085270000E8
:10284000852700000F23000085270000A922000033
:1028500085270000852700008527000085270000C8
:1028600085270000852700008527000085270000B8
:1028700085270000852700008527000085270000A8
:102880008527000085270000852700008527000098
:102890008527000085270000852700008527000088
:1028A0008527000085270000852700008527000078
:1028B0008527000085270000852700008527000068
:1028C0008527000085270000852700008527000058
:1028D0008527000085270000852700008527000048
:1028E0008527000085270000852700008527000038
:1028F0008527000085270000852700008527000028
:102900008527000085270000852700008527000017
:102910008527000085270000852700008527000007
:1029200085270000852700008527000085270000F7
:10293000852700008527000085270000352400003A
:102940002D240000AF230000DA0FC9409A991940E6
:102950000AD7A33BC0E1644C78E70000A4E700007D
:102960003D44C24F3B4608E0AB420BD2582A00F030
:102970009E8105F021FE431C04D01A7818462021C0
:10298000002AF1D10021DBF80860304602F0DEFEBB
:10299000DAF8141002F0D2FD9AF8E4503D44B34F37
:1029A00081463B4608E09D420BD9592A00F08D81B3
:1029B00005F002FE431C04D01A7818462021002A94
:1029C000F1D10020314602F0C1FEDAF8181002F011
:1029D000B5FD9AF8E45002903D44A44F3B4608E010
:1029E0009D420BD95A2A00F05A8105F0E5FD431C9F
:1029F00004D01A7818462021002AF1D1002031464F
:102A000002F0A4FEDAF81C1002F098FD0646FFF76B
:102A100080BB3D443B4609E0AB420BD2462E00F062
:102A20004D8105F0C9FD431C04D04678184620218D
:102A3000002EF1D10021DBF8080002F087FECBF870
:102A40000000FFF791BB00200146FEF701FBDBF819
:102A50000040FBE4404602F025FE079902F02AFF01
:102A60000146069802F072FE059902F067FD02F039
:102A7000F9F904460D4603F03FFF06460F4620468F
:102A8000294603F07DFFDDE9022304460D4630466A
:102A9000394602F03BFADDE9082302F085F802F03E
:102AA000F7FCDDE9022306462946204602F02EFA0D
:102AB000DDE90A2302F078F802F0EAFC014630462C
:102AC000FEF7C6FADAF82000DAF82450DBF80060E6
:102AD000014602F03BFE29460446284602F036FE37
:102AE0000146204602F02AFD02F0BCF903F094FFF3
:102AF00002F0CEFC5E49DAF83840DAF83C5002F0D9
:102B000025FE314602F0D6FEA54206462846B8BF4D
:102B1000204602F0C7FD0146304602F0CBFE03F02E
:102B200001F808F10108FEF755FBC14592DA21E4EE
:102B3000DAF81C004F4D002102F0BAFF00283FF4E4
:102B4000FDAA2B780122EA72002B7FF4F7AAFDF789
:102B5000D5FEFFF7F3BA2B780022EA72002B7FF440
:102B6000EDAAFDF76BFFFFF7E9BA3D443B4609E0EC
:102B7000AB420BD25A2E00F0C58005F01DFD431C60
:102B800004D0467818462021002EF1D10020DBF831
:102B9000081002F0DBFD0646FFF7BBBAA0463B4635
:102BA0007E19744609E0B3420CD2592C00F09F8084
:102BB00005F002FD431C05D044782E4A184620211A
:102BC000002CF0D144460020DBF8081002F0BEFDD6
:102BD0000290FFF78BBA3B4607EB050808E0434538
:102BE0000BD2582E79D005F0E7FC431C05D046786F
:102BF000204A18462021002EF1D10020DBF80810D1
:102C000002F0A4FD8146FFF75CBA3D18174A09E0BF
:102C1000AA420BD24D2B00F0988005F0CDFC421C4F
:102C200004D0437810462021002BF1D1082112480E
:102C300001F07CFE01F06EFFFFF72ABB02F012F9F3
:102C4000CDE90201484602F00DF902460B46DDE9E6
:102C5000020103F0DFFE02F01BFC0590384602F093
:102C600001F9CDE902014046B4E400BF648AFF1FC8
:102C7000C0E1644C008AFF1FF4E80000581C05F016
:102C8000ADFB02F005FCDBF80850DAF8148068E4CC
:102C9000581C05F0A3FB02F0FBFB014627E4581C7F
:102CA00005F09CFB02F0F4FBDBF80860A7E6581C7B
:102CB00005F094FB02F0ECFB014664E6581C05F0BD
:102CC0008DFB02F0E5FB0146B5E6581C05F086FBDE
:102CD00002F0DEFBDBF8086074E6581C029205F097
:102CE0007DFB02F0D5FB029A92F8E45086E7581C6F
:102CF000029205F073FB02F0CBFB029A444692F875
:102D0000E45061E7581C05F069FB02F0C1FB3EE7A7
:102D1000581C05F063FB02F0BBFBDB49DB4C02F007
:102D200015FD02F0D9FE266823684FF47A7505FB7D
:102D300000F59B1B9D427FF61DABFDF79DFB2368B5
:102D40009B1BAB42F9D3FFF715BB501C05F046FBAC
:102D500002F09EFB02F0C0FE023871283FF666AF1B
:102D600001A353F820F000BF312F000059300000BC
:102D700059300000413000002D2C00005930000077
:102D8000413000002D2C00002D2C00002D2C0000C7
:102D90002D2C00002D2C00002D2C00002D2C0000CF
:102DA0002D2C00002D2C00002D2C00002D2C0000BF
:102DB0002D2C00002D2C00002D2C00002D2C0000AF
:102DC0002D2C00002D2C00002D2C00002D2C00009F
:102DD0002D2C00002D2C0000312F00002D2C000088
:102DE0002D2C00002D2C00002D2C00002D2C00007F
:102DF0002D2C00002D2C00002D2C00001730000081
:102E0000093000002D2C00002D2C00002D2C00007E
:102E10002D2C00002D2C00002D2C00002D2C00004E
:102E20002D2C00002D2C00002D2C00002D2C00003E
:102E30002D2C00002D2C00002D2C00002D2C00002E
:102E40002D2C00002D2C00002D2C00002D2C00001E
:102E50002D2C00002D2C00002D2C00002D2C00000E
:102E60002D2C00002D2C00002D2C00002D2C0000FE
:102E70002D2C00002D2C00002D2C00002D2C0000EE
:102E80002D2C00002D2C00002D2C00002D2C0000DE
:102E90002D2C00002D2C00002D2C00002D2C0000CE
:102EA0002D2C00002D2C00002D2C00002D2C0000BE
:102EB0002D2C00002D2C00002D2C00002D2C0000AE
:102EC0002D2C00002D2C00002D2C00002D2C00009E
:102ED0002D2C00002D2C00002D2C00002D2C00008E
:102EE0002D2C00002D2C00002D2C00002D2C00007E
:102EF0002D2C00002D2C00002D2C00002D2C00006E
:102F00002D2C00002D2C00002D2C00002D2C00005D
:102F10002D2C00002D2C00002D2C0000D92F00009E
:102F2000A92F00002D2C00002D2C0000392F0000AF
:102F3000FEF73CFDFFF7ACB92821554801F0F6FC3F
:102F400001F0E8FD1521534801F0F0FC01F0E2FD2D
:102F50000421514801F0EAFC01F0DCFDDBF81030FF
:102F6000A3B14E4CA26800925A214D4A0DA805F01B
:102F7000D5FA0DA805F0E4FB01460DA801F0D6FC3A
:102F800001F0C8FD54F80C3F002BEBD1042142485E
:102F900001F0CCFC01F0BEFD3B21424801F0C6FC33
:102FA00001F0B8FDFFF774B9384C00F0B9FB1721F8
:102FB0003D4801F0BBFC01F0ADFD266822683B4BAB
:102FC000921B9A4206D81D46FDF756FA23689B1BB2
:102FD000AB42F9D900BEFEE79AF8E420344B002A50
:102FE0003FF438A993F8641053293FF427A9013A14
:102FF0001744643304E013F8012F532A3FF41EA949
:10300000BB42F8D1FFF726B902238AF8E530FEF774
:10301000ABFAFFF73DB91D4C00238AF8E530FEF707
:10302000A3FA26682268234B921B9A4298BF1D463A
:10303000EDD8FDF721FA23689B1BAB42F9D9E6E7EF
:103040009AF8003000228AF80B20002B7FF420A988
:10305000FDF7F4FCFFF71CB99AF8003001228AF85A
:103060000B20002B7FF414A9FDF748FCFFF710B9E3
:103070000122114B82401340002B7FF407A800234C
:1030800002939946FFF770B800007A44F08AFF1F58
:1030900058E8000084E800009CE800001080FF1F52
:1030A000E0E80000A4E80000E4E600001FA107003B
:1030B000008AFF1F7F841E000F00004002280AD0F4
:1030C00003280ED001287FF4C8A80948FDF7A8F905
:1030D0002478FFF7C7B80748FDF7A2F92478FFF76F
:1030E000C1B80548FDF79CF92478FFF7BBB800BFCD
:1030F000C4E70000E4E7000024E80000684620F090
:1031000007018D4601B45DF8040B8546704700BF8A
:10311000684620F00701054A8D4601B413685DF842
:10312000040B013313608546704700BFF08AFF1F10
:1031300088420ED06AB140EA010313F0030F09D1AF
:10314000032A07D951F8043B40F8043B043A002A0B
:10315000F1D17047DB0707D4012A05D931F8023BCA
:1031600020F8023B023AE5E711F8013B00F8013B89
:10317000013ADFE710B4204C34B939E0002933D1EB
:10318000A368002B34D00C3423686168002BF5D081
:103190008B42A268F7D0002AF5D043EA010010F074
:1031A000030F0DD1032A0BD953F8040B41F8040B7C
:1031B000043A002AE7D043EA010010F0030FF1D0EF
:1031C000C00709D4012A07D933F8020B21F8020BF2
:1031D000023A002AEFD1D6E713F8010B01F8010BF0
:1031E000013A002AE7D1CEE7A268002ACBD0D4E783
:1031F0005DF8044B704700BF30FB0000104A114BD4
:10320000D21A0AD0002013F0030107D1032A05D9EE
:10321000043A43F8041B002AF5D1704713F001016A
:1032200007D1012A05D0023A23F8021B002AEAD16D
:10323000F3E7013A03F8010B002AE4D1EDE700BF00
:103240002C93FF1F008AFF1F2E492F482F4A304B17
:1032500070B4886041F244012E4C4CF220504DF67F
:1032600028164FF4E975D081D68141F238001580D7
:103270005C501A58284942F4F0521A508B781C07B7
:1032800003D58B7843F008038B70244B244A8A249F
:103290002420A021147058701A4619709379980749
:1032A000FCD51E4A9379D906FCD41C498B791B4A5C
:1032B00003F00C03082BF9D10521432311711146AA
:1032C00053718B799A06FCD514498B79134A5B06A6
:1032D000FBD50F4B41F2440141F248044FF0817697
:1032E000052520205E501D51114610708B7903F08A
:1032F0000C030C2BFAD1064A0A4941F2040370BCB4
:10330000D150704700ED00E00000000000200540B3
:10331000007004400000330100D007400040064028
:1033200000500640C000050080F31188704700BFC0
:10333000F0B5204A204B92F805E0204D204F214E59
:10334000214C224822490EF0E00E82F805E092F866
:1033500004E00EF0F80E82F804E01A7802F08C0215
:1033600042F050021A705A7802F09C0242F0400279
:103370005A7093F802E000220EF0E60E4FF0020CB5
:1033800083F802E03A7086F80AC085F8492385F888
:103390001423636923F0030363614369472523F022
:1033A000C003072443614D600C6082F3118862B64C
:1033B000F0BD00BF00F0074000D0074000E100E092
:1033C00000E0074000C0074040F00F4080F00F4091
:1033D00010E000E008B5FFF737FF0A4B1846002859
:1033E00007D0854681B04FF000006FEA00000090E2
:1033F00001B0FFF703FFFFF7BDFEFFF799FF03F0F2
:10340000ABF8FEE70000002010B5041E16DDC4F581
:103410007F40FF3000284FF6FF710DDB8142A8BFCF
:10342000014689B2052000F08DFA06204FF6FF71A3
:10343000BDE8104000F086BA0021F3E705204FF602
:10344000FF7100F07FFA04F57F40FF3000284FF64F
:10345000FF7408DB8442A8BF0446A1B20620BDE881
:10346000104000F06FBA0021F8E700BF10B5041E4D
:1034700016DDC4F57F40FF3000284FF6FF710DDBED
:103480008142A8BF014689B2002000F05BFA01200A
:103490004FF6FF71BDE8104000F054BA0021F3E789
:1034A00000204FF6FF7100F04DFA04F57F40FF3029
:1034B00000284FF6FF7408DB8442A8BF0446A1B27F
:1034C0000120BDE8104000F03DBA0021F8E700BF40
:1034D000164B68469A6920F007018D46D20131B437
:1034E00002D4DB69DB011ED51049114A88691579C0
:1034F000104B114C40F080708861C86940F08070BA
:10350000C861196913781371C1F3811103EB850345
:1035100001EB83031170E15C4BB2032B03D011B1BB
:1035200091680B44936031BC8546704700B00440FD
:10353000F88AFF1F80F00F4058E60000174B6846DE
:103540001A6820F007018D46D20131B402D45B68BD
:10355000DB0120D51149124A08685579114B124CEC
:1035600040F080700860486840F0807048601969D9
:103570005378537101F0030103EB850301EB8303DF
:103580005170E15C4BB2032B05D021B1022B02DC60
:10359000D1680B44D36031BC8546704700A004401D
:1035A000F88AFF1F40F00F4058E600004F4B684676
:1035B0001A6820F007018D461206F1B503D4BDE864
:1035C000F140854670471A68494C22F080021A6023
:1035D0002769A2686669E368BF1A3846F61A02F0DE
:1035E00061F8444902F0B2F80546A069381A02F0C1
:1035F00059F8414902F0AAF80146284601F09EFF19
:1036000002F06AFA051E45DDC5F57F40FF3000284F
:103610004FF6FF713ADB8142A8BF014689B205200F
:1036200000F090F906204FF6FF7100F08BF930465C
:1036300002F038F82F4902F089F80546E069301A9F
:1036400002F030F82C4902F081F80146284601F0DA
:1036500075FF02F041FA051E30DDC5F57F40FF30F1
:1036600000284FF6FF7113DB8142A8BF014689B2E3
:10367000002000F067F901204FF6FF7100F062F9B9
:10368000A761E661BDE8F140854670470021C6E7C5
:103690000021EDE705204FF6FF7100F053F905F525
:1036A0007F40FF3000284FF6FF751BDB8542A8BF27
:1036B0000546A9B2062000F045F9B8E700204FF60C
:1036C000FF7100F03FF905F57F40FF3000284FF60D
:1036D000FF7509DB8542A8BF0546A9B2012000F0AD
:1036E00031F9CDE70021E5E70021F7E7009003403D
:1036F000F88AFF1F00409C450080BB46064B002215
:103700009A61DA6172B6054B1A68502142F00802DC
:103710001A60196062B67047F88AFF1F0090034074
:1037200008B572B60D4B4022196819601A6062B66E
:1037300005204FF6FF7100F005F906204FF6FF71E6
:1037400000F000F900204FF6FF7100F0FBF80120B7
:103750004FF6FF71BDE8084000F0F4B80090034058
:10376000DFF834C14648DCF80030464A23F0807365
:1037700023F4E06343F480732DE9F041CCF800308A
:10378000DCF80030404C414EDFF810E1404D414F35
:1037900023F0877323F4803343F0857343F480333D
:1037A000CCF80030DCF8043023F0807323F4E063BD
:1037B00043F48073CCF80430DCF8043023F08773D2
:1037C00023F4803343F08573002143F480334FF0BA
:1037D0008078CCF8043084F85813C4F808808369E2
:1037E00023F0807323F4E06343F48073836183697F
:1037F00023F0877323F4803343F0857343F48033DD
:103800008361C36923F0807323F4E06343F480731E
:10381000C361C36923F0877323F4803343F0857356
:1038200041F23C0C43F480334FF00078C36184F8DC
:103830005913C4F8088056F80C3043EA080346F8D8
:103840000C304FF0004050234FF0040C0826C2F813
:1038500054C01160D1645160D1605161966084F8A8
:103860003F1360601360DEF81020C2F381122A70EB
:103870003B692A7103F003036B706B71BDE8F08143
:1038800000B004400090034000E100E000700440FC
:10389000F88AFF1F40F00F4000A0044080F00F4066
:1038A00070B4244D244B2548254941F23C0404269C
:1038B0002A5942F080722A5100222C2440F283358A
:1038C0005E651A60DA645A60DA605A61DA615A62D7
:1038D000DA625A63DA635A649D60DC601A615C6183
:1038E0009A615C639A63DC631A64426822F08072B6
:1038F00022F4E06242F480624260826822F08072C8
:1039000022F4E06242F4806282604A6922F08072AE
:1039100022F4E06242F480624A618A6922F0807295
:1039200022F4E06242F4806209208A61186070BC6F
:10393000704700BF007004400080034000B00440A6
:1039400000C00440074B9B6801339BB223B101FBCD
:1039500003F101F50041090C034BC00003449960D9
:10396000704700BF0080034008800340431E032BC4
:1039700013D872B60A4A52F8230060B170B402EB51
:1039800043040588218A466842F823604B1B238242
:1039900062B670BC704762B670470020704700BFC7
:1039A000008CFF1F013803280DD8094B03EB800062
:1039B000836972B64BB100201A885B681044002BF3
:1039C000FAD162B67047002070471846F9E700BF89
:1039D000008CFF1F013803280CD872B6074B03EB8D
:1039E0008000836943B100205B680130002BFBD16C
:1039F00062B67047002070471846F9E7008CFF1F39
:103A000010B472B62B4B1A7812F0080F2A4A06D05F
:103A1000D2F8201251B3D2F82812002938D05978A0
:103A20000C0707D5D2F84012234C00293BD0D4F81C
:103A3000481291B39978090706D5D2F860121E4C46
:103A400099B3D4F8681251B3DB781B0706D5D2F8C6
:103A5000803219495BB3D1F8883213B362B60023C0
:103A600082F8A0325DF8044B00F082BE042392F885
:103A7000A012124C02EBC30308300139C3F8040250
:103A8000C3F8004282F8A01262B65DF8044B70479A
:103A9000052392F8A0120A4CECE70923F9E70D235D
:103AA000F7E71123F5E70823E1E70C23DFE710230D
:103AB000DDE700BF98E60000008CFF1F8800400093
:103AC000C8004000431E032B22D870B41C4C400198
:103AD00004F5007240F01000104472B6E21892F83B
:103AE000A422032A1DD8DFE802F0021417190325C7
:103AF0000E8810F0080F234414BFC822882242EA1F
:103B00000642083183F8A4520260416062B670BC7C
:103B1000704708300225EBE70525E9E70830042562
:103B2000E6E79A00A318986938B1D3F8A83259602B
:103B3000A318C3F8A81262B6E9E79961F8E700BFD5
:103B4000008CFF1F431E032B18D830B40D4C4001CE
:103B500004F5007540F01000284472B6E51895F899
:103B6000A45265B1083000252344120442F08002BB
:103B7000026083F8A452416062B630BC70470125F0
:103B8000F2E700BF008CFF1F684620F007018D465A
:103B90002DE9F14FDFF800B3DFF8009382B0DA4689
:103BA00043E0B84D9E0805EBC607013C7A6803F078
:103BB0000803E4B2A2F1080003F0FF01002B40F07B
:103BC0000F8155F836301B0C22F8083C002B00F012
:103BD000FE805AF824E022F8061C42F8041CBEF1CC
:103BE000000F00F09182A2000AEB0201D1F8D4127A
:103BF00048600BEB44045A44218AC2F8D4020B44B7
:103C0000238200F095FD002800F076829E4A9F4BAB
:103C100017F0080F00F1080008BF1346786045F858
:103C200036309B4B082283F88020994B93F88040D4
:103C3000E4B262071CD59BF8C032ABB19BF8C1223D
:103C400002F0FF032AB1013BDBB28BF8C13203B9AA
:103C500000BE90490A7802F0FF032AB1013BDBB2B3
:103C60000B70002B00F01482894B042283F8802013
:103C700004F0080303F0FF01002B00F0D780844B11
:103C800093F89030DBB21C098BD19B087D4951F829
:103C9000332001EBC300C2F38302013A40680C2ACF
:103CA00000F29080DFE802F084848E8E8E8E8E8EFD
:103CB000488E8E8E070090E8440040F28164CBF875
:103CC000C42292B20020714D41F833500127A24224
:103CD000CBF8C862CBF8CC02CBF81002CBF81802B4
:103CE0008BF8D07200F2DC80B2F5D06F80F0F482F5
:103CF000B2F5817F00F0978200F22782802A00F0DF
:103D0000AB82822A40F09682BAF8C83203F07F0371
:103D1000042B00F28F8230335D4A8AF8B8028AF8A9
:103D2000B90212F823309C0740F1FA838AF8B8727E
:103D30004FF40032022396E2DBF8CC6256B3BAF8B5
:103D4000E6229AF8D0429AF8E412402A154641F049
:103D5000020028BF4025002CA2EB05020AEBC000A0
:103D600014BFC827882793B284F0010447EA0542AC
:103D700081F00101ABF8E6328BF8D042C0F80022A6
:103D8000C0F804628BF8E412002B00F02181731953
:103D9000CBF8CC32BBF8C432B3F5A06F12D13C4B98
:103DA0009BF8C62283F8982000238BF8C53209E0DF
:103DB000BBF8C44242F22102944200F00D81334A22
:103DC00041F83320324B012283F8942029E72E4A10
:103DD0002E4B17F0080F08BF134645F8363020E782
:103DE00000F0C6FC0AEB84008369002B00F0908190
:103DF0000AEB0402596892F8A422816103F10801D8
:103E00007960032A07D8DFE802F03702322D5C44DC
:103E1000022284F8A4221A8817F0080F14BFC823BE
:103E2000882343EA024345F83630FAE6E00700F11A
:103E30003281210600F17E81A20708D5144B93F848
:103E400088200221D2B283F8882083F88010E3060C
:103E500003D50F4B102283F8802002B0BDE8F14F4C
:103E6000854670475C44042284F8A422D3E75C446E
:103E7000052284F8A422CEE75C44032284F8A4221D
:103E8000C9E700BF008EFF1F88004000C800400047
:103E900000200740D592FF1F008CFF1FD020074055
:103EA00042F221039A4200F0EE8000F2C680B2F5A1
:103EB000086F00F00982B2F5106F40F0BB81DAF8AC
:103EC00020329AF8C6228AF8C0221B0600F1E68248
:103ED000DBF828321F0600F1DB82DBF830321E06E9
:103EE00000F1D082DBF838321D0600F1C582DBF824
:103EF00040321C0600F1BA82DBF84832180600F1A5
:103F0000FD82DBF85032190600F1F282DBF85832FC
:103F10001A0600F1E782DBF860321B0600F1DC8252
:103F2000DBF868321F0600F1D182DBF870321E0622
:103F300000F1C682DBF878321D0600F1BB82DBF8A7
:103F400080321C0600F1B082DBF88832180600F1DE
:103F5000E182DBF89032190600F1D682DBF8983264
:103F60001A0600F17D82CA4E06F11803002500935F
:103F700006F52A73019306F529782C46306828B196
:103F8000476800F0F5FB3846002FF9D1009B3460FC
:103F90001868C04B43F8254028B1476800F0E8FB9B
:103FA0003846002FF9D1009A98F800301460019A31
:103FB00042F8044B0192B84A023B22F81540032B09
:103FC00000F2EC80DFE813F02C01E6002C01E600A3
:103FD000402D7FF4DDAEDAE6B04A07784678857882
:103FE000C478567095701770D47014680679457946
:103FF00080795571862C9BF8E4421671907108BF48
:104000000F229BF8D00208BF8AF8C12244F00202B6
:1040100000280BEBC20284F001044FF0000680F090
:10402000010014BFC82588258BF8E442C2F8046259
:104030008BF8D002C2F80052C1E642F221239A4224
:1040400040F09C81964A9749974B14689AF8C6228B
:104050000C601A709BF8E44244F00203DB000BEBA7
:104060000301002F4FF00002C1F804220CBF882189
:10407000C8215B440A4384F00101C3F800228BF895
:10408000E4128BF8D002894B012283F8942099E640
:1040900000F066FDE8E57E4B844A854C83F8E41227
:1040A000FF204FF002084FF00D0C9F26012503F56D
:1040B0003A7E03F54A7782F89480C3F8101282F8AA
:1040C000C0C0C3F8181282F88800C3F804E282F86E
:1040D0008000C3F80C7282F89810C3F8004282F88E
:1040E0008C00C3F8084282F8846082F8945002B0D1
:1040F000BDE8F14F854670479BF8A03245F8360081
:1041000001338BF8A0328CE54AF82400A20070E558
:104110000AEB040393F8A432032B00F2948001A26B
:1041200052F823F0233C0000233C00008B410000A8
:10413000814100005D4B80220D2183F8C01083F87F
:104140008020A2077FF583AE78E640F202339A42E0
:1041500040F00D81BAF8C83203F07F03042B69D810
:10416000BAF8C602002865D19B0003F1804303F52D
:10417000E42393F8C02042F0020283F8C02069E7EC
:104180005C44012384F8A4324BE55C44002384F8AA
:10419000A43246E54FF0010388F80030009B01355A
:1041A0000433042D06F10406009308F101087FF49E
:1041B000E5AE404C404A2378137000221B078BF871
:1041C000A02200F1088163783C4A1F0713704FF06A
:1041D0000002CBF83022CBF8382200F12A81A378F4
:1041E000374A1E0713704FF00002CBF85022CBF86D
:1041F000582200F10781E37889F8003000221D077A
:10420000CBF87022CBF8782200F1CE809BF8D072E8
:10421000002387F00100CBF89032CBF8983219E7F1
:1042200088F80040BAE7BAF8C83203F07F03042BDD
:1042300040F2A9801D4B0F2283F8C0201B4B0122A6
:1042400083F89420BEE517F0080F5C4414BF0323E5
:10425000022384F8A432E4E48AF8B8028AF8B902A6
:104260004FF400320223BBF8CA129BF8E442154D0A
:10427000994244F002034FEAC30380F0BB810BEB89
:1042800003000A04C0F80452C8210020F1E600BF70
:10429000008CFF1FD48EFF1F108CFF1FDC92FF1FAE
:1042A000F08AFF1FD892FF1FD692FF1F0020074001
:1042B0008800400098E60000C4200740C82007405E
:1042C000CC200740B88EFF1F9AF8C0328AF8B83267
:1042D0004FF480323B46C6E7CA4B58680028A9D045
:1042E000BAF8C612BAF8C84203E00C33586800287E
:1042F000A0D01A888A42F8D15A88A242F5D1090A78
:1043000003290CBF02781A89BBF8CA329BF8E41261
:104310009A4228BF1A46402A154641F0020628BF95
:1043200040250BEBC6062F0447F0C80781F00103B8
:104330000024521BC6F80402C6F8007228448BF809
:10434000E4328BF8D04240F0EF80402D7FF49BAEFA
:1043500043F002030BEBC30388240122C3F80402D9
:104360008BF8E412C3F800428BF8D0228BE6B2F54A
:10437000A06F7FF45FAF002001276BE642F221338C
:104380009A42F8D056E7BAF8C60200287FF452AF36
:104390009B0003F1804303F5E42393F8C02002F06F
:1043A000FD0283F8C02055E600F0C2F9002800F0B5
:1043B00005810830CBF884029348CBF8800200F0E6
:1043C000B7F9002800F0C8800830904BCBF88C0279
:1043D000CBF888321AE700F0ABF9002800F0E8804B
:1043E0000830CBF824028848CBF8200200F0A0F96E
:1043F000002800F0D5800830844BCBF82C02CBF895
:104400002832E0E600F094F9002800F0C38008307C
:10441000CBF864027C48CBF8600200F089F90028F0
:1044200000F0B0800830794BCBF86C02CBF86832E2
:10443000E1E600F07DF9002800F09E800830CBF81E
:1044400044027148CBF8400200F072F9002800F0F5
:104450008B8008306D4BCBF84C02CBF84832BEE66F
:10446000DBF89C02083800F083F97CE5DBF84402B5
:10447000083800F07DF93FE5DBF83C02083800F031
:1044800077F934E5DBF83402083800F071F929E5F2
:10449000DBF82C02083800F06BF91EE5DAF824028C
:1044A000083800F065F913E5DBF88402083800F0FD
:1044B0005FF949E5DBF87C02083800F059F93EE580
:1044C000DBF87402083800F053F933E5DBF86C02CE
:1044D000083800F04DF928E5DBF86402083800F0F0
:1044E00047F91DE5DBF85C02083800F041F912E5F8
:1044F000DBF85402083800F03BF907E5DBF84C0222
:10450000083800F035F9FCE4DBF89402083800F0D4
:104510002FF923E5DBF88C02083800F029F918E5BB
:104520004FF4003202239EE6402A4DD943F00203A5
:104530000BEBC303403A344EC3F80402012594B296
:104540008BF8E4124030C3F800628BF8D052CBF8FD
:10455000CC02ABF8E64296E59BF8A032CBF8880295
:1045600001338BF8A03251E69BF8A032CBF8480219
:1045700001338BF8A03232E69BF8A03201338BF87E
:10458000A0325FE79BF8A032CBF8680201338BF8CA
:10459000A03230E69BF8A03201338BF8A0323AE724
:1045A0009BF8A032CBF8280201338BF8A0320AE640
:1045B0009BF8A03201338BF8A03215E79BF8A032AC
:1045C00001338BF8A032F8E643F002030BEBC30390
:1045D0004FEA024545F088054FF00106C3F8040292
:1045E0008BF8E4121044C3F800528BF8D0627FF4C9
:1045F0004AADACE70BEB03010020C1F80452C8211F
:1046000037E500BF9CE6000088004000C80040007D
:10461000424B434841F234010022F0B5C3F8002276
:10462000C3F80422C3F80822C3F80C22C3F81022EE
:10463000C3F81422C3F81822C3F81C22C3F820229E
:10464000C3F82422C3F82822C3F82C22C3F830224E
:10465000C3F83422C3F83822C3F83C22C3F84022FE
:10466000C3F84422C3F84822C3F84C22C3F85022AE
:10467000C3F85422C3F85822C3F85C22C3F860225E
:10468000C3F86422C3F86822C3F86C22C3F870220E
:10469000C3F87422C3F87822C3F87C22C3F88022BE
:1046A000C3F8842243581F4C43F48023435041F203
:1046B000040241F248068358052743F4A0238025CD
:1046C00083502146875184F80C5191F80C31154ADA
:1046D0001B06FAD4144B1548FF21C3F3072CC3F370
:1046E000074E012500241B0E4FF40077102682F898
:1046F0009CC082F8B0E082F8B43082F8801082F872
:104700008810117482F8945082F8004182F8845025
:1047100080F84943876082F80861F0BD008CFF1F74
:104720000070044000200740008EFF1F00E100E001
:1047300072B60D480268B2FA82F30B2B10DC4FF010
:104740000041D94022EA0102026062B6074803EB49
:10475000C303DB00C2180021C150104651607047EE
:1047600062B60020704700BF0881FF1F688FFF1FDF
:104770000D4B0E4AC31AA2FB03231B090B2B0CD8AB
:104780000B4A127852B972B60A484FF000410268DB
:1047900021FA03F31A43026062B67047064A1278A0
:1047A000002AF0D0FFF72CB9688FFF1F398EE3384D
:1047B000A08EFF1F0881FF1FC08EFF1F38B50F4D51
:1047C000286878B143880288C118013393420C7A73
:1047D00002D24380204638BDFFF7CAFF002320469F
:1047E0002B6038BD064B1B782BB10320FFF7BEF8BA
:1047F00028600028E6D14FF0FF3038BDC892FF1F77
:10480000C08EFF1F10B5094C206818B143881844AA
:10481000007A10BD064B1B782BB10320FFF7A6F8DA
:1048200020600028F2D14FF0FF3010BDC892FF1F6A
:10483000C08EFF1F044B054A1B6890881BB11A8865
:104840005B88D31A18447047C892FF1F108CFF1F53
:104850002DE9F84F0E46002945D0DFF890A09AF8D0
:10486000003003F0FF0823B3DFF884904FF0000816
:10487000D9F800400746C3461CB3258861886D1AE5
:10488000B54228BF354608312A463846214401F052
:1048900069F9638822882B449BB29A42A844A6EB0C
:1048A00005062F44638017D91EB19AF80030002BFB
:1048B000E2D14046BDE8F88F0588002DDED1FFF734
:1048C00057FF0320FFF752F80446C9F800000028FC
:1048D000F2D14046BDE8F88F2046FFF749FF00249B
:1048E000C9F800B0E0E70846BDE8F88FC08EFF1FAA
:1048F000C892FF1F0B4B1B789BB110B50A4C206868
:1049000048B1FFF735FF002303202360FFF72EF89F
:1049100030B1FFF72DFF0320FFF728F80028F8D16A
:1049200010BD7047C08EFF1FC892FF1F2DE9F04FCA
:104930005F4D83B001232B71019100296DD0044696
:104940005C4FA8680E46002800F083804188C1F1C2
:104950004002B24228BF324601EB020E1FFA8EFE21
:1049600001F108034FF00008B61AA0F802E002F1C6
:10497000FF3C034485F80C80002A47D00C310144E9
:1049800004F1040E8C4238BF73452CBF0121002175
:10499000092A94BF002101F00101994600294FD056
:1049A00043EA040189074BD1A2F1040E4FEA9E0E9F
:1049B0000EF1010EBCF1020F4FEA8E0A3ED94146BC
:1049C0009B46A4F10408013158F8043F49F8043B20
:1049D0008E45F8D85B4652455344CAEB0C0C04EBA9
:1049E0000A015DD091F800E083F800E0BCF1000F0F
:1049F00022D091F801E083F801E0BCF1010F1BD057
:104A0000897899702244B0F802E01446BEF13F0F55
:104A100009D805236B73002E95D1019800232B71C3
:104A200003B0BDE8F08F4023038001460420FFF768
:104A300049F80020A860ECE72244E4E72146D1E7EA
:104A4000013B224414F8011B03F8011F9442F9D1E1
:104A5000D9E748F601484FF0010904E0B8F1010830
:104A600017D02B7BABB93B78042003F0FF02CBB10E
:104A7000FEF7B0FF0728F1D885F80490FFF758FE3D
:104A8000A86000287FF462AF094BB8F101081871E3
:104A9000E7D101234FF0FF302B7303B0BDE8F08F57
:104AA0000A46B0E74FF0FF302A7103B0BDE8F08F3F
:104AB000C892FF1FC08EFF1F00B583B002AB01215B
:104AC00003F8010D1846FFF731FF03B05DF804FB52
:104AD00010B50E4CA0680123237128B14088002333
:104AE0002371C0F1400010BD094B1B7813B90020A1
:104AF000207110BD0420FEF76DFF0728F7D8FFF7DF
:104B000017FEA0600028E9D1F1E700BFC892FF1F9F
:104B1000C08EFF1F104B1B788BB170B50F4CA56872
:104B20000126267165B100266B88667329462B80A5
:104B30000420FEF7C7FFA6600023237170BD7047F5
:104B4000FFF7F6FD28B1014604206573FEF7BAFFB2
:104B5000F2E76673F0E700BFC08EFF1FC892FF1F29
:104B600038B50D4C237903F0FF0553B9A16849B15D
:104B70004B880B800420FEF7A5FFA56038BD0123FC
:104B8000637338BDFFF7D4FD0028F8D00146BDE8B7
:104B900038400420FEF796BFC892FF1F81F0004105
:104BA00002E000BF83F0004330B54FEA41044FEA12
:104BB000430594EA050F08BF90EA020F1FBF54EAAD
:104BC000000C55EA020C7FEA645C7FEA655C00F049
:104BD000E2804FEA5454D4EB5555B8BF6D420CDD1A
:104BE0002C4480EA020281EA030382EA000083EA9D
:104BF000010180EA020281EA0303362D88BF30BD3D
:104C000011F0004F4FEA01314FF4801C4CEA113192
:104C100002D0404261EB410113F0004F4FEA0333F1
:104C20004CEA133302D0524263EB430394EA050F7C
:104C300000F0A780A4F10104D5F1200E0DDB02FAEB
:104C40000EFC22FA05F2801841F1000103FA0EF27F
:104C5000801843FA05F359410EE0A5F120050EF145
:104C6000200E012A03FA0EFC28BF4CF0020C43FA76
:104C700005F3C01851EBE37101F0004507D54FF083
:104C8000000EDCF1000C7EEB00006EEB0101B1F5D3
:104C9000801F1BD3B1F5001F0CD349085FEA300019
:104CA0004FEA3C0C04F101044FEA445212F5800F24
:104CB00080F09A80BCF1004F08BF5FEA500C50F1C1
:104CC000000041EB045141EA050130BD5FEA4C0CA4
:104CD000404141EB010111F4801FA4F10104E9D12D
:104CE00091F0000F04BF01460020B1FA81F308BF24
:104CF0002033A3F10B03B3F120020CDA0C3208DDF0
:104D000002F1140CC2F10C0201FA0CF021FA02F1CA
:104D10000CE002F11402D8BFC2F1200C01FA02F13A
:104D200020FA0CFCDCBF41EA0C019040E41AA2BF5F
:104D300001EB0451294330BD6FEA04041F3C1CDA27
:104D40000C340EDC04F11404C4F1200220FA04F047
:104D500001FA02F340EA030021FA04F345EA0301F1
:104D600030BDC4F10C04C4F1200220FA02F001FAB3
:104D700004F340EA0300294630BD21FA04F0294635
:104D800030BD94F0000F83F4801306BF81F48011CE
:104D90000134013D4EE77FEA645C18BF7FEA655C41
:104DA00029D094EA050F08BF90EA020F05D054EA13
:104DB000000C04BF1946104630BD91EA030F1EBF18
:104DC0000021002030BD5FEA545C05D1400049411C
:104DD00028BF41F0004130BD14F580043CBF01F50F
:104DE000801130BD01F0004545F0FE4141F47001F5
:104DF0004FF0000030BD7FEA645C1ABF19461046D0
:104E00007FEA655C1CBF0B46024650EA013406BFD0
:104E100052EA033591EA030F41F4002130BD00BF8F
:104E200090F0000F04BF0021704730B54FF480644C
:104E300004F132044FF000054FF0000150E700BFCD
:104E400090F0000F04BF0021704730B54FF480642C
:104E500004F1320410F0004548BF40424FF0000119
:104E60003EE700BF42004FEAE2014FEA31014FEA5C
:104E700002701FBF12F07F4393F07F4F81F06051AB
:104E8000704792F0000F14BF93F07F4F704730B51A
:104E90004FF4607401F0004521F0004120E700BFAD
:104EA00050EA010208BF704730B54FF000050AE034
:104EB00050EA010208BF704730B511F0004502D535
:104EC000404261EB41014FF4806404F132045FEA37
:104ED000915C3FF4DCAE4FF003025FEADC0C18BFDC
:104EE00003325FEADC0C18BF033202EBDC02C2F1D2
:104EF000200300FA03FC20FA02F001FA03FE40EA64
:104F00000E0021FA02F11444C1E600BF70B54FF063
:104F1000FF0C4CF4E06C1CEA11541DBF1CEA135545
:104F200094EA0C0F95EA0C0F00F0DEF82C4481EAAD
:104F3000030621EA4C5123EA4C5350EA013518BFCD
:104F400052EA033541F4801143F4801338D0A0FBBA
:104F500002CE4FF00005E1FB02E506F00042E0FB67
:104F600003E54FF00006E1FB03569CF0000F18BF6D
:104F70004EF0010EA4F1FF04B6F5007F64F5407415
:104F800004D25FEA4E0E6D4146EB060642EAC621A8
:104F900041EA55514FEAC52040EA5E504FEACE2E15
:104FA000B4F1FD0C88BFBCF5E06F1ED8BEF1004F18
:104FB00008BF5FEA500E50F1000041EB045170BD94
:104FC00006F0004646EA010140EA020081EA0301D8
:104FD000B4EB5C04C2BFD4EB0C0541EA045170BDD4
:104FE00041F480114FF0000E013C00F3AB8014F14E
:104FF000360FDEBF002001F0004170BDC4F1000497
:10500000203C35DA0C341BDC04F11404C4F1200517
:1050100000FA05F320FA04F001FA05F240EA020072
:1050200001F0004221F0004110EBD37021FA04F6A8
:1050300042EB06015EEA430E08BF20EAD37070BD62
:10504000C4F10C04C4F1200500FA04F320FA05F0C1
:1050500001FA04F240EA020001F0004110EBD370C3
:1050600041F100015EEA430E08BF20EAD37070BD33
:10507000C4F1200500FA05F24EEA020E20FA04F30C
:1050800001FA05F243EA020321FA04F001F00041BB
:1050900021FA04F220EA020000EBD3705EEA430E2C
:1050A00008BF20EAD37070BD94F0000F0FD101F05B
:1050B0000046400041EB010111F4801F08BF013C94
:1050C000F7D041EA060195F0000F18BF704703F0D2
:1050D0000046520043EB030313F4801F08BF013D59
:1050E000F7D043EA0603704794EA0C0F0CEA135515
:1050F00018BF95EA0C0F0CD050EA410618BF52EACF
:105100004306D1D181EA030101F000414FF00000D4
:1051100070BD50EA410606BF1046194652EA4306E2
:1051200019D094EA0C0F02D150EA013613D195EA56
:105130000C0F05D152EA03361CBF104619460AD19E
:1051400081EA030101F0004141F0FE4141F47001A8
:105150004FF0000070BD41F0FE4141F4780170BD98
:1051600070B54FF0FF0C4CF4E06C1CEA11541DBFFD
:105170001CEA135594EA0C0F95EA0C0F00F0A7F8FF
:10518000A4EB050481EA030E52EA03354FEA01312C
:1051900000F088804FEA03334FF0805545EA13133F
:1051A00043EA12634FEA022245EA111545EA106507
:1051B0004FEA00260EF000419D4208BF964244F19E
:1051C000FD0404F5407402D25B084FEA3202B61ABD
:1051D00065EB03055B084FEA32024FF480104FF491
:1051E000002CB6EB020E75EB030E22BFB61A754605
:1051F00040EA0C005B084FEA3202B6EB020E75EB98
:10520000030E22BFB61A754640EA5C005B084FEAFF
:105210003202B6EB020E75EB030E22BFB61A7546CC
:1052200040EA9C005B084FEA3202B6EB020E75EBD7
:10523000030E22BFB61A754640EADC0055EA060E98
:1052400018D04FEA051545EA16754FEA06164FEADB
:10525000C30343EA52734FEAC2025FEA1C1CC0D187
:1052600011F4801F0BD141EA00014FF000004FF014
:10527000004CB6E711F4801F04BF01430020B4F1D5
:10528000FD0C88BFBCF5E06F3FF6AFAEB5EB030C8D
:1052900004BFB6EB020C5FEA500C50F1000041EB8A
:1052A000045170BD0EF0004E4EEA113114EB5C0457
:1052B000C2BFD4EB0C0541EA045170BD41F480112A
:1052C0004FF0000E013C90E645EA060E8DE60CEA32
:1052D000135594EA0C0F08BF95EA0C0F3FF43BAF4F
:1052E00094EA0C0F0AD150EA01347FF434AF95EA06
:1052F0000C0F7FF425AF104619462CE795EA0C0FEA
:1053000006D152EA03353FF4FDAE1046194622E7B6
:1053100050EA410618BF52EA43067FF4C5AE50EA90
:1053200041047FF40DAF52EA43057FF4EBAE12E780
:105330004FF0FF3C06E000BF4FF0010C02E000BF61
:105340004FF0010C4DF804CD4FEA410C7FEA6C5C44
:105350004FEA430C18BF7FEA6C5C1BD001B050EAE7
:10536000410C0CBF52EA430C91EA030F02BF90EAD2
:10537000020F0020704710F1000F91EA030F58BF91
:10538000994208BF90422CBFD8176FEAE37040F0F3
:10539000010070474FEA410C7FEA6C5C02D150EA91
:1053A000013C07D14FEA430C7FEA6C5CD6D152EA4C
:1053B000033CD3D05DF8040B704700BF8446104611
:1053C00062468C461946634600E000BF01B5FFF710
:1053D000B7FF002848BF10F1000F01BD4DF808EDE0
:1053E000FFF7F4FF0CBF012000205DF808FB00BFB1
:1053F0004DF808EDFFF7EAFF34BF012000205DF80B
:1054000008FB00BF4DF808EDFFF7E0FF94BF012057
:1054100000205DF808FB00BF4DF808EDFFF7CEFF58
:1054200094BF012000205DF808FB00BF4DF808ED97
:10543000FFF7C4FF34BF012000205DF808FB00BF68
:105440004FEA410212F5001215D211D56FF47873AC
:10545000B3EB625212D94FEAC12343F0004343EA4F
:10546000505311F0004F23FA02F018BF404270472A
:105470004FF00000704750EA013005D111F00040B4
:1054800008BF6FF0004070474FF00000704700BF4A
:105490004FEA4102B2F1E04324BFB3F5001CDCF156
:1054A000FE5C0DD901F0004C4FEAC0024CEA50708E
:1054B000B2F1004F40EB830008BF20F001007047BD
:1054C00011F0804F21D113F13872BCBF01F00040C0
:1054D000704741F480114FEA5252C2F11802C2F1F2
:1054E000200C10FA0CF320FA02F018BF40F0010073
:1054F0004FEAC1234FEAD32303FA0CFC40EA0C0025
:1055000023FA02F34FEA4303CCE77FEA625307D161
:1055100050EA01331EBF4FF0FE4040F44000704798
:1055200001F0004040F0FE4040F40000704700BF32
:1055300080F0004002E000BF81F0004142001FBF48
:105540005FEA410392EA030F7FEA226C7FEA236C51
:105550006AD04FEA1262D2EB1363C1BFD218414046
:1055600048404140B8BF5B42192B88BF704710F0DC
:10557000004F40F4000020F07F4018BF404211F07F
:10558000004F41F4000121F07F4118BF494292EAE7
:10559000030F3FD0A2F1010241FA03FC10EB0C0013
:1055A000C3F1200301FA03F100F0004302D54942A0
:1055B00060EB4000B0F5000F13D3B0F1807F06D34D
:1055C00040084FEA310102F10102FE2A51D2B1F145
:1055D000004F40EBC25008BF20F0010040EA03003A
:1055E0007047490040EB000010F4000FA2F10102E7
:1055F000EDD1B0FA80FCACF1080CB2EB0C0200FA71
:105600000CF0AABF00EBC25052421843BCBFD040BE
:105610001843704792F0000F81F4000106BF80F438
:1056200000000132013BB5E74FEA41037FEA226CFB
:1056300018BF7FEA236C21D092EA030F04D092F0C6
:10564000000F08BF0846704790EA010F1CBF0020FA
:10565000704712F07F4F04D1400028BF40F0004057
:10566000704712F100723CBF00F50000704700F077
:10567000004343F0FE4040F4000070477FEA22629E
:1056800016BF08467FEA23630146420206BF5FEA6F
:10569000412390EA010F40F4800070474FF000036F
:1056A00004E000BF10F0004348BF40425FEA000C36
:1056B00008BF704743F0964301464FF000001CE0DE
:1056C00050EA010208BF70474FF000030AE000BF34
:1056D00050EA010208BF704711F0004302D5404272
:1056E00061EB41015FEA010C02BF844601460020E4
:1056F00043F0B64308BFA3F18053A3F50003BCFAFF
:105700008CF2083AA3EBC25310DB01FA02FC6344AB
:1057100000FA02FCC2F12002BCF1004F20FA02F2B2
:1057200043EB020008BF20F00100704702F12002A5
:1057300001FA02FCC2F1200250EA4C0021FA02F206
:1057400043EB020008BF20EADC7070474FF0FF0C0B
:105750001CEAD0521EBF1CEAD15392EA0C0F93EA06
:105760000C0F6FD01A4480EA010C400218BF5FEAA8
:1057700041211ED04FF0006343EA501043EA51111B
:10578000A0FB01310CF00040B1F5000F3EBF490015
:1057900041EAD3715B0040EA010062F17F02FD2A19
:1057A0001DD8B3F1004F40EBC25008BF20F00100FC
:1057B000704790F0000F0CF0004C08BF49024CEA13
:1057C000502040EA51207F3AC2BFD2F1FF0340EAA5
:1057D000C250704740F400004FF00003013A5DDC16
:1057E00012F1190FDCBF00F000407047C2F1000257
:1057F000410021FA02F1C2F1200200FA02FC5FEA44
:10580000310040F1000053EA4C0308BF20EADC708D
:10581000704792F0000F00F0004C02BF400010F4FF
:10582000000F013AF9D040EA0C0093F0000F01F0AC
:10583000004C02BF490011F4000F013BF9D041EACE
:105840000C018FE70CEAD15392EA0C0F18BF93EAD0
:105850000C0F0AD030F0004C18BF31F0004CD8D1FA
:1058600080EA010000F00040704790F0000F17BF81
:1058700090F0004F084691F0000F91F0004F14D0C7
:1058800092EA0C0F01D142020FD193EA0C0F03D11F
:105890004B0218BF084608D180EA010000F0004022
:1058A00040F0FE4040F40000704740F0FE4040F4FD
:1058B000400070474FF0FF0C1CEAD0521EBF1CEA9C
:1058C000D15392EA0C0F93EA0C0F69D0A2EB0302BA
:1058D00080EA010C49024FEA402037D04FF0805354
:1058E00043EA111143EA10130CF000408B4238BF19
:1058F0005B0042F17D024FF4000C8B4224BF5B1A27
:1059000040EA0C00B3EB510F24BFA3EB510340EA74
:105910005C00B3EB910F24BFA3EB910340EA9C0022
:10592000B3EBD10F24BFA3EBD10340EADC001B0192
:1059300018BF5FEA1C1CE0D1FD2A3FF650AF8B4236
:1059400040EBC25008BF20F0010070470CF0004C43
:105950004CEA50207F32C2BFD2F1FF0340EAC2506E
:10596000704740F400004FF00003013A37E792F02F
:10597000000F00F0004C02BF400010F4000F013A8D
:10598000F9D040EA0C0093F0000F01F0004C02BF88
:10599000490011F4000F013BF9D041EA0C0195E7F1
:1059A0000CEAD15392EA0C0F08D142027FF47DAF8A
:1059B00093EA0C0F7FF470AF084676E793EA0C0F7A
:1059C00004D14B023FF44CAF08466EE730F0004C78
:1059D00018BF31F0004CCAD130F000427FF45CAF08
:1059E00031F000437FF43CAF5FE700BF4FF0FF3C76
:1059F00006E000BF4FF0010C02E000BF4FF0010CC9
:105A00004DF804CD4FEA40024FEA41037FEA226C91
:105A100018BF7FEA236C11D001B052EA530C18BFB3
:105A200090EA010F58BFB2EB030088BFC81738BF18
:105A30006FEAE17018BF40F0010070477FEA226C06
:105A400002D15FEA402C05D17FEA236CE4D15FEA02
:105A5000412CE1D05DF8040B704700BF8446084636
:105A60006146FFE70FB5FFF7C9FF002848BF10F1F7
:105A7000000F0FBD4DF808EDFFF7F4FF0CBF01203C
:105A800000205DF808FB00BF4DF808EDFFF7EAFFC6
:105A900034BF012000205DF808FB00BF4DF808ED81
:105AA000FFF7E0FF94BF012000205DF808FB00BF76
:105AB0004DF808EDFFF7D2FF94BF012000205DF8FC
:105AC00008FB00BF4DF808EDFFF7C8FF34BF012009
:105AD00000205DF808FB00BF4FEA4002B2F1FE4F24
:105AE0000FD34FF09E03B3EB12620DD94FEA0023A0
:105AF00043F0004310F0004F23FA02F018BF404279
:105B000070474FF00000704712F1610F01D142025F
:105B100005D110F0004008BF6FF0004070474FF013
:105B20000000704742000ED2B2F1FE4F0BD34FF08F
:105B30009E03B3EB126209D44FEA002343F0004303
:105B400023FA02F070474FF00000704712F1610F26
:105B500001D1420202D14FF0FF3070474FF00000F8
:105B6000704700BF844641EA000313F003036DD180
:105B7000403A41D351F8043B40F8043B51F8043B10
:105B800040F8043B51F8043B40F8043B51F8043B17
:105B900040F8043B51F8043B40F8043B51F8043B07
:105BA00040F8043B51F8043B40F8043B51F8043BF7
:105BB00040F8043B51F8043B40F8043B51F8043BE7
:105BC00040F8043B51F8043B40F8043B51F8043BD7
:105BD00040F8043B51F8043B40F8043B51F8043BC7
:105BE00040F8043B51F8043B40F8043B51F8043BB7
:105BF00040F8043B403ABDD2303211D351F8043B57
:105C000040F8043B51F8043B40F8043B51F8043B96
:105C100040F8043B51F8043B40F8043B103AEDD205
:105C20000C3205D351F8043B40F8043B043AF9D256
:105C3000043208D0D2071CBF11F8013B00F8013B29
:105C400001D30B8803806046704700BF082A13D336
:105C50008B078DD010F003038AD0C3F10403D21A4E
:105C6000DB071CBF11F8013B00F8013B80D331F882
:105C7000023B20F8023B7BE7043AD9D3013A11F802
:105C8000013B00F8013BF9D20B7803704B7843706D
:105C90008B788370604670470000000000000000B1
:105CA000A2EB0300704700BF02780B78012A28BFDF
:105CB0009A42F5D16DE9044540EA0104CDE9026755
:105CC0006FF0000C4FEA447212B380EA010414F042
:105CD000070F6AD100F0070420F0070004F0030565
:105CE00021F007014FEAC505F0E8042314F0040F82
:105CF000F1E804670CFA05F462EA040266EA0406B5
:105D00000AD063EA0403624667EA0407664603E0D2
:105D1000F0E80423F1E8046782FA4CF582EA06040D
:105D2000A4FA8CF46CBB83FA4CF583EA0705A5FA58
