:10000000000000209934000089310000893100008F
:1000100089310000893100008931000089310000F8
:1000200089310000893100008931000089310000E8
:100030008931000089310000893100009D310000C4
:1000400089310000893100008931000089310000C8
:1000500089310000893100008931000089310000B8
:1000600089310000893100008931000089310000A8
:100070008931000089310000893100008931000098
:100080008931000089310000893100008931000088
:100090008931000089310000893100008931000078
:1000A0008931000089310000893100008931000068
:1000B0008931000089310000893100008931000058
:1000C0008931000089310000893100008931000048
:1000D0008931000089310000893100008931000038
:1000E0008931000089310000893100008931000028
:1000F0008931000089310000893100008931000018
:100100008931000089310000893100008931000007
:1001100089310000893100008931000089310000F7
:1001200089310000893100008931000089310000E7
:1001300089310000893100008931000091360000CA
:1001400089310000893100008931000089310000C7
:1001500089310000893100008931000089310000B7
:1001600089310000415500008931000089310000CB
:100170008931000089310000893100008931000097
:100180008931000089310000893100008931000087
:100190008931000089310000893100008931000077
:1001A00021360000B535000089310000893100009A
:0C01B00089310000893100008931000015
:10040000FFFFFFFFFFFFFFFFFFFFFFFF7EFBFFFF81
:1004200010B5044603F0AAFF00B910BD204603F042
:10043000E1FDBDE8104003F0E9BC00BF034A1168CC
:1004400013685B1A8342FBD3704700BFF08CFF1F19
:10045000074B0849084A10B401244FF07E50196038
:100460001C710021986011705DF8044B704700BF4B
:100470000080FF1F0000B442008CFF1F2DE9F047F1
:10048000964B974C1B69627883F00203C3F34003D9
:100490009A4208D0934D002229686160227243B9C4
:1004A0006370BDE8F087002BFAD0227A52B96168F8
:1004B0008C4D2A6841F28830521A824202D90122B8
:1004C00062722272A27A8649002AE9D1854D4E686D
:1004D0002A688548921B8242E2D901238B7203F07D
:1004E00091F903F04BFF20B1804803F083FD03F046
:1004F0008DFCD5F800E02A687D4BCEEB02029A42D3
:1005000000F23A81A07A6178227A677A66680028D8
:1005100040F03D81DFF8C491DFF8CC81184641F20C
:10052000883A09E02E6893B91A462968CEEB010C87
:100530008445194600F22081D9F8103083F0020377
:10054000C3F340038B42EDD10029EED02AB92A68CB
:10055000921B524500F212810022D5F800C0C6EB72
:100560000C0CC445E1D9012361702272A37266604C
:10057000677203F047F903F001FF002840F00181A2
:10058000D5F800E02A685A4BCEEB02029A4200F2FC
:100590008581A07A6178227A6668677A002840F0BF
:1005A0001681DFF83891DFF84081184641F2883A29
:1005B00009E02E6893B91A462968CEEB010C8445F0
:1005C000194600F26B81D9F8103083F00203C3F3AF
:1005D00040038B42EDD10029EED02AB92A68921B44
:1005E000524500F2C6800022D5F800C0C6EB0C0CC4
:1005F000C445E1D9012361702272A37266606772FB
:1006000003F000F903F0BAFE20B1384803F0F2FC21
:1006100003F0FCFBD5F800E02A68354BCEEB020274
:100620009A4200F23D81A17A6078227A6668677A00
:10063000002940F01381DFF8A490DFF8AC80194660
:1006400041F2883A09E02E6893B91A462868CEEB41
:10065000000C8C45184600F22381D9F8103083F045
:100660000203C3F340039842EDD10028EED02AB92B
:100670002A68921B524500F2E3800022D5F800C0A0
:10068000C6EB0C0CC445E1D9012360702272A37241
:100690006660677203F0B6F803F070FE20B113488D
:1006A00003F0A8FC03F0B2FBD5F800E02A68104B79
:1006B000CEEB02029A4200F2C180A07A61786668AD
:1006C000677A227A002840F0A580DFF81090DFF8E2
:1006D0001880184641F2883A16E000BFC0F00F407B
:1006E000008CFF1FF08CFF1F60E316002400010048
:1006F0001FA107002E6893B91A462968CEEB010C9A
:100700008445194600F29A80D9F8103083F002032C
:10071000C3F340038B42EDD10029EED022B92A6801
:10072000921B524573D80022D5F800C0C6EB0C0CC2
:10073000C445E2D9012361702272A37266606772B8
:1007400003F060F803F01AFE20B1564803F052FCA3
:1007500003F05CFB2E682A68534B921B9A4206D822
:100760001C46FFF78BFE2B689B1BA342F9D900BEEA
:10077000FEE701273A4637E700BEFEE701273A4683
:10078000EBE6484803F036FC03F040FBF8E6474F41
:10079000184641F2883C08E02E688BB91A462C684E
:1007A000CEEB040484421946E6D83B6983F0020389
:1007B000C3F340038B42EFD10029F0D0002AEED1E1
:1007C0002A68921B62458CBF01220022E7E7374F5F
:1007D000184641F2883C08E02E688BB91A462C680E
:1007E000CEEB04048442194658D83B6983F00203D7
:1007F000C3F340038B42EFD10029F0D0002AEED1A1
:100800002A68921B62458CBF01220022E7E701277C
:100810003A4689E7254F184641F2883C3B6983F008
:100820000203C3F340038B420DD02E687BB91A46F6
:100830002C68CEEB040484421946EFD900BEFEE7D3
:1008400001273A461AE70029F2D0002AF0D12A6897
:10085000921B62458CBF01220022E9E7134F194623
:1008600041F2883C08E02E688BB91A462C68CEEB22
:1008700004048C42184613D83B6983F00203C3F387
:1008800040039842EFD1002BF0D0002AEED12A6825
:10089000921B62458CBF01220022E7E700BEFEE703
:1008A00000BEFEE7240001001FA10700C0F00F40BA
:1008B00070B502F0A7FF03F061FD78B90A4D0B4B4C
:1008C0002E682A68921B9A4206D81C46FFF7D6FD6E
:1008D0002B689B1BA342F9D900BEFEE7044803F036
:1008E00089FB03F093FAE9E7F08CFF1F1FA10700D3
:1008F000240001004749484B4A682DE9F04742F07F
:100900002002464C4A60D4F800E02268CEEB020296
:100910009A4252D8424A967A5078577A117A556854
:10092000002E4CD1DFF80491DFF804811E4641F21D
:10093000883A08E025688BB919462068CEEB000C90
:10094000B445184633D8D9F8103083F00203C3F306
:1009500040038342EED10028EFD021B92168491B22
:10096000514521D80021D4F800C0C5EB0C0CC4457A
:10097000E3D901231172556057725070937202F0DF
:1009800041FF03F0FBFC00283DD126682268254B7F
:10099000921B9A4206D81D46FFF770FD23689B1BE9
:1009A000AB42F9D900BEFEE701273946DBE71172F9
:1009B000577253705560BDE8F087BDE8F087DFF8E7
:1009C0006C80994641F2883C08E0256893B9194645
:1009D0002668CEEB06064E451846E8D8D8F8103003
:1009E00083F00203C3F340038342EED10028EFD02B
:1009F0000029EDD12168491B614501D80021E7E7B5
:100A000001273946E4E7084803F0F4FA03F0FEF959
:100A1000BBE700BF80F00F40DF930400F08CFF1FA6
:100A2000008CFF1F1FA1070024000100C0F00F4031
:100A300060E316004749484B8A682DE9F04742F0C9
:100A40002002464C8A60D4F800E02268CEEB020215
:100A50009A4252D8424A967A5078577A117A556813
:100A6000002E4CD1DFF80491DFF804811E4641F2DC
:100A7000883A08E025688BB919462068CEEB000C4F
:100A8000B445184633D8D9F8103083F00203C3F3C5
:100A900040038342EED10028EFD021B92168491BE1
:100AA000514521D80021D4F800C0C5EB0C0CC44539
:100AB000E3D901231172556057725070937202F09E
:100AC000A1FE03F05BFC00283DD126682268254B7F
:100AD000921B9A4206D81D46FFF7D0FC23689B1B49
:100AE000AB42F9D900BEFEE701273946DBE71172B8
:100AF000577253705560BDE8F087BDE8F087DFF8A6
:100B00006C80994641F2883C08E0256893B9194603
:100B10002668CEEB06064E451846E8D8D8F81030C1
:100B200083F00203C3F340038342EED10028EFD0E9
:100B30000029EDD12168491B614501D80021E7E773
:100B400001273946E4E7084803F054FA03F05EF958
:100B5000BBE700BF80F00F40DF930400F08CFF1F65
:100B6000008CFF1F1FA1070024000100C0F00F40F0
:100B700060E316004A4A13780121D172002B63D139
:100B80004848494B41682DE9F04741F02001474C66
:100B90004160D4F800E02168CEEB010199424BD8C6
:100BA000967A5078577A117A5568002E4DD1DFF831
:100BB0000891DFF808811E4641F2883A08E025686E
:100BC0008BB919462068CEEB000CB445184635D8D1
:100BD000D9F8103083F00203C3F340038342EED10F
:100BE0000028EFD021B92168491B514521D80021A7
:100BF000D4F800C0C5EB0C0CC445E3D90123117235
:100C0000556057725070937202F0FCFD03F0B6FB12
:100C100000283ED126682268254B921B9A4206D8AE
:100C20001D46FFF72BFC23689B1BAB42F9D900BE86
:100C3000FEE701273946DBE7BDE8F08711725772FE
:100C400053705560BDE8F0877047DFF86C809946B7
:100C500041F2883C08E0256893B919462668CEEB36
:100C600006064E451846E9D8D8F8103083F002033E
:100C7000C3F340038342EED10028EFD00029EDD129
:100C80002168491B614501D80021E7E70127394662
:100C9000E4E7084803F0AEF903F0B8F8BAE700BF9C
:100CA000008CFF1F80F00F40DF930400F08CFF1FCB
:100CB0001FA1070024000100C0F00F4060E31600F0
:100CC0004A4A13780021D172002B63D14848494B1E
:100CD00081682DE9F04741F02001474C8160D4F84C
:100CE00000E02168CEEB010199424BD8967A50780A
:100CF000577A117A5568002E4DD1DFF80891DFF848
:100D000008811E4641F2883A08E025688BB91946E9
:100D10002068CEEB000CB445184635D8D9F8103011
:100D200083F00203C3F340038342EED10028EFD0E7
:100D300021B92168491B514521D80021D4F800C0B0
:100D4000C5EB0C0CC445E3D90123117255605772F1
:100D50005070937202F056FD03F010FB00283ED154
:100D600026682268254B921B9A4206D81D46FFF73B
:100D700085FB23689B1BAB42F9D900BEFEE7012728
:100D80003946DBE7BDE8F087117257725370556042
:100D9000BDE8F0877047DFF86C80994641F2883CE7
:100DA00008E0256893B919462668CEEB06064E453D
:100DB0001846E9D8D8F8103083F00203C3F3400393
:100DC0008342EED10028EFD00029EDD12168491BE4
:100DD000614501D80021E7E701273946E4E70848E3
:100DE00003F008F903F012F8BAE700BF008CFF1F08
:100DF00080F00F40DF930400F08CFF1F1FA107005D
:100E000024000100C0F00F4060E316002DE9F04718
:100E1000444CD4F800E023684FF47A72CEEB03031D
:100E200002FB00F0834251D23F4A937A5578577AB9
:100E3000117A5668002B4BD1DFF8F8A0DFF8F89054
:100E400041F2883808E026688BB919462568CEEB50
:100E5000050C84451D4633D2DAF8103083F00203C6
:100E6000C3F34003AB42EED1002DEFD021B921688E
:100E7000891B414521D80021D4F800C0C6EB0C0CD9
:100E8000CC45E3D9012311725660577255709372A5
:100E900002F0B8FC03F072FA00283CD12668226800
:100EA000224B921B9A4206D81D46FFF7E7FA2368A9
:100EB0009B1BAB42F9D900BEFEE701273946DBE7B1
:100EC0001172577253705660BDE8F087BDE8F08725
:100ED000DFF8609041F2883808E0266893B9194637
:100EE0002568CEEB050C60451D46E9D9D9F81030D0
:100EF00083F00203C3F34003AB42EED1002DEFD0E9
:100F00000029EDD12168891B414501D80021E7E77F
:100F100001273946E4E7064803F06CF802F076FF53
:100F2000BCE700BFF08CFF1F008CFF1F1FA1070054
:100F300024000100C0F00F4060E316002DE9F041ED
:100F4000264CE66867693046394605F023FFA569F7
:100F5000D4F8108020F0004329462362404605F073
:100F600019FF20F0004363621D49384606F01CF863
:100F700006F0E0F91B49A0620746284606F014F87F
:100F800006F0D8F91649E0620546304606F00CF83E
:100F900006F0D0F9134920630646404606F004F8EF
:100FA00006F0C8F9F61B451B002ECCBF0121FF211E
:100FB0000D4B6063002D86EAE67E85EAE577CCBFBF
:100FC000FF220122AEEBE67EA7EBE57719735A7399
:100FD000C4F838E0E763BDE8F08100BF008CFF1F74
:100FE000D049334514E0D6450080FF1FF8B5164CB4
:100FF000236A666A19460746184605F0D5FF31464A
:101000000546304605F0D0FF0146284605F0C4FEEF
:1010100005F056FB07F028F905F068FE0B49A56BB3
:10102000E66B05F0C1FF394606F072F8AE420446A1
:101030003046B8BF284605F063FF0146204606F05B
:1010400067F806F09DF9F8BD008CFF1FC0E1644C05
:101050002DE9F0412E4CD4F81480E0600F46276152
:101060004146064605F096FEA56920F00043294654
:101070002362384605F08EFE20F000436362254966
:10108000404605F091FF06F055F92349A0628046DD
:10109000284605F089FF06F04DF91E49E062054635
:1010A000304605F081FF06F045F91B4920630646EE
:1010B000384605F079FF06F03DF9C8EB0606451BFA
:1010C00086EAE672002E85EAE573A2EBE672A3EBF0
:1010D000E573CCBF0126FF2610496063002DCCBF0D
:1010E000FF2001209A42A263E3630E73487307DC7A
:1010F0000122591084F840206364A164BDE8F081A6
:101100000023511084F840306264A164BDE8F0818E
:10111000008CFF1FD049334514E0D6450080FF1FE7
:101120002DE9F843274CD4F80C9006460D4666612D
:101130003146A561484605F02DFED4F8108020F018
:10114000004329462362404605F024FE20F0004378
:1011500063621D49304605F027FF06F0EBF81B4996
:10116000A0620746284605F01FFF06F0E3F816497F
:10117000E0620546484605F017FF06F0DBF8134924
:1011800020630646404605F00FFF06F0D3F8F61B35
:10119000451B002ECCBF0121FF210D4B6063002DAC
:1011A00086EAE67E85EAE577CCBFFF220122AEEB38
:1011B000E67EA7EBE57719735A73C4F838E0E76366
:1011C000BDE8F883008CFF1FD049334514E0D645B5
:1011D0000080FF1F2DE9F84F5F4D2B78023B012B5C
:1011E00040F285806B7A002B40F0B2806B6C5A1E07
:1011F0006A64002B00F0AC80DFF87081574E044623
:10120000C246B346A94695F84010B1FA81F04009AC
:1012100005EB8003721805EB810CAF6C9B6B92F9A8
:101220000CE0DCF838C058F821203B447244634598
:1012300048F82120AB640CDB0BEB00025AF82010BD
:1012400092F90C200A44CCEB03034AF82020C9F899
:101250004830D8F80030002B43DBDAF8002045F6A0
:1012600056639A423DDC3E4A116813685B1A9C4201
:10127000FBD8FFF703F96B7A374933B9D9F8443013
:101280005A1EC9F84420002BBDD10F69CC686C618F
:1012900021462046AF6105F07DFD20F00043394630
:1012A0002B62384605F076FD20F000436B622D4935
:1012B000204605F079FE06F03DF82B49A862044669
:1012C000384605F071FE06F035F8FF2101220023B3
:1012D000317372732C63E8626863AB63EB63BDE8E0
:1012E000F88F022385F860302F69EC68CFE795F915
:1012F0000B302BB395F94C30EC6823BB296D20469D
:1013000005F0F0FF00B12C652046A96D124E06F0E5
:1013100007F800B1B4652F69696D0F4E384605F0C6
:10132000E1FF00B177653846E96D05F0F9FF00B1DE
:10133000EF65002385F84C3000236B64074EA6E769
:101340002F69EC68F8E72F692C65AC656F65EFE7EE
:101350002F69EC68014E9AE7008CFF1F0080FF1F89
:10136000F08CFF1FD049334514E0D645088DFF1F90
:1013700038B50D4B93F8E440643305461C441A78A5
:10138000184620213AB19C4205D9AA4205D008F05E
:101390003BFD431CF3D1002038BD581C08F046FC2F
:1013A00005F0A4FC38BD00BF008CFF1F0B4B93F869
:1013B000E41071B193F8642082420CD06433013997
:1013C000194403E013F8012F824204D08B42F9D173
:1013D000002108467047012108467047008CFF1F16
:1013E0002DE9F047DFF87C8198F80030002288F87A
:1013F0000B20002B00F08D80504C514F02F002FA70
:101400005048D7F80090256802F070F8D4F800A092
:10141000236842F20F76CAEB0303B34206D8FFF704
:101420002DF82368CAEB0303B342F8D94349444A71
:101430002368424E5B1BB3F57A7FF9D93B68994527
:1014400003D0D2F800900D68F2E7002002F04EF8C9
:10145000D6F8009033683C4DC9EB0303AB4206D885
:10146000FFF70CF82368C9EB0303AB42F8D9D8F8AF
:101470001050364ED8F80C00354900233B6000224E
:101480007B6025F0004E336020F0004C7360C8F89C
:101490001420C8F82830C8F82C30C8F820C0C8F884
:1014A00024E0C8F8182005F07FFD05F043FF294926
:1014B000C8F830000746284605F076FD05F03AFFEB
:1014C00026682368204D244AC8F8340087EAE77C60
:1014D000002FACEBE77C80EAE07ECCBF0127FF2742
:1014E0009B1B0028CCBFFF210121AEEBE07EAB426D
:1014F000C8F838C0C8F83CE01773517305D8FEF738
:10150000BDFF23689B1BAB42F9D9BDE8F04702F051
:1015100067B9124A094C9368114D43F02003936058
:10152000266823689B1BAB423FF667AFFEF7A6FF1A
:1015300023689B1BAB42F9D95FE700BFF08CFF1F0C
:10154000008DFF1FC063FFFF9F860100088DFF1FF6
:10155000D049334514E0D6450080FF1F80F00F408E
:10156000DF930400008CFF1F2DE9F047AE4CFFF71E
:1015700037FF94F8E530012B00F06A81C0F0B580A8
:10158000022B09D0002384F8E53002F0F7FE002892
:1015900040F0A480BDE8F08702F0F0FE002840F0A3
:1015A000FA81D4F81080E068A04928F0004320F0C8
:1015B000004200260027226263626761A761A6627B
:1015C000E66205F0F1FC05F0B5FE99492063054699
:1015D000404605F0E9FC05F0ADFEB54285EAE57C44
:1015E000ACEBE57CCCBF0122FF22924D92496063B7
:1015F000B04280EAE07EAEEBE07ECCBFFF23012369
:101600003846C4F83CE0C4F838C02A736B73FFF75F
:101610001FFD206AD4F82490014605F0C5FC494618
:101620008046484605F0C0FC0146404605F0B4FB44
:1016300005F046F806F018FE05F058FB7F49D4F88F
:101640003890D4F83CA005F0AFFC7D4905F060FD72
:10165000CA4580465046B8BF484605F051FC014691
:10166000404605F055FD05F08BFEFFF7B3FDE06841
:10167000D4F810806D49676120F0004228F00043E3
:1016800022626362A761A662E66205F08DFC05F046
:1016900051FE674920630746404605F085FC05F08A
:1016A00049FEB742CCBF0122FF2287EAE77EB04263
:1016B00080EAE071CCBFFF230123AEEBE77EA1EB14
:1016C000E071606384F8E560C4F838E0E1632A7390
:1016D0006B7302F053FE00283FF45CAF594802F0F0
:1016E00089FCBDE8F04702F091BB02F047FE0028FC
:1016F00040F04B81D4F81080E0684C4928F000435A
:1017000020F0004200270026226263626661A66123
:10171000A762E76205F048FC05F00CFE444920632F
:101720000546404605F040FC05F004FEBD4285EA52
:10173000E57CACEBE57CCCBF0122FF2280EAE07EB9
:10174000B8423C4D40496063AEEBE07ECCBFFF2326
:1017500001233046C4F83CE0C4F838C02A736B73E8
:10176000FFF776FC206AD4F82490014605F01CFCB3
:1017700049468046484605F017FC0146404605F0BC
:101780000BFB04F09DFF06F06FFD05F0AFFA2B494F
:10179000D4F83890D4F83CA005F006FC2B4905F0AD
:1017A000B7FCCA4580465046B8BF484605F0A8FB7E
:1017B0000146404605F0ACFC05F0E2FDFFF70AFDEE
:1017C000E068D4F810801949666120F0004228F0E2
:1017D000004322626362A661A762E76205F0E4FB50
:1017E00005F0A8FD124920630646404605F0DCFBE3
:1017F00005F0A0FD002E86EAE67E80EAE077CCBF09
:101800000121FF210028AEEBE67EA7EBE077CCBFFD
:10181000FF22012201236063C4F838E0E7632973E3
:101820006A7384F8E530B0E6008CFF1FD049334579
:1018300014E0D6450080FF1F00006041C0E1644C09
:1018400000007A4374000100000080BF000048429D
:1018500002F094FD002840F09280D4F81080E068F7
:10186000504928F0004320F0004200270026226261
:1018700063626661A661A762E76205F095FB05F009
:1018800059FD494920630546404605F08DFB05F0AA
:1018900051FDBD4285EAE57CACEBE57CCCBF012285
:1018A000FF2280EAE07EB842404D41496063AEEBE2
:1018B000E07ECCBFFF2301233046C4F83CE0C4F8EF
:1018C00038C02A736B73FFF7C3FB206AD4F82490E7
:1018D000014605F069FB49468046484605F064FB31
:1018E0000146404605F058FA04F0EAFE06F0BCFC5A
:1018F00005F0FCF92F49D4F83890D4F83CA005F055
:1019000053FB2D4905F004FCCA4580465046B8BF3C
:10191000484605F0F5FA0146404605F0F9FB05F0AA
:101920002FFDFFF757FCE068D4F810801D49666171
:1019300020F0004228F0004322626362A661A762A1
:10194000E76205F031FB05F0F5FC17492063064618
:10195000404605F029FB05F0EDFC002E86EAE67E08
:1019600080EAE077CCBF0121FF210028AEEBE67EC4
:10197000A7EBE077CCBFFF22012202234BE70F4801
:1019800002F038FB02F042FA67E70D4802F032FB42
:1019900002F03CFAAEE60B4802F02CFB02F036FAFD
:1019A000FFE500BFD049334514E0D6450080FF1F56
:1019B00000004EC1C0E1644C00007A4350000100B9
:1019C0003C00010064000100B449B54B8A682DE970
:1019D000F04FB44CB44D94F800E0002042F02002E7
:1019E0002070E0728A602F682A68D21B9A429DB0EC
:1019F00053D894F80AC06178227A667A6068BCF19C
:101A0000000F40F01981DFF8C8A2DFF8C8929B46AA
:101A100041F2883808E028688BB91A462968C7EB74
:101A2000010CDC45194634D8DAF8103083F0020393
:101A3000C3F340038B42EED10029EFD022B92A68CC
:101A4000121A424522D80022D5F800C0C0EB0C0C77
:101A5000CC45E3D90123227260606170A372667283
:101A600001F0D0FE02F08AFC002840F077822E6858
:101A70002A688E4B921B9A4206D81C46FEF7FEFC43
:101A80002B689B1BA342F9D900BEFEE70126324614
:101A9000DAE7667222726060637094F86030814E9B
:101AA000002B40F05982BEF1030F00F01581BEF10A
:101AB000000F00F051827E4D206DAE68314605F07A
:101AC00027FB4FF07C5105F067F905F033FC3146F8
:101AD0000746606D05F01CFB4FF07C5105F05CF98A
:101AE00005F028FC31468246A06D05F011FB4FF051
:101AF0007C5105F051F905F01DFC31468146E06D41
:101B000005F006FB4FF07C5105F046F905F012FC9C
:101B10004FF07E518046304605F0DAFB654A664B51
:101B2000CDF800A0002814BF1046184603903B468D
:101B30005A21624ACDF80490CDF8088005A808F033
:101B400015F902F01BFC002840F0A180D4F814A085
:101B50000026E66030465146266105F01BF9D4F8B0
:101B6000189020F0004849463046C4F8208005F01F
:101B700011F920F0004752496762504605F014FA07
:101B800005F0D8FB4F49A0620646484605F00CFA1E
:101B900005F0D0FB76424142002E86EAE67281EAE9
:101BA000E173A2EBE672A3EBE173CCBF4FF0010E41
:101BB0004FF0FF0E0029CCBFFF26012600219A42DC
:101BC000E062A263E36385F80CE06E7321636163F6
:101BD00057DC591001226364A16484F84020414617
:101BE000404605F0E1F939460546384605F0DCF98E
:101BF0000146284605F0D0F804F062FD06F034FBFB
:101C000005F074F83049A56BE66B05F0CDF92F4966
:101C100005F07EFAAE4204463046B8BF284605F0CD
:101C20006FF90146204605F073FA05F0A9FBFFF7AE
:101C3000D1FA1DB0BDE8F08FDFF894909A4641F2DA
:101C4000883809E028689BB91A462968C7EB010C57
:101C5000D44519463FF61DAFD9F8103083F0020382
:101C6000C3F340038B42EDD10029EED0002AECD122
:101C70002A68121A424501D80022E6E701263246B8
:101C8000E3E7531084F840106264A364A7E705A853
:101C900002F0B0F902F0BAF858E700BF80F00F4048
:101CA000DF930400008CFF1FF08CFF1F1FA10700B3
:101CB0000080FF1F80000100880001008C000100EF
:101CC000D049334514E0D645C0E1644C0000C84219
:101CD000C0F00F4060E316000023306D716DB361FA
:101CE0007361FFF7B5F9306AD6F82480014605F034
:101CF0005BF941460746404605F056F9014638462D
:101D000005F04AF804F0DCFC06F0AEFA04F0EEFF51
:101D10009549B76BD6F83C8005F046F9934905F034
:101D2000F7F9B84506464046B8BF384605F0E8F82A
:101D30000146304605F0ECF905F022FBFFF74AFAC0
:101D40002F682A688A4BD21B9A4298BF1E4605D834
:101D5000FEF794FB2B68DB1BB342F9D9A06D616DD4
:101D6000FFF776F9206A676A014605F01DF93946E2
:101D70000646384605F018F90146304605F00CF8DD
:101D800004F09EFC06F070FA04F0B0FF7649A76BF1
:101D9000D4F83C8005F008F9764905F0B9F9B84562
:101DA00006464046B8BF384605F0AAF80146304618
:101DB00005F0AEF905F0E4FAFFF70CFAA06DE16D5D
:101DC000FFF746F9206A676A014605F0EDF83946E3
:101DD0000646384605F0E8F80146304604F0DCFFD8
:101DE00004F06EFC06F040FA04F080FF5E49A76B39
:101DF000D4F83C8005F0D8F85E4905F089F9B8457B
:101E000006464046B8BF384605F07AF801463046E7
:101E100005F07EF905F0B4FAFFF7DCF9206DE16D0D
:101E2000FFF716F9206A676A014605F0BDF83946E2
:101E30000646384605F0B8F80146304604F0ACFFD7
:101E400004F03EFC06F010FA04F050FF4649A76B80
:101E5000D4F83C8005F0A8F8464905F059F9B84592
:101E600006464046B8BF384605F04AF801463046B7
:101E700005F04EF905F084FAFFF7ACF9206D616DBD
:101E8000FFF7E6F8206A676A014605F08DF83946E3
:101E90000646384605F088F80146304604F07CFFD7
:101EA00004F00EFC06F0E0F904F020FF2E49A76BC9
:101EB000D4F83C8005F078F82E4905F029F9B845AA
:101EC00006464046B8BF384605F01AF80146304687
:101ED00005F01EF905F054FAFFF77CF92F682A681F
:101EE000234BD21B9A4298BF1E4605D8FEF7C6FA6E
:101EF0002B68DB1BB342F9D900200146FFF7A8F895
:101F0000206A666A014605F04FF8314605463046BC
:101F100005F04AF80146284604F03EFF04F0D0FBE5
:101F200006F0A2F904F0E2FE0F49A66BE76B05F09C
:101F30003BF80E4905F0ECF8B74205463846B8BF05
:101F4000304604F0DDFF0146284605F0E1F805F0D3
:101F500017FAFFF73FF9AEE5074DF7E5074802F03E
:101F600049F801F053FF82E5C0E1644C00007A4378
:101F70003F420F000000C8420080FF1F2400010004
:101F80002DE9F04FDFF8D0A29AF86430A5B0002B0D
:101F900000F09481DFF8CCB2DBF81010002900F0DB
:101FA00098810BF11006002405E056F80C1F01344F
:101FB000002900F08E81A84D05F1640005F004FAB7
:101FC0000028F2D104EB44040BEB840405F1640017
:101FD000616907F07FFF05F1640007F0D9FFC0B227
:101FE00085F8E400002849D09AF864309B4F472BCD
:101FF0004FD0411E3D4639443A4603E012F8014FA6
:10200000472C46D08A42F9D1582B42D0934A03E05C
:1020100012F8014F582C3CD08A42F9D1592B04D1E7
:1020200037E015F8012F592A33D0A942F9D15A2B9C
:102030002FD08A4F00223D46394603E011F8014F68
:102040005A2C26D001329042F8DC462B21D00022B7
:1020500003E015F8011F46291BD001329042F8DC3D
:102060004D2B00F0F5857D49002204E011F8014F69
:102070004D2C00F0ED8501329042F7DC02F07EF944
:10208000002800F02381764801F0B4FF01F0BEFE85
:102090001CE13D183C4600E0437820462021002BFF
:1020A00000F09083AC4280F09A83472B00F0AC8321
:1020B00007F0AAFE441CEFD19BF804309AF8E450D4
:1020C000002B00F06F84644B7DB193F86460582E50
:1020D00000F06D85691E39443B4604E013F8012F7A
:1020E000582A00F064858B42F8D1DAF8149085B153
:1020F0009AF864E0BEF1590F00F08D85691E3944ED
:102100003B4604E013F8012F592A00F084858B42E6
:10211000F8D1DAF8183002937DB19AF864605A2E3B
:1021200000F06085691E39443B4604E013F8012F36
:102130005A2A00F057858B42F8D1DAF81C603046F5
:10214000002105F0E3F840B1DAF81C00424D00210F
:1021500005F0C8F8002840F020853046002105F041
:10216000C1F8002840F006859AF8E450CAF81C60CF
:10217000394B7DB193F86460462E00F06C84691E83
:1021800039443B4604E013F8012F462A00F06384EB
:102190008B42F8D15C2C00F20A83DFE814F09A023B
:1021A0009A024501450129010803080308030803B1
:1021B00008030803080308030803080308030803C7
:1021C0000803080308032401200108030803080387
:1021D000080308030803D00008039D000803080350
:1021E0000803080308030803080308030803080397
:1021F0000803080308030803080308030803080387
:102200000803080308030803080308030803080376
:102210000803080308030803080308030803080366
:102220000803080308030803080308030803080356
:102230000803080308030803080308030803080346
:102240000803080308030803080308030803080336
:10225000080304030003C102008CFF1F648CFF1FEE
:10226000400201000080FF1F5320FFF781F805F0B6
:1022700087F8C0B203288AF800007E4C40F23E87FF
:1022800000238AF800307C48FEF7CAF89AF800402C
:10229000A4B10121A31E00228B428AF80B208AF8E8
:1022A0004C10744D0AD8002001462A70FEF7D0FE6B
:1022B0007248FEF79BFEFEF78DFF2C7002F05EF871
:1022C00020B16F4801F096FE01F0A0FD25B0BDE8F9
:1022D000F08F9AF8E40085E648460299FEF7B8FECA
:1022E000DAF82000DAF82450014604F05DFE2946B1
:1022F0000446284604F058FE0146204604F04CFDF2
:1023000004F0DEF905F0B0FF04F0F0FC5D49DAF806
:102310003850DAF83C6004F047FE584904F0F8FE03
:10232000AE4204463046B8BF284604F0E9FD0146F7
:10233000204604F0EDFE05F023F8FEF74BFF0020E9
:102340000146FEF785FEDAF82000DAF8245001464F
:1023500004F02AFE29460446284604F025FE0146DC
:10236000204604F019FD04F0ABF905F07DFF04F000
:10237000BDFC4449DAF83850DAF83C6004F014FE49
:102380003E4904F0C5FEAE4204463046B8BF28467A
:1023900004F0B6FD0146204604F0BAFE04F0F0FF5A
:1023A000FEF718FF9AF86030012B00F00D8285D3FC
:1023B000022B8BD101F0E2FF20B1334801F01AFE6D
:1023C00001F024FD01F0DAFF20B1304801F012FEE7
:1023D00001F01CFDFFF7F8FA25B0BDE8F08F2C4B9B
:1023E000CBF80830DEE74FF07E53CBF80830D9E762
:1023F0009AF800301F4A002BD4D192F8E4203B46D3
:10240000174408E09F420BD9502A00F0A98407F036
:10241000FBFC431C04D01A7818462021002AF1D175
:102420001C4B1A681B68BDE79AF8E4503D441A4FEC
:102430003B4608E0AB420BD2492A00F0458407F046
:10244000E3FC431C04D01A7818462021002AF1D15D
:102450000021DBF80850DAF81480284604F0A4FDC7
:10246000414604F099FC9AF8E4200B4B06461744C9
:102470001DE000BF008CFF1FF00001000000C842FB
:10248000B0000100C0E1644CC4000100E4000100A0
:102490008542213DF08CFF1F648CFF1F9F420BD9AA
:1024A0004A2A00F0198407F0AFFC431C04D01A78C4
:1024B00018462021002AF1D10020DAF818702946A8
:1024C00004F072FD394604F067FC3146054640468B
:1024D00004F060FC29468046384604F05BFC314637
:1024E0000746484604F056FC29468146029804F007
:1024F00051FC022C00F0C9830690384604F0E0F845
:10250000CDE90201404604F0DBF802460B46DDE966
:10251000020105F0A7FE04F0E9FBDDF818C0059004
:10252000604604F0CDF8CDE90201484604F0C8F851
:1025300002460B46DDE9020105F094FE04F0D6FBED
:1025400081464946059804F0E1FE20B14846A54978
:1025500004F022FC81460599484604F01BFC4146E4
:1025600081460690404604F01FFD394680463846B5
:1025700004F01AFD0146404604F00EFC04F0A0F8F9
:1025800005F072FE04F0B2FB97490746484604F096
:102590000BFD49468046384604F006FD934904F099
:1025A000B7FD81464946404604F0BAFE00B9C84628
:1025B000404604F085F805F03FFD04F06FFBB0F1F4
:1025C00000097FF7EFAE04F09BFC0790304604F063
:1025D00077F8CDE90801384604F072F8CDE9020138
:1025E000284604F06DF8032CCDE90A014FF00108EC
:1025F00000F05282C8EB090004F082FC079904F055
:1026000087FD0146069804F0CFFC059904F0C4FB51
:1026100004F056F804460D4605F096FD06460F46B2
:102620002046294605F0D4FDDDE9022304460D4687
:102630003046394604F098F8DDE9082303F0E2FE5D
:1026400004F054FBDDE9022306462946204604F047
:102650008BF8DDE90A2303F0D5FE04F047FB0146C1
:102660003046FEF7F5FCDAF82000DAF82450DBF803
:102670000060014604F098FC29460446284604F010
:1026800093FC0146204604F087FB04F019F805F09E
:10269000EBFD04F02BFB5649DAF83840DAF83C50F1
:1026A00004F082FC314604F033FDA542064628467C
:1026B000B8BF204604F024FC0146304604F028FD53
:1026C00004F05EFE08F10108FEF784FDC84591DDC7
:1026D00068E648460299FEF7BBFC002C40F0D98121
:1026E000444CDAF82000DAF82460014604F05CFC7F
:1026F00031460546304604F057FC0146284604F0B2
:102700004BFB03F0DDFF05F0AFFD04F0EFFA3849B5
:10271000DAF83850DAF83C6004F046FC214630E63E
:10272000DAF81050DAF80C0033490022002325F0C3
:10273000004420F00046CAF81420CAF81820CAF84D
:102740002830CAF82C30CAF82440CAF8206004F0B7
:102750002BFC04F0EFFD2949CAF830000446284656
:1027600004F022FC04F0E6FD002CCCBF0122FF2285
:1027700084EAE475002880EAE071A5EBE475A1EB3A
:10278000E071CCBFFF230123CAF83400CAF83850E7
:10279000CAF83C108BF80C208BF80D3002E60023B1
:1027A0008BF80430FEE501238BF80430FAE501F0E4
:1027B000E5FD00283FF4F6AD114801F01BFC01F0E7
:1027C00025FBEFE51C4677E401F0D8FD00283FF437
:1027D0007DAD0C4801F00EFC01F018FB76E50024FD
:1027E0006AE400BFDA0FC9409A9919400AD7A33B9F
:1027F000C0E1644C00007A43D049334514E0D6452B
:10280000B8000100E4000100601C07F00FFA04F0BA
:102810006DFA04F08FFD1E28044640F28E840023DA
:10282000029399465C28C2D801A353F820F000BF58
:102830008B2A00008B2A0000292400002924000094
:10284000F1230000AF270000AF270000AF270000F2
:10285000AF270000AF270000AF270000AF27000020
:10286000AF270000AF270000AF270000AF27000010
:10287000AF270000AF270000AF270000AF27000000
:10288000E7230000DF230000AF270000AF27000090
:10289000AF270000AF270000AF270000AF270000E0
:1028A0003F230000AF270000D9220000AF2700001F
:1028B000AF270000AF270000AF270000AF270000C0
:1028C000AF270000AF270000AF270000AF270000B0
:1028D000AF270000AF270000AF270000AF270000A0
:1028E000AF270000AF270000AF270000AF27000090
:1028F000AF270000AF270000AF270000AF27000080
:10290000AF270000AF270000AF270000AF2700006F
:10291000AF270000AF270000AF270000AF2700005F
:10292000AF270000AF270000AF270000AF2700004F
:10293000AF270000AF270000AF270000AF2700003F
:10294000AF270000AF270000AF270000AF2700002F
:10295000AF270000AF270000AF270000AF2700001F
:10296000AF270000AF270000AF270000AF2700000F
:10297000AF270000AF270000AF270000AF270000FF
:10298000AF270000AF270000AF270000AF270000EF
:10299000AF270000AF270000A72700009F270000F7
:1029A000212700003D44C44F3B4608E0AB420BD218
:1029B000582A00F0A48107F027FA431C04D01A78A3
:1029C00018462021002AF1D10021DBF808603046AA
:1029D00004F0EAFADAF8141004F0DEF99AF8E45098
:1029E0003D44B54F81463B4608E09D420BD9592AEC
:1029F00000F0938107F008FA431C04D01A781846B7
:102A00002021002AF1D10020314604F0CDFADAF875
:102A1000181004F0C1F99AF8E45002903D44A64F12
:102A20003B4608E09D420BD95A2A00F0608107F02E
:102A3000EBF9431C04D01A7818462021002AF1D162
:102A40000020314604F0B0FADAF81C1004F0A4F9C2
:102A50000646FFF774BB3D443B4609E0AB420BD250
:102A6000462E00F0538107F0CFF9431C04D046787E
:102A700018462021002EF1D10021DBF8080004F0D7
:102A800093FACBF80000FFF785BB00200146FEF764
:102A9000DFFADBF8004024E6404604F031FA0799FB
:102AA00004F036FB0146069804F07EFA059904F01E
:102AB00073F903F005FE04460D4605F045FB064696
:102AC0000F462046294605F083FBDDE90223044634
:102AD0000D463046394603F047FEDDE9082303F092
:102AE00091FC04F003F9DDE902230646294620465D
:102AF00003F03AFEDDE90A2303F084FC04F0F6F863
:102B000001463046FEF7A4FADAF82000DAF824503D
:102B1000DBF80060014604F047FA294604462846DF
:102B200004F042FA0146204604F036F903F0C8FDED
:102B300005F09AFB04F0DAF86049DAF83840DAF880
:102B40003C5004F031FA314604F0E2FAA542064660
:102B50002846B8BF204604F0D3F90146304604F0B9
:102B6000D7FA04F00DFC08F10108FEF733FBC1456C
:102B700092DA17E4DAF81C00514D002104F0C6FB8C
:102B800000283FF4F1AA2B780122EA72002B7FF48F
:102B9000EBAAFDF7AFFEFFF7E7BA2B780022EA7247
:102BA000002B7FF4E1AAFDF745FFFFF7DDBA3B46B6
:102BB00007EB050809E043450CD2582E00F0BB8016
:102BC00007F022F9431C05D046783D4A18462021DB
:102BD000002EF0D10020DBF8081004F0E5F9814662
:102BE000FFF785BA3D443B4609E0AB420BD25A2E73
:102BF00000F09B8007F008F9431C04D04678184683
:102C00002021002EF1D10020DBF8081004F0CCF9CF
:102C10000646FFF794BAA0463B467E19744609E083
:102C2000B3420CD2592C00F0908007F0EDF8431C11
:102C300005D04478224A18462021002CF0D1444681
:102C40000020DBF8081004F0AFF90290FFF764BA37
:102C50003D18194A09E0AA420BD24D2B00F09D8085
:102C600007F0D2F8421C04D0437810462021002BF4
:102C7000F1D101F083FB00283FF420AB114801F0B3
:102C8000B9F901F0C3F8FFF719BB03F019FDCDE95D
:102C90000201484603F014FD02460B46DDE902013D
:102CA00005F0E0FA04F022F80590384603F008FD3C
:102CB000CDE90201404639E4648CFF1FC0E1644C59
:102CC000008CFF1F34020100581C06F0AFFF04F017
:102CD0000DF80146FFF7BDBB581C06F0A7FF04F036
:102CE00005F8DBF80850DAF81480FFF7E6BB581C4B
:102CF00006F09CFF03F0FAFFDBF80860A1E6581C21
:102D000006F094FF03F0F2FF01465EE6581C06F061
:102D10008DFF03F0EBFF0146AFE6581C06F086FF7F
:102D200003F0E4FFDBF808606EE6581C06F07EFF57
:102D300003F0DCFF68E7581C029206F077FF03F00F
:102D4000D5FF029A92F8E45045E7581C029206F02B
:102D50006DFF03F0CBFF029A444692F8E45070E70F
:102D6000581C06F063FF03F0C1FFDA49DA4C04F0A7
:102D70001BF904F0DFFA266823684FF47A7505FB27
:102D800000F59B1B9D427FF60DABFDF777FB23689B
:102D90009B1BAB42F9D3FFF705BB501C06F046FF67
:102DA00003F0A4FF04F0C6FA023871283FF661AFC1
:102DB00001A353F820F000BF812F00007530000000
:102DC000753000005D300000732C0000753000008D
:102DD0005D300000732C0000732C0000732C000089
:102DE000732C0000732C0000732C0000732C000067
:102DF000732C0000732C0000732C0000732C000057
:102E0000732C0000732C0000732C0000732C000046
:102E1000732C0000732C0000732C0000732C000036
:102E2000732C0000732C0000812F0000732C000015
:102E3000732C0000732C0000732C0000732C000016
:102E4000732C0000732C0000732C00003330000042
:102E500025300000732C0000732C0000732C000040
:102E6000732C0000732C0000732C0000732C0000E6
:102E7000732C0000732C0000732C0000732C0000D6
:102E8000732C0000732C0000732C0000732C0000C6
:102E9000732C0000732C0000732C0000732C0000B6
:102EA000732C0000732C0000732C0000732C0000A6
:102EB000732C0000732C0000732C0000732C000096
:102EC000732C0000732C0000732C0000732C000086
:102ED000732C0000732C0000732C0000732C000076
:102EE000732C0000732C0000732C0000732C000066
:102EF000732C0000732C0000732C0000732C000056
:102F0000732C0000732C0000732C0000732C000045
:102F1000732C0000732C0000732C0000732C000035
:102F2000732C0000732C0000732C0000732C000025
:102F3000732C0000732C0000732C0000732C000015
:102F4000732C0000732C0000732C0000732C000005
:102F5000732C0000732C0000732C0000732C0000F5
:102F6000732C0000732C0000732C00008D300000C7
:102F7000F72F0000732C0000732C0000892F000035
:102F8000FEF722FDFFF79AB901F0F8F9002840F0AA
:102F9000CE8001F0F3F9002840F0968001F0EEF9C0
:102FA000002840F08B80DBF810309BB14B4CA268BE
:102FB00000925A214A4A0DA806F0D8FE01F0DEF927
:102FC00020B10DA801F016F800F020FF54F80C3FD6
:102FD000002BECD101F0D2F9002840F0A28001F0E2
:102FE000CDF900283FF46AA93E4801F003F800F04B
:102FF0000DFFFFF763B900F005FC01F0BFF90028F1
:1030000040F08980344C384B26682268921B9A42E3
:1030100006D81D46FDF732FA23689B1BAB42F9D94F
:1030200000BEFEE702238AF8E530FEF79DFAFFF7BF
:1030300045B9294C00238AF8E530FEF795FA266851
:1030400022682A4B921B9A4298BF1D46EDD8FDF785
:1030500015FA23689B1BAB42F9D9E6E79AF80030D2
:1030600000228AF80B20002B7FF428A9FDF7E2FC50
:10307000FFF724B99AF8003001228AF80B20002BC0
:103080007FF41CA9FDF736FCFFF718B99AF8E42085
:10309000174B002A3FF4F4A893F8641053293FF427
:1030A000E3A8013A1744643304E013F8012F532ACC
:1030B0003FF4DAA8BB42F8D1FFF7E2B80D4800F0C0
:1030C00099FF00F0A3FE6EE70B4800F093FF00F0BD
:1030D0009DFE63E700007A44F08CFF1F1080FF1F05
:1030E000E4010100F80101001FA107007F841E0018
:1030F000008CFF1FDC010100C401010002282ED05A
:10310000032826D001287FF4BEA81848FDF788F9C7
:103110002478FFF7BDB8164800F06CFF00F076FE8B
:1031200070E7144800F066FF00F070FE57E71248A1
:1031300000F060FF00F06AFE2BE701220F4B824097
:103140001340002B7EF4B8AF002302939946FFF79B
:1031500021B80B48FDF764F92478FFF799B80948BE
:10316000FDF75EF92478FFF793B800BF0401010072
:1031700024000100DC010100980101000F00004063
:103180006401010024010100684620F007018D461A
:1031900001B45DF8040B8546704700BF684620F017
:1031A0000701054A8D4601B413685DF8040B01332D
:1031B00013608546704700BFF08CFF1FF0B5541EAA
:1031C000002A3BD0031D0D1DA84238BF99422CBFD9
:1031D00001230023092A94BF002303F001030646BC
:1031E00023B340EA01039B0720D1131F9B0801333F
:1031F000022C4FEA83070FD9A1F1040E00250135F7
:103200005EF804CF46F804CBAB42F8D8BA42384453
:103210003944A4EB070411D00B78037074B14B78D8
:103220004370012C0BD08B788370F0BD01380A44B9
:1032300011F8013B00F8013F9142F9D1F0BDF0BD1A
:103240002DE9F0412C4D002D40D153E06B68002B4F
:1032500045D1A86800284DD001380A46131D0C1D21
:10326000944288BF8B4294BF0123002300F1010CDC
:10327000BCF1090F94BF002303F00103164683B38A
:1032800042EA01039B072CD1C31E9B0801334FEA7E
:10329000830E0F1F0024013457F8048F46F8048B67
:1032A000A342F8D8F445CEEB00000EEB02040EEB7F
:1032B00001060AD011F8231002F8231028B1737800
:1032C0006370012801D0B378A3700C3529680029F8
:1032D000BCD06A68AB68581E002BBFD1F5E71A4610
:1032E000F8E71044531E11F8012B03F8012F834215
:1032F000F9D1EAE7BDE8F081B8140100044A0548B5
:10330000121A921002D0002106F09ABC704700BF3A
:10331000AC9AFF1F008CFF1F4FF0E0213148324A6A
:10332000324B70B4C1F8080D41F244014CF2205008
:103330002F4CD0814DF628164FF4E975D68141F215
:10334000380015805C501A582A4942F4F0521A503D
:103350008B781A0703D58B7843F008038B70234AC8
:103360002549264B264C41F244004FF081751550FB
:1033700041F204050626505940F48030505110683F
:1033800040F4402010608A6C22F0807222F4E062E7
:103390008A64CA6C22F0807222F4E0622420CA643B
:1033A0001E705870DA7802F01F0242F0C0028021CD
:1033B000DA7021701A7B072102F0FE021A7319716C
:1033C0001A79002142F040021A711A465971937914
:1033D000DB06FCD5094A937913F00C0FFBD170BCC6
:1033E000704700BF0000000000200540007004404E
:1033F0000000030100D00740009004400040064058
:103400000050064080F31188704700BFF0B41B4A9B
:103410001B4B57791B4D1C4E1C4C1D481D4907F07A
:10342000E0075771177907F0F80717711A7802F05B
:103430008C0242F050021A705A7802F09C0242F05C
:1034400040025A709F78002207F0E6079F703270A2
:1034500085F8492385F81423636923F00303636126
:103460004369472523F0C003072443614D600C6086
:1034700082F3118862B6F0BC704700BF00F00740CD
:1034800000D0074000E100E000E0074040F00F40BE
:1034900080F00F4010E000E008B5FFF73DFF0F4B54
:1034A0001846002807D0854681B04FF000006FEA2B
:1034B0000000009001B00A4B0A481B1A9A1002D073
:1034C000002106F0BDFBFFF7BBFEFFF79FFF064B99
:1034D00000221A6004F06AFCFEE700BF0000002032
:1034E000AC9AFF1F008CFF1FF08CFF1F10B5041E4D
:1034F00016DDC4F57F40FF3000284FF6FF710DDB6D
:103500008142A8BF014689B2052000F08BFA06204F
:103510004FF6FF71BDE8104000F084BA0021F3E7D8
:1035200005204FF6FF7100F07DFA04F57F40FF3073
:1035300000284FF6FF7408DB8442A8BF0446A1B2FE
:103540000620BDE8104000F06DBA0021F8E700BF8A
:1035500010B5041E16DDC4F57F40FF3000284FF67D
:10356000FF710DDB8142A8BF014689B2002000F047
:1035700059FA01204FF6FF71BDE8104000F052BA31
:103580000021F3E700204FF6FF7100F04BFA04F53D
:103590007F40FF3000284FF6FF7408DB8442A8BF4D
:1035A0000446A1B20120BDE8104000F03BBA002162
:1035B000F8E700BF164B68469A6920F007018D4670
:1035C000D20131B402D4DB69DB011ED51049114AA6
:1035D00088691579104B114C40F080708861C8697A
:1035E00040F08070C861196913781371C1F38111BB
:1035F00003EB850301EB83031170E15C4BB2032BFA
:1036000003D011B191680B44936031BC854670477B
:1036100000B00440F88CFF1F80F00F40A8FE0000AF
:10362000174B68461A6820F007018D46D20131B465
:1036300002D45B68DB0120D51149124A086855792C
:10364000114B124C40F080700860486840F0807068
:10365000486019695378537101F0030103EB850346
:1036600001EB83035170E15C4BB2032B05D021B118
:10367000022B02DCD1680B44D36031BC8546704715
:1036800000A00440F88CFF1F40F00F40A8FE00008F
:103690004F4B68461A6820F007018D461206F1B5B7
:1036A00003D4BDE8F140854670471A68494C22F0C2
:1036B00080021A602769A2686669E368BF1A384603
:1036C000F61A03F01DFC444903F06EFC0546A069A0
:1036D000381A03F015FC414903F066FC0146284600
:1036E00003F05AFB03F026FE051E45DDC5F57F40BD
:1036F000FF3000284FF6FF713ADB8142A8BF014638
:1037000089B2052000F08EF906204FF6FF7100F017
:1037100089F9304603F0F4FB2F4903F045FC0546D8
:10372000E069301A03F0ECFB2C4903F03DFC014644
:10373000284603F031FB03F0FDFD051E30DDC5F525
:103740007F40FF3000284FF6FF7113DB8142A8BF96
:10375000014689B2002000F065F901204FF6FF71A3
:1037600000F060F9A761E661BDE8F1408546704769
:103770000021C6E70021EDE705204FF6FF7100F0BC
:1037800051F905F57F40FF3000284FF6FF751BDB30
:103790008542A8BF0546A9B2062000F043F9B8E764
:1037A00000204FF6FF7100F03DF905F57F40FF3036
:1037B00000284FF6FF7509DB8542A8BF0546A9B270
:1037C000012000F02FF9CDE70021E5E70021F7E720
:1037D00000900340F88CFF1F00409C450080BB46D2
:1037E000064B00229A61DA6172B6054B1A685021C5
:1037F00042F008021A60196062B67047F88CFF1F29
:103800000090034008B572B60D4B4022196819604C
:103810001A6062B605204FF6FF7100F003F906202A
:103820004FF6FF7100F0FEF800204FF6FF7100F038
:10383000F9F801204FF6FF71BDE8084000F0F2B83A
:1038400000900340DFF830C1454BDCF800204548CC
:10385000454922F0807222F4E06242F48072F0B5B1
:10386000CCF80020DCF80020404EDFF810E1404C9E
:10387000404F22F0877222F4803242F0857242F487
:103880008032CCF80020DCF8042022F0807222F490
:10389000E06242F48072CCF80420DCF8042022F0CC
:1038A000877222F4803242F08572502542F48032D1
:1038B000CCF8042083F858539A6842F080729A60DA
:1038C000826922F0807222F4E06242F480728261A6
:1038D000826922F0877222F4803242F0857242F4CB
:1038E00080328261C26922F0807222F4E06242F486
:1038F0008072C261C26922F0877222F4803242F083
:10390000857242F48032C26183F859539A6841F259
:103910003C0042F000729A60325842F0007232501D
:103920004FF0040C002208261020C1F854C00A6091
:10393000CA644A60CA604A618E6083F83F035A686D
:1039400042F000425A600D60DEF81020C2F381128E
:1039500022703B69227103F0030363706371F0BD51
:1039600000E100E000B0044000900340007004401B
:10397000F88CFF1F40F00F4000A0044080F00F4083
:1039800070B4244D244B2548254941F23C040426BB
:103990002A5942F080722A5100222C2440F28335A9
:1039A0005E651A60DA645A60DA605A61DA615A62F6
:1039B000DA625A63DA635A649D60DC601A615C61A2
:1039C0009A615C639A63DC631A64426822F08072D5
:1039D00022F4E06242F480624260826822F08072E7
:1039E00022F4E06242F4806282604A6922F08072CE
:1039F00022F4E06242F480624A618A6922F08072B5
:103A000022F4E06242F4806209208A61186070BC8E
:103A1000704700BF007004400080034000B00440C5
:103A200000C00440074B9B6801339BB223B101FBEC
:103A300003F101F50041090C034BC00003449960F8
:103A4000704700BF0080034008800340084A137895
:103A5000DBB2012B02D0012353707047222902D020
:103A60002129F8D10023537001235370704700BF00
:103A7000188DFF1FF0B583B069B1022943D0042926
:103A80000DD0032937D0052903D1234B00221A700A
:103A90005A7003B0F0BD204A117003B0F0BD1E494A
:103AA0004B78012BF5D19788B7F5807F28BF4FF46D
:103AB00080770023C7B11068C65CEFF3108072B640
:103AC0008DF80700887891F804410D180134013011
:103AD0002E71887081F804419DF8070080F31088EA
:103AE0000133DBB29F42E6D80020024603460221A2
:103AF00001F020FCCDE7084B5A78012AC9D10022F9
:103B000083F80521C5E700200246034601F012FCB8
:103B1000014B01221A70BCE7188DFF1F10B4044638
:103B200083B0EFF3108072B68DF80700094B9A78D6
:103B300093F8041198180131013204719A7083F8D6
:103B400004119DF8070080F31088002003B05DF891
:103B5000044B7047188DFF1F82B00146EFF31080B1
:103B600072B68DF80700104B93F8042132B99DF816
:103B7000070080F31088032002B0704793F80621F5
:103B80001A4412790A7093F8041193F80621013946
:103B9000013283F8041183F806219DF8070080F3B1
:103BA0001088002002B07047188DFF1F014B93F85A
:103BB00004017047188DFF1F024B93F80401404227
:103BC000C0B27047188DFF1F10B582B0EFF31080A0
:103BD00072B68DF80700094B0024181D21464FF4DA
:103BE00080729C7083F8064183F8044106F028F83F
:103BF0009DF8070080F3108802B010BD188DFF1FDC
:103C000082B00346EFF3108072B68DF807000D4ABC
:103C100092F80401984206D89DF8070080F31088B6
:103C2000032002B0704792F80601034452FA83F36E
:103C30001B790B709DF8070080F31088002002B0FC
:103C4000704700BF188DFF1F82B0EFF3108072B66F
:103C50008DF807000C4B93F8042132B99DF807004A
:103C600080F31088032002B0704793F80611013AE0
:103C7000013183F8042183F806119DF8070080F3D1
:103C80001088002002B07047188DFF1F10B4044642
:103C900083B0EFF3108072B68DF807000B4B93F8EA
:103CA000072193F8081298180131013280F8084171
:103CB00083F8072183F808129DF8070080F3108825
:103CC000002003B05DF8044B704700BF188DFF1F44
:103CD00082B00146EFF3108072B68DF80700114BE9
:103CE00093F8082232B99DF8070080F3108803206A
:103CF00002B0704793F809221A4492F808210A701A
:103D000093F8081293F809220139013283F8081256
:103D100083F809229DF8070080F31088002002B084
:103D2000704700BF188DFF1F014B93F808027047C2
:103D3000188DFF1F024B93F808024042C0B2704733
:103D4000188DFF1F10B582B0EFF3108072B68DF89A
:103D500007000A4B002403F5847021464FF480725B
:103D600083F8074183F8094283F8084205F068FFA9
:103D70009DF8070080F3108802B010BD188DFF1F5A
:103D800082B00346EFF3108072B68DF807000D4A3B
:103D900092F80802984206D89DF8070080F3108830
:103DA000032002B0704792F80902034452FA83F3E9
:103DB00093F808310B709DF8070080F310880020FD
:103DC00002B07047188DFF1F82B0EFF3108072B6FB
:103DD0008DF807000C4B93F8082232B99DF80700C4
:103DE00080F31088032002B0704793F80912013A5B
:103DF000013183F8082283F809129DF8070080F347
:103E00001088002002B07047188DFF1FF0B5394CA4
:103E100083B000F04DFF2378012B03D094F8040108
:103E200003B0F0BD6378012BF8D194F80832002B71
:103E3000F4D004F5037700222546EFF3108072B624
:103E40008DF8070096B294F808329BB99DF80700E8
:103E500080F31088274D012705F5037239460020AD
:103E6000334684F8057100F09DFCD0B1002385F83D
:103E70000531D3E795F809126818013B90F808015D
:103E800085F80832013107F8010B85F809129DF811
:103E9000070080F310880132B2F5807FCDD116463D
:103EA000D8E795F8053133B10A20FCF7AFFF94F855
:103EB0000531002BF8D116F00706AFD10D4D0127C3
:103EC00005F5037239463046334684F8057100F033
:103ED00069FC10B185F80561A0E795F80531002B64
:103EE0009CD00A20FCF792FF94F80531002BF8D102
:103EF00094E700BF188DFF1F82B00146EFF31080DA
:103F000072B68DF80700134B93F8042162B99DF83F
:103F1000070080F31088EFF3108072B68DF8070069
:103F200093F80421002AF2D093F806211A4412795A
:103F30000A7093F8041193F806210139013283F8CD
:103F4000041183F806219DF8070080F310880020F3
:103F500002B07047188DFF1F10B4044683B0EFF312
:103F6000108072B68DF807000B4B93F8072193F879
:103F7000081298180131013280F8084183F80721AE
:103F800083F808129DF8070080F31088002003B022
:103F90005DF8044B704700BF188DFF1F29B370B444
:103FA0004E1EB6B20136124B83B004460644EFF300
:103FB000108072B68DF8070014F8015B93F80721A2
:103FC00093F8081298180131013280F8085183F8EB
:103FD000072183F808129DF8070080F31088B44287
:103FE000E5D1002003B070BC70470020704700BFCF
:103FF000188DFF1F30B4047882B00546D4B10F4B42
:10400000EFF3108072B68DF8070093F8072193F84C
:10401000081298180131013280F8084183F807210D
:1040200083F808129DF8070080F3108815F8014FF7
:10403000002CE5D1002002B030BC7047188DFF1F66
:1040400038B501250E4C02460B460020294684F85F
:10405000055100F0A7FB054628B1002384F805317F
:104060000625284638BD94F80531002BF9D00A20E2
:10407000FCF7CCFE94F80531002BF8D1284638BD6A
:10408000188DFF1FF0B5414C83B006460D4600F079
:104090000FFE2378012B02D0052003B0F0BD63781A
:1040A000012BF9D194F8083243B3002D6CD0EFF313
:1040B000108072B68DF8070094F80872002F3CD17A
:1040C0009DF8070080F3108801252946002032461C
:1040D0003B4684F805512D4D00F064FB80B1002370
:1040E00085F805310620D8E795F8053133B10A2067
:1040F000FCF78CFE94F80531002BF8D10020CCE7BA
:1041000095F8053133B10A20FCF780FE94F80531AB
:10411000002BF8D117F00707F0D1012529463246C8
:1041200038463B4684F80551184D00F03BFB00280B
:10413000DAD085F805710620AFE706F1FF3E0027CB
:10414000214694F80932234493F808310EF8013FD0
:1041500094F8082294F80932013A013384F80822CD
:1041600084F809329DF8070080F310880137BFB248
:10417000AF42A9D0EFF3108072B68DF8070091F826
:104180000832002B9CD0DCE72F469DE7188DFF1FDF
:10419000594A5A4B5A4941F23400F0B51458594D16
:1041A00044F48024145041F2480641F20407945923
:1041B00024F00F049451D45944F48024D451145859
:1041C00044F48024145093F894700E0A0024FF22C3
:1041D00006F0FE004FF0C00CC1F3074647F002079F
:1041E0004FF0600E090E83F8947083F800C11A74C2
:1041F00083F8802083F8882083F8842083F88C401B
:1042000083F80CE11C7583F8984083F8C04083F86C
:10421000C44083F8C84083F8CC4083F8D04083F88A
:10422000D44083F8D84083F8DC4083F8E04083F83A
:10423000E44083F8E84083F8EC4083F8F04083F8EA
:10424000F44083F8F84083F8FC4083F89C0083F83E
:10425000B06083F8B41083F8AC401C7783F8084151
:1042600093F8942002F0D40242F0010283F89420E3
:1042700085B02C70EFF3108072B68DF80F006C7063
:1042800085F805414FF48072281D2146AC7085F8F1
:10429000064185F8044105F0D3FC9DF80F0080F33A
:1042A0001088EFF3108072B68DF80F004FF4807213
:1042B00005F58470214685F8074185F8094285F89F
:1042C000084205F0BDFC9DF80F0080F31088012521
:1042D0000095204622460C490C4B00F001FA38B9F3
:1042E0000B4B4FF40072C3F888219A6005B0F0BD03
:1042F000284605B0F0BD00BF007004400020074014
:104300000096FF1F188DFF1F753A00004D3A000000
:1043100000E100E0184B93F808225242D2B28A42E0
:1043200001D20220704721B370B44D1EADB20135E9
:1043300083B004460544EFF3108072B68DF8070091
:1043400014F8016B93F8072193F8081298180131BB
:10435000013280F8086183F8072183F808129DF87C
:10436000070080F31088AC42E5D1002003B070BC98
:1043700070470020704700BF188DFF1F014B187851
:10438000704700BF188DFF1F014B5878704700BF62
:10439000188DFF1F70B50646007801F021FC0478E7
:1043A000002C40D075784378AB423ED0012304E026
:1043B0008279AA4200F1050006D0DAB2A24219467B
:1043C00003F10103F4D31146194C337A342202FB72
:1043D0000142D0780BB39378984210D0342203F086
:1043E000030302FB01F103EB430301EB83032344CB
:1043F0001D1D187969786A682B8900F00DFCD4F8C6
:104400009C307BB1317A3246002912F8080B0CBF80
:1044100003210521BDE87040184793780133DBB2D2
:104420009370D9E770BD2146CEE70021CCE700BFED
:104430002490FF1F2DE9F04784B003460E468DF807
:104440000F30174601F0CCFB022E05461DD05EB1A1
:104450003048D0F89C3023B131463A469DF80F00E1
:10446000984704B0BDE8F0870378002BF0D02948C6
:1044700033463424314604FB030201339170D1707A
:104480002A78DBB29A42F6D8E3E790F80080B8F1D8
:10449000000FDDD000231C4603EB83032B440134C3
:1044A0005978DA78E4B20DF10F0001F05DFC444573
:1044B0002346F1DB0024A146A24604EB84042C44ED
:1044C0000DF10F0094F802E0A288E3786178CDF84E
:1044D00000E0CDF804A001F01DFCA3780E4A032BE8
:1044E00004D19DF80F00617801F0AEFC6378E178AB
:1044F00043F0100343EAC11109F101095FFA89F998
:10450000C9B20DF10F00002201F064FCC1454C4618
:10451000D3DB9DE72490FF1F95430000F0B50C7896
:1045200004F06004202C03D0402C1ED0CD20F0BD20
:104530001E464B7886461746232B13D8DFE803F038
:10454000121230363C1212121212121212121212DF
:10455000121212121212121212121212121212123B
:104560004E1E2A2400203080F0BD1F4CD4F8A040FD
:10457000002CDBD0A446BDE8F04060473A46334605
:10458000BDE8F04000F064B93A463346BDE8F0407B
:1045900000F0B2B93A463346BDE8F04000F076B9D3
:1045A0003A463346BDE8F04000F0C6B93A463346D5
:1045B000BDE8F04000F0A8B93B6802224FF0000CC3
:1045C000328083F800C03C68621C3A6084F801C005
:1045D00033463A46BDE8F04000F0AEB93A463346BD
:1045E000BDE8F04000F040B92490FF1FF0B5074649
:1045F00083B0007801F0F4FA7B7ABA7A7968009196
:1046000043EA0223ADF804300578002D42D07E78CD
:104610004378B34240D0012304E08179B14200F1F4
:10462000050006D0D9B2A9421C4603F10103F4D318
:104630000C461A4D3B7A342202FB0452D178EBB17E
:10464000937899420FD0342203F0030302FB04F461
:1046500003EB430304EB83032B44187959799A68DD
:104660009B8900F0D9FAD5F89C302BB13A7A52B92F
:10467000387803216A46984703B0F0BD9378013338
:10468000DBB29370DDE73A46052112F8080B984734
:1046900003B0F0BD2C46CCE70024CAE72490FF1FEE
:1046A00010B50E49437A827AD1F89C40416882B0B5
:1046B00043EA02230091ADF804302CB1037A2BB900
:1046C000007804216A46A04702B010BD02460521C9
:1046D00012F8080BA04702B010BD00BF2490FF1FC6
:1046E0002DE9F8430F469DF8209016461D460446D6
:1046F00001F076FA027801324B468046D2B220466B
:10470000002101F0DFFA814610B14846BDE8F88388
:1047100020461849184A00F0BFF998F80030D3B184
:10472000DFF858E0484649464FF0340C03B203EB3B
:10473000830343440CFB00F293F801900EF80290BF
:1047400072449B7853709170D170013098F80030AA
:10475000C0B28342EAD82046294600F073F8814669
:104760000028D2D1054B4846C3F89C70C3F8A0601E
:10477000BDE8F883354400001D4500002490FF1F6C
:1047800008B5074B0022C3F89C20C3F8A02000F016
:10479000D9F900B108BDBDE8084001F0B3BA00BFC7
:1047A0002490FF1F2DE9F0471F460E469146804694
:1047B00001F016FA0378002B3DD04278B2423CD08B
:1047C000012404E08579B54200F1050006D0E5B288
:1047D0009D42224604F10104F4D32A463421184DA7
:1047E00001FB02F2AC18E178A0780B1ADBB2042BC3
:1047F00016D001F00303013103EB4303C9B202EB0E
:104800008302081AAB18C0B2012883F804805E71D5
:10481000C3F808909F81E17005D00020BDE8F087C3
:10482000C120BDE8F087404631464A463B46BDE8D8
:10483000F04700F0F1B91A46D0E70022CEE700BFFA
:104840002490FF1F014B002019607047C890FF1F84
:1048500010B40B79034C194623715DF8044B01F039
:10486000C3B900BFC890FF1F10B5002482B01C80E0
:104870000B79054C02AA237142F8041D194601F078
:10488000C1F902B010BD00BFC890FF1F2DE9F04173
:104890004FF00008A3F800808B78154C154E94F863
:1048A00004E06371C3F34002570062F3000703F0B2
:1048B0000105324603210A236572377286F804E047
:1048C00027720646FFF76EFF256845B1637903F04E
:1048D000020303F0FF02304623B92121A84700203C
:1048E000BDE8F08142462221A8470020BDE8F081C2
:1048F000C890FF1F7C80FF1F00201880014B4A8852
:104900005A817047C890FF1F30B402241C804C8825
:10491000084D09792971012C05D0022C06D0002000
:10492000188030BC704730BC01F08EB930BC01F04B
:1049300097B900BFC890FF1F30B402241C804C8878
:10494000084D09792971012C05D0022C06D00020D0
:10495000188030BC704730BC01F08EB930BC01F01B
:104960009DB900BFC890FF1F30B4064B064C1A79A2
:104970001D7A22712572224603210A2330BCFFF7DB
:1049800011BF00BFC890FF1F7C80FF1F0246034B72
:1049900012F8080B1B680521184700BFD490FF1FB1
:1049A00070B5094D04462A1D012101F0F9F9204690
:1049B0000121802201F00EFA2B6820780A210022C2
:1049C000BDE87040184700BFD490FF1F30B583B0DA
:1049D00001210DF10702044601F0E2F99DF80730CC
:1049E000074D802B06D02B6820780B21002298479A
:1049F00003B030BD20462A79012101F0EBF9F2E73E
:104A0000D490FF1F436805215A7801F0E3B900BF35
:104A100070B5002182B001220C460546164601F011
:104A2000A3F933462146284600940196102201F04E
:104A300071F921462246284601F096F9234621467F
:104A40008DE850002846102201F064F931462846CE
:104A5000022201F0BFF932462846062101F0BAF9D8
:104A600022462846902101F0B5F9044B28781B68AE
:104A70002146224602B0BDE870401847D490FF1F7F
:104A8000427802B17047C178C90141F0100101F0CC
:104A9000900101F09FB900BF70B582B003460E4689
:104AA0008DF8073001F07EFC1F4D04462E60002873
:104AB00036D11E4A9DF80700102101F0C5F91221D8
:104AC00004461B4A9DF8070001F0BEF91421044377
:104AD000184A9DF8070001F0B7F9E4B21321044326
:104AE000154A9DF8070001F0AFF9E4B2172104431D
:104AF000124A9DF8070001F0A7F902AEE4B20443A0
:104B0000162116F8010D0E4A01F09EF9E4B2044395
:104B100001210322304601F05DF90323E4B22B7139
:104B2000204602B070BD00BFD490FF1F114A0000A4
:104B3000054A0000A1490000CD490000814A00005B
:104B40008D49000030B583B002AD184B05F8010D5A
:104B50000022102128461A6001F078F9122104463B
:104B6000284601F073F914210443284601F06EF938
:104B7000E4B213210443284601F068F9E4B2172196
:104B80000443284601F062F9E4B2044316212846A2
:104B900001F05CF9E4B2204310F0FF0003D19DF86E
:104BA000070001F00BFC03B030BD00BFD490FF1F25
:104BB00030B585B004AC012104F8090D0DF10E02E9
:104BC000204601F0EDF8204606210DF10F0201F01C
:104BD000E7F89DF80E00802801D005B030BD9DF8A3
:104BE0000F309B07F9D59DF8070000F0F7FF01286B
:104BF000054603D09DF80E0005B030BD72B62046C4
:104C000000F066FC0023204629461A468DF80E3037
:104C100001F0E0F862B6EDE72DE9F04184B004ACB4
:104C2000054604F8030D0F46164601210DF10E024C
:104C300020468DF807501D4601F0B2F820460621A7
:104C40000DF10F0201F0ACF89DF80E30802B09D069
:104C5000394632462B460DF1070000F0CDFB04B07B
:104C6000BDE8F0819DF80F3003F0020303F0FF0070
:104C7000002BF4D09DF80D0000F0B0FF0128804615
:104C800008D09DF80E30802B08BF0020E0D104B082
:104C9000BDE8F08172B6204600F01AFC00232046E1
:104CA00041461A468DF80E3001F094F862B6E8E7F6
:104CB000704700BF2DE9F041334E344C0346304677
:104CC0004FF0000884F800814FF4107200F8043BA4
:104CD00006F580650F46FF2104F0B2FF4FF48062B5
:104CE00041462846C6F8445204F0AAFF94F80C3115
:104CF00043F0800384F80C31224692F80C312349AA
:104D00001B06FAD4224BFF221A7091F80C31214A6B
:104D100043F0400381F80C31136887BB23F0004354
:104D200013601A4B1C49C6F800182A0AC5F3074637
:104D30001024012002F0FE022D0EBF2183F89C20DA
:104D400083F8B06083F8B45083F8084183F8940086
:104D500083F8801093F8002102F07F0283F800218D
:104D600093F88420024383F8842093F884208421DC
:104D7000224383F8842019770020BDE8F08143F0B6
:104D800000431360CDE700BF0092FF1F00200740E3
:104D90008680FF1F007004400098FF1F0D4B93F8A2
:104DA0000C21BF210A4083F80C2183F8801093F86E
:104DB000842002F0FE0283F8842093F8942002F00D
:104DC000FE0283F894201A7F02F07B021A770020FB
:104DD000704700BF002007402DE9F0430B464C48C8
:104DE000B3F803501C789E7803C883B002AFB5F5C2
:104DF000007F07E9030005D900200221D87019714E
:104E00004FF40075062C13D84FEA840E012E5FFA7A
:104E10008EF111D049084FEAC10C3E4F0CEB010056
:104E200007EB40004FF6FF78B0F80490C14506D07C
:104E3000952003B0BDE8F0830231C9B2EAE793F8E8
:104E40000180B8F1030FF3D8012EF1D80C3090F89F
:104E50000780B8F1FF0F614406BF4FF0000880F8EB
:104E6000078008F0010807EB41004EEA460141EADD
:104E7000080108BFB3F80350D7F800E88580C9B22D
:104E8000C1748274C0F806E05A78D7F8445242756B
:104E90004AB2067505EBC20100F10C0CB3F8030031
:104EA00048800820C1F804E005F832009CF807208B
:104EB000B3F8038082F0010205EBC2014820A1F89B
:104EC0000280C1F804E005F83200B3F80320724410
:104ED000C7F800283EB99CF8071015F8312062F099
:104EE0007F0205F8312002AA02EB860624B20A49A5
:104EF0005B7856F8082C11F82400012B0CBF1346E0
:104F000042F001030343DBB201F82430002090E7B4
:104F1000E8FE00000092FF1FC0200740062925D8A8
:104F20008B00012A30B4DBB225D05B08134A03EBB7
:104F3000C30302EB43034FF6FF759988A94217D0CC
:104F4000D2F84412DA7C14B282F0010211F8340073
:104F500000F07F0001F8340011F8320000F07F000B
:104F600001F83200DD81002030BC7047C42070475A
:104F7000C42030BC70470233DBB2D6E70092FF1F7B
:104F800006294AD88B00012A2DE9F041DBB246D030
:104F90005B08DAB2D000254C851804EB45054FF6C6
:104FA000FF76AD88B5423ED003EBC30304EB430369
:104FB0004FF6FF7C9E881D4F664519D0DD7CD7F8E3
:104FC00044620FFA85F885F0010516F838E00EF016
:104FD0007F0E06F838E016F8358000EB020E08F078
:104FE0007F0806F8358007EB4E07A3F80EC0BD8892
:104FF0000F4FD4F80038024404EB420209B24FF6D6
:10500000FF76002007F8210022F8046F5D1B568010
:105010009680C4F80058BDE8F081962070470233AE
:10502000C3F34603B5E79620BDE8F0810092FF1F69
:10503000C0200740062970B442D88900012AC9B2AD
:1050400046D00B46C3F34703DC002448E51800EBC9
:1050500045054FF6FF76AD88B54204BF7F234FF478
:105060007E74234400EB4303DB7CFF2B26D0012A14
:1050700031D0490801EBC10100EB41014FF6FF7649
:105080008888164AB04220D0C87CD2F8442205B2A3
:1050900080F0010012F8354004F07F0402F835403A
:1050A00012F8304004F07F0402F83040CE811BB289
:1050B00012F8331061F07B0102F8331070BC7047B6
:1050C000064A92F80139FF2BF8D0D2F84422EEE7D5
:1050D0008B1CDBB2B6E70231C9B2CAE70092FF1FF0
:1050E0000629F0B569D88B00012ADBB200F0868072
:1050F0005B08D800434CC51804EB45054FF6FF7616
:10510000AD88B54204BF7F234FF47E70034404EBA7
:1051100043033C4FD87CFF284ED00EB23A4D0029B5
:1051200050D05B7D13F1FF3318BF0123012A35D026
:1051300015F826E043F0180343EA0E036FF341032A
:1051400005F82630D7F84452002305F830309ABBD2
:10515000062943D97F214FF47E73194404EB4101A2
:10516000CB7CFF2B28D08A884FF6FF70824223D059
:1051700083F0010015F8300000061DD418B205EBCD
:10518000C0046280D1F80620626015F8333003F065
:10519000400363F0770305F83030F0BD15F82620A2
:1051A00043F0140313436FF3410305F82630D7F897
:1051B0004432002203F83020F0BD124C7F234FF41C
:1051C0007E70A3E715F8263061F3410305F8263019
:1051D000D7F8445205F83010002AEDD14B0003F007
:1051E0007E01CB005A1804EB42024FF6FF70928802
:1051F000824204BF7F214FF47E73AEE70233DBB2FD
:1052000076E700BF0092FF1FC0200740062930B498
:105210001ED8490001F07E01C800104B441803EB72
:1052200044044FF6FF75A488AC4204BF7F214FF4BD
:105230007E70014403EB4101D3F84432C97C03EB97
:10524000C10330BC5B6819685B68536011607047CC
:10525000024B7F214FF47E70EBE700BF0092FF1FEF
:1052600006291BD88800012A10B4C0B229D04308EF
:10527000174A03EBC30302EB43034FF6FF749B880B
:10528000A34207D009B2134B13F82130DBB213F05D
:105290000C0F05D105205DF8044B704705207047C1
:1052A0009B0711D4D2F8443213F83020D2090DD123
:1052B00040F0010013F83030DB0914BF0320002058
:1052C000E9E70230C0B2D2E70120E4E70320E2E7D9
:1052D0000092FF1FC0200740062810B420D880008D
:1052E0000129C0B221D04008C200114B111803EBB4
:1052F00041014FF6FF748988A14204BF7F204FF41B
:105300007E72104403EB4000094AC37CFF2B04D09B
:10531000D2F84422002102F833105DF8044B7047A4
:10532000034B7F204FF47E72EBE70230C0B2DAE726
:105330000092FF1F0629F0B545D8490001F07E0113
:10534000CC002C48651800EB45054FF6FF76AD887C
:10535000B54204BF7F214FF47E74214400EB41012C
:1053600001F10C06F4792348FF2C2AD0B1F804E0AF
:10537000D0F844724FF6FF70864501F1040120D049
:1053800084F0010017F8305025F07F0505F0FF008C
:10539000BDB9EBB125B207EBC50C9E4528BF9E46B3
:1053A0007380C1F80620B080ACF802E0CCF804208D
:1053B00017F8343003F0400363F0770307F8353013
:1053C000F0BD9420F0BD0B487F214FF47E74C4E7FC
:1053D00022B207EBC203A3F802E0D1F80210596031
:1053E00017F8343003F0400363F0770307F83230E6
:1053F000F0BD00BF0092FF1F06293BD888002DE9B1
:10540000F0410230C0F34600204D00EBC00005EB38
:1054100040004FF6FF748688A64200F1040C26D0A7
:1054200000F10C04D5F8447294F807E017F83E0038
:1054300000061CD416480DB210F8255005F00205E0
:1054400005F0FF009DB99BB20FFA8EF807EBC80577
:105450009E42A8BF1E466380CCF80620A0806E80C6
:105460006A6049B9C82307F83830BDE8F081932055
:10547000BDE8F0819320704717F83E3003F04003F9
:1054800063F0770307F83830BDE8F0810092FF1F22
:10549000C0200740044B05480A46012183F89820A4
:1054A0000A4600F097BC00BF002007400092FF1F93
:1054B000054B06480021802283F8941083F80C21C4
:1054C0000121FF2200F086BC002007400092FF1F50
:1054D00010B51A4B93F8002102F07F0283F80021E7
:1054E00093F80C2102F0DF0283F80C2193F880205E
:1054F00042F0200283F8802093F8842002F0DF023B
:1055000083F8842093F8942002F0DF0283F894203B
:1055100093F8942042F0040283F8942044F6206427
:10552000013CA4B200F05EFF002CF9D1034A92F8CE
:10553000943003F0FB0382F8943010BD0020074044
:105540002DE9F04FD34DD44F95F880403B7895F836
:1055500084C095F890E085B001218DF80430FF26D5
:1055600000230DEB010238468DF8063002938DF8CA
:105570000D308DF80E308DF807308DF80C300CEAB8
:1055800004045FFA8EF88DF801608DF8056000F074
:1055900007FC95F80C31DA0704D59DF80130802B13
:1055A00000F05E81630711D4E60723D4250700F1DC
:1055B000D380A00700F1B780E10600F19680A20633
:1055C00064D4230672D405B0BDE8F08FB14991F8D8
:1055D000A40091F8A02004AB42EA0022042081F844
:1055E000800023F80E2D122001A9029300F040FC48
:1055F000E607DBD5A74CA948BF26012384F88030F5
:1056000084F8886094F89430002543F0020384F80D
:105610009430FF2184F898504FF4107284F80051B0
:1056200004F00EFB2946D7F844024FF4806204F0E0
:1056300007FB9B4AD7F84432FF21117094F894205D
:1056400002F0FD0284F8942094F80C219F2142F08E
:10565000400284F80C2184F88C6084F8841094F85B
:10566000942002F0DF0284F8942003F5007301A96E
:105670001020C7F8003800F0FBFB94F8943003F0DA
:10568000DF0384F8943005B0BDE8F08F814D20230E
:1056900085F88030132001A900F0EAFB95F88430EA
:1056A00003F0DF0385F8843023068CD5FF2301A89F
:1056B00010210DF102028DF8053000F071FB9DF80C
:1056C0000230012B00F04F81724C802384F880302F
:1056D00001A9172000F0CCFB94F8943003F0DF030D
:1056E00084F8943005B0BDE8F08F6A4D1023202275
:1056F00085F88020142085F8803001A900F0B8FBDF
:1057000095F80C3143F0200385F80C3195F8003101
:1057100043F0800385F8003195F8843043F020038E
:1057200085F884304BE75B4D022385F8803095F88F
:10573000883095F88C201620134001A98DF80C3084
:1057400000F096FBBF2385F8883095F8943003F07D
:10575000DF0385F894302FE74FEA18124D4B0820ED
:10576000C8F3C001062A83F880008DF805208DF863
:10577000071040F282807F264FF0FE0EFF23D7F8FD
:105780004452DFF814C1F1008A1907EB420205EB1D
:10579000C308D07CD8F80490CDF80890B8F80280FF
:1057A000ADF80D8080F00100D07415F83320C2F3FD
:1057B000801282F00102920105F83E209DF8072038
:1057C0004FEACE08012A05EB08099DF8052069D0AB
:1057D0005AB915F8333003F03C03342B00F0CF8076
:1057E0002F4B1A78012A00F02781881907EB400017
:1057F00000F10C0CBCF802204FF6FF739A4200F047
:10580000AF80BDF80DA0BCF8043053449BB2ACF897
:1058100004308088824500F08A804AB1B2FBF0FCF7
:1058200000FB1C2C1FFA8CFCBCF1000F00F08D80DB
:10583000314407EB41079DF80500D7F80A20029292
:105840004FF6FF71ADF80D30F98101A900F010FBA2
:10585000104A92F8943003F0DF0382F89430A8E6FF
:1058600095F8003103F07F0385F8003195F80C318D
:1058700003F0DF0385F80C3194E6C8F3800303EBF3
:105880008203002975D183F0010E5FFA8EFEC3F307
:10589000470674E7002007400092FF1F0492FF1F95
:1058A0008680FF1F10463AB9DFF838A29AF8003018
:1058B000002B71D0012BC8D1881907EB400000F1F3
:1058C0000C0CBDF80DB0BCF80430BCF802A05B4471
:1058D0009BB25345ACF8043019D28088314407EBB1
:1058E0004107C3EB0A0AD7F80A208245134401DCBA
:1058F0001FFA8AF0A9F80200C9F8043015F83E3002
:1059000003F0400363F0770305F80830A0E78088D0
:105910005FFA8BFB584500F0DD80314407EB41070F
:10592000ADF80D30D7F80A30029310468DE79A4251
:105930007FF673AFD21A82423144D8BF90B207EBE0
:10594000410728BBD7F80630D4E701EB060C07EB7C
:105950004C0C9CF812C0BCF1010F7FF469AFE9E771
:105960009DF8050071E700228DF807308DF80520BD
:10597000AAE60233DBB283F0010E5E08FFE60122E5
:10598000029B8DF806201B78564ADB0913702CE722
:10599000D7F80A201344ADE7BCF804304FF6FF7285
:1059A000FF2093428AF8000013D09CF813300FFABE
:1059B00083FA83F0010315F83A0000F07F0005F840
:1059C0003A0015F8330000F07F0005F83300ACF81A
:1059D0000E20002305F80830BB884FF6FF70834285
:1059E0000CBF7F23002303EBC30307EB4303DA7CE5
:1059F000FF2A1AD0B3F804C0844516D082F0010003
:105A000015F83000000610D410B205EBC00AAAF851
:105A100002C0D3F80630CAF8043015F8323003F06B
:105A2000400363F0770305F830309DF805201046F9
:105A3000002A7FF441AF08E7BCF816004FF6FF726A
:105A40004FF0FF0A904283F800A013D09CF8253055
:105A50000FFA83FA83F0010315F83A0000F07F0093
:105A600005F83A0015F8330000F07F0005F8330020
:105A7000ACF82020002305F80830BB884FF6FF70F3
:105A800083420CBF7F23002303EBC30307EB4303D5
:105A9000DA7CFF2A3FF4A9AEB3F804C084453FF492
:105AA000A4AE82F0010015F8300000063FF59DAE6F
:105AB00010B205EBC00AAAF802C0D3F80630CAF843
:105AC000043015F8323003F0400363F0770305F833
:105AD00030308AE69CF806C0BCF1010F7FF41DAFA0
:105AE000FCE600BF8680FF1F0B4611461A4604F0F5
:105AF000A7B800BF032910B417D0072903D9CD20B8
:105B00005DF8044B70471E4B019803EB8102126A4B
:105B10000260002AF3D003EB4101029AB1F8403051
:105B2000138000205DF8044B7047BBB140F209417F
:105B30008B421DD00122134604215C0010482344EF
:105B400000EB83030020DC681B696158019C216025
:105B50009B5C029A5DF8044B138070470199094AD7
:105B60000A601846029B5DF8044B04221A807047B5
:105B7000022A92BF9100042101220023DDE700BF29
:105B8000F0FE00008880FF1F012901D9CD20704759
:105B9000024B5B5C13700020704700BF049AFF1F2C
:105BA00001299DBF024B00205A54CD20704700BFF1
:105BB000049AFF1F01298CBF00200120704700BFFD
:105BC000054B1A788A4205D05B78581AB0FA80F0F3
:105BD0004009704701207047049AFF1F002070475A
:105BE0000048704740FF0000012901D9CD207047CF
:105BF000034BC1EBC101194411600020704700BF85
:105C00008C80FF1F012901D9CD2070470D481368F2
:105C1000C1EBC10101441B7A0B7113685B7A4B71B4
:105C200013689B7A8B711368DB7ACB7113681B7BCB
:105C30000B7213685B7B4B7213689B7B8B7200202B
:105C4000704700BF8880FF1F012901D9CD20704710
:105C5000024B03EB4101116000207047089AFF1FBF
:105C6000012901D9CD207047024B03EB410111609E
:105C7000002070470C9AFF1F012901D9CD207047E1
:105C8000054B106803EB410103780B7113685B78D7
:105C90004B710020704700BF049AFF1F012901D9F2
:105CA000CD207047054B106803EB410103780B7260
:105CB00013685B784B720020704700BF049AFF1F87
:105CC00000BF7047013AF8B5D4B2062C01D999202B
:105CD000F8BD0B4F0646FF21381D07221D463C70BC
:105CE0007C7003F0ADFF07F10C000521072203F0E3
:105CF000A7FF30462946BDE8F840FEF7DBBF00BFEE
:105D0000109AFF1F024B00221A70FFF747B800BF1E
:105D1000109AFF1FF0B5134C83B066789DF8207081
:105D20009DF824C00D4696461EB911B1952003B0CA
